{
  "_format": "hh-sol-artifact-1",
  "contractName": "SynsDonation",
  "sourceName": "contracts/v1/SynsDonation.sol",
  "abi": [
    {
      "inputs": [
        {
          "internalType": "address",
          "name": "_nativeTokenWrapper",
          "type": "address"
        }
      ],
      "stateMutability": "nonpayable",
      "type": "constructor"
    },
    {
      "anonymous": false,
      "inputs": [
        {
          "indexed": true,
          "internalType": "uint256",
          "name": "donationId",
          "type": "uint256"
        },
        {
          "indexed": true,
          "internalType": "address",
          "name": "donator",
          "type": "address"
        },
        {
          "indexed": false,
          "internalType": "address",
          "name": "donatee",
          "type": "address"
        }
      ],
      "name": "DonationCanceled",
      "type": "event"
    },
    {
      "anonymous": false,
      "inputs": [
        {
          "indexed": true,
          "internalType": "uint256",
          "name": "donationId",
          "type": "uint256"
        },
        {
          "indexed": true,
          "internalType": "address",
          "name": "donator",
          "type": "address"
        },
        {
          "indexed": false,
          "internalType": "address",
          "name": "donatee",
          "type": "address"
        },
        {
          "components": [
            {
              "internalType": "uint256",
              "name": "donationId",
              "type": "uint256"
            },
            {
              "internalType": "address",
              "name": "donator",
              "type": "address"
            },
            {
              "internalType": "address",
              "name": "donatee",
              "type": "address"
            },
            {
              "internalType": "uint256",
              "name": "donationAmount",
              "type": "uint256"
            },
            {
              "internalType": "address",
              "name": "currency",
              "type": "address"
            },
            {
              "internalType": "uint256",
              "name": "date",
              "type": "uint256"
            },
            {
              "internalType": "enum ISynsDonation.DonationType",
              "name": "donationType",
              "type": "uint8"
            }
          ],
          "indexed": false,
          "internalType": "struct ISynsDonation.Donation",
          "name": "donation",
          "type": "tuple"
        },
        {
          "indexed": false,
          "internalType": "enum ISynsDonation.DonationType",
          "name": "donationType",
          "type": "uint8"
        }
      ],
      "name": "DonationMade",
      "type": "event"
    },
    {
      "anonymous": false,
      "inputs": [
        {
          "indexed": true,
          "internalType": "uint256",
          "name": "donationId",
          "type": "uint256"
        },
        {
          "indexed": true,
          "internalType": "address",
          "name": "donator",
          "type": "address"
        },
        {
          "indexed": false,
          "internalType": "address",
          "name": "donatee",
          "type": "address"
        },
        {
          "components": [
            {
              "internalType": "uint256",
              "name": "donationId",
              "type": "uint256"
            },
            {
              "internalType": "address",
              "name": "donator",
              "type": "address"
            },
            {
              "internalType": "address",
              "name": "donatee",
              "type": "address"
            },
            {
              "internalType": "uint256",
              "name": "donationAmount",
              "type": "uint256"
            },
            {
              "internalType": "address",
              "name": "currency",
              "type": "address"
            },
            {
              "internalType": "uint256",
              "name": "date",
              "type": "uint256"
            },
            {
              "internalType": "enum ISynsDonation.DonationType",
              "name": "donationType",
              "type": "uint8"
            }
          ],
          "indexed": false,
          "internalType": "struct ISynsDonation.Donation",
          "name": "donation",
          "type": "tuple"
        }
      ],
      "name": "DonationUpdated",
      "type": "event"
    },
    {
      "anonymous": false,
      "inputs": [
        {
          "indexed": false,
          "internalType": "uint8",
          "name": "version",
          "type": "uint8"
        }
      ],
      "name": "Initialized",
      "type": "event"
    },
    {
      "anonymous": false,
      "inputs": [
        {
          "indexed": true,
          "internalType": "bytes32",
          "name": "role",
          "type": "bytes32"
        },
        {
          "indexed": true,
          "internalType": "bytes32",
          "name": "previousAdminRole",
          "type": "bytes32"
        },
        {
          "indexed": true,
          "internalType": "bytes32",
          "name": "newAdminRole",
          "type": "bytes32"
        }
      ],
      "name": "RoleAdminChanged",
      "type": "event"
    },
    {
      "anonymous": false,
      "inputs": [
        {
          "indexed": true,
          "internalType": "bytes32",
          "name": "role",
          "type": "bytes32"
        },
        {
          "indexed": true,
          "internalType": "address",
          "name": "account",
          "type": "address"
        },
        {
          "indexed": true,
          "internalType": "address",
          "name": "sender",
          "type": "address"
        }
      ],
      "name": "RoleGranted",
      "type": "event"
    },
    {
      "anonymous": false,
      "inputs": [
        {
          "indexed": true,
          "internalType": "bytes32",
          "name": "role",
          "type": "bytes32"
        },
        {
          "indexed": true,
          "internalType": "address",
          "name": "account",
          "type": "address"
        },
        {
          "indexed": true,
          "internalType": "address",
          "name": "sender",
          "type": "address"
        }
      ],
      "name": "RoleRevoked",
      "type": "event"
    },
    {
      "inputs": [],
      "name": "DEFAULT_ADMIN_ROLE",
      "outputs": [
        {
          "internalType": "bytes32",
          "name": "",
          "type": "bytes32"
        }
      ],
      "stateMutability": "view",
      "type": "function"
    },
    {
      "inputs": [
        {
          "internalType": "uint256",
          "name": "_donationId",
          "type": "uint256"
        }
      ],
      "name": "cancelDonation",
      "outputs": [],
      "stateMutability": "nonpayable",
      "type": "function"
    },
    {
      "inputs": [],
      "name": "contractType",
      "outputs": [
        {
          "internalType": "bytes32",
          "name": "",
          "type": "bytes32"
        }
      ],
      "stateMutability": "pure",
      "type": "function"
    },
    {
      "inputs": [],
      "name": "contractURI",
      "outputs": [
        {
          "internalType": "string",
          "name": "",
          "type": "string"
        }
      ],
      "stateMutability": "view",
      "type": "function"
    },
    {
      "inputs": [],
      "name": "contractVersion",
      "outputs": [
        {
          "internalType": "uint8",
          "name": "",
          "type": "uint8"
        }
      ],
      "stateMutability": "pure",
      "type": "function"
    },
    {
      "inputs": [
        {
          "internalType": "uint256",
          "name": "_donationId",
          "type": "uint256"
        }
      ],
      "name": "getDonationById",
      "outputs": [
        {
          "components": [
            {
              "internalType": "uint256",
              "name": "donationId",
              "type": "uint256"
            },
            {
              "internalType": "address",
              "name": "donator",
              "type": "address"
            },
            {
              "internalType": "address",
              "name": "donatee",
              "type": "address"
            },
            {
              "internalType": "uint256",
              "name": "donationAmount",
              "type": "uint256"
            },
            {
              "internalType": "address",
              "name": "currency",
              "type": "address"
            },
            {
              "internalType": "uint256",
              "name": "date",
              "type": "uint256"
            },
            {
              "internalType": "enum ISynsDonation.DonationType",
              "name": "donationType",
              "type": "uint8"
            }
          ],
          "internalType": "struct ISynsDonation.Donation",
          "name": "",
          "type": "tuple"
        }
      ],
      "stateMutability": "view",
      "type": "function"
    },
    {
      "inputs": [
        {
          "internalType": "address",
          "name": "_donator",
          "type": "address"
        }
      ],
      "name": "getDonationsMadeBy",
      "outputs": [
        {
          "components": [
            {
              "internalType": "uint256",
              "name": "donationId",
              "type": "uint256"
            },
            {
              "internalType": "address",
              "name": "donator",
              "type": "address"
            },
            {
              "internalType": "address",
              "name": "donatee",
              "type": "address"
            },
            {
              "internalType": "uint256",
              "name": "donationAmount",
              "type": "uint256"
            },
            {
              "internalType": "address",
              "name": "currency",
              "type": "address"
            },
            {
              "internalType": "uint256",
              "name": "date",
              "type": "uint256"
            },
            {
              "internalType": "enum ISynsDonation.DonationType",
              "name": "donationType",
              "type": "uint8"
            }
          ],
          "internalType": "struct ISynsDonation.Donation[]",
          "name": "",
          "type": "tuple[]"
        }
      ],
      "stateMutability": "view",
      "type": "function"
    },
    {
      "inputs": [
        {
          "internalType": "address",
          "name": "_donatee",
          "type": "address"
        }
      ],
      "name": "getDonationsTo",
      "outputs": [
        {
          "components": [
            {
              "internalType": "uint256",
              "name": "donationId",
              "type": "uint256"
            },
            {
              "internalType": "address",
              "name": "donator",
              "type": "address"
            },
            {
              "internalType": "address",
              "name": "donatee",
              "type": "address"
            },
            {
              "internalType": "uint256",
              "name": "donationAmount",
              "type": "uint256"
            },
            {
              "internalType": "address",
              "name": "currency",
              "type": "address"
            },
            {
              "internalType": "uint256",
              "name": "date",
              "type": "uint256"
            },
            {
              "internalType": "enum ISynsDonation.DonationType",
              "name": "donationType",
              "type": "uint8"
            }
          ],
          "internalType": "struct ISynsDonation.Donation[]",
          "name": "",
          "type": "tuple[]"
        }
      ],
      "stateMutability": "view",
      "type": "function"
    },
    {
      "inputs": [
        {
          "internalType": "bytes32",
          "name": "role",
          "type": "bytes32"
        }
      ],
      "name": "getRoleAdmin",
      "outputs": [
        {
          "internalType": "bytes32",
          "name": "",
          "type": "bytes32"
        }
      ],
      "stateMutability": "view",
      "type": "function"
    },
    {
      "inputs": [
        {
          "internalType": "bytes32",
          "name": "role",
          "type": "bytes32"
        },
        {
          "internalType": "uint256",
          "name": "index",
          "type": "uint256"
        }
      ],
      "name": "getRoleMember",
      "outputs": [
        {
          "internalType": "address",
          "name": "",
          "type": "address"
        }
      ],
      "stateMutability": "view",
      "type": "function"
    },
    {
      "inputs": [
        {
          "internalType": "bytes32",
          "name": "role",
          "type": "bytes32"
        }
      ],
      "name": "getRoleMemberCount",
      "outputs": [
        {
          "internalType": "uint256",
          "name": "",
          "type": "uint256"
        }
      ],
      "stateMutability": "view",
      "type": "function"
    },
    {
      "inputs": [
        {
          "internalType": "address",
          "name": "_donator",
          "type": "address"
        }
      ],
      "name": "getTotalDonationsBy",
      "outputs": [
        {
          "internalType": "uint256",
          "name": "total",
          "type": "uint256"
        }
      ],
      "stateMutability": "view",
      "type": "function"
    },
    {
      "inputs": [
        {
          "internalType": "address",
          "name": "_donatee",
          "type": "address"
        }
      ],
      "name": "getTotalDonationsTo",
      "outputs": [
        {
          "internalType": "uint256",
          "name": "total",
          "type": "uint256"
        }
      ],
      "stateMutability": "view",
      "type": "function"
    },
    {
      "inputs": [
        {
          "internalType": "bytes32",
          "name": "role",
          "type": "bytes32"
        },
        {
          "internalType": "address",
          "name": "account",
          "type": "address"
        }
      ],
      "name": "grantRole",
      "outputs": [],
      "stateMutability": "nonpayable",
      "type": "function"
    },
    {
      "inputs": [
        {
          "internalType": "bytes32",
          "name": "role",
          "type": "bytes32"
        },
        {
          "internalType": "address",
          "name": "account",
          "type": "address"
        }
      ],
      "name": "hasRole",
      "outputs": [
        {
          "internalType": "bool",
          "name": "",
          "type": "bool"
        }
      ],
      "stateMutability": "view",
      "type": "function"
    },
    {
      "inputs": [
        {
          "internalType": "address",
          "name": "_defaultAdmin",
          "type": "address"
        },
        {
          "internalType": "string",
          "name": "_contrtactURI",
          "type": "string"
        },
        {
          "internalType": "address[]",
          "name": "_trustedForwarders",
          "type": "address[]"
        }
      ],
      "name": "initialize",
      "outputs": [],
      "stateMutability": "nonpayable",
      "type": "function"
    },
    {
      "inputs": [
        {
          "internalType": "address",
          "name": "forwarder",
          "type": "address"
        }
      ],
      "name": "isTrustedForwarder",
      "outputs": [
        {
          "internalType": "bool",
          "name": "",
          "type": "bool"
        }
      ],
      "stateMutability": "view",
      "type": "function"
    },
    {
      "inputs": [
        {
          "components": [
            {
              "internalType": "uint256",
              "name": "donationAmount",
              "type": "uint256"
            },
            {
              "internalType": "address",
              "name": "donatee",
              "type": "address"
            },
            {
              "internalType": "address",
              "name": "currency",
              "type": "address"
            },
            {
              "internalType": "enum ISynsDonation.DonationType",
              "name": "donationType",
              "type": "uint8"
            }
          ],
          "internalType": "struct ISynsDonation.MakeDonationParam",
          "name": "_param",
          "type": "tuple"
        }
      ],
      "name": "makeDonation",
      "outputs": [],
      "stateMutability": "payable",
      "type": "function"
    },
    {
      "inputs": [
        {
          "internalType": "bytes32",
          "name": "role",
          "type": "bytes32"
        },
        {
          "internalType": "address",
          "name": "account",
          "type": "address"
        }
      ],
      "name": "renounceRole",
      "outputs": [],
      "stateMutability": "nonpayable",
      "type": "function"
    },
    {
      "inputs": [
        {
          "internalType": "bytes32",
          "name": "role",
          "type": "bytes32"
        },
        {
          "internalType": "address",
          "name": "account",
          "type": "address"
        }
      ],
      "name": "revokeRole",
      "outputs": [],
      "stateMutability": "nonpayable",
      "type": "function"
    },
    {
      "inputs": [
        {
          "internalType": "bytes4",
          "name": "interfaceId",
          "type": "bytes4"
        }
      ],
      "name": "supportsInterface",
      "outputs": [
        {
          "internalType": "bool",
          "name": "",
          "type": "bool"
        }
      ],
      "stateMutability": "view",
      "type": "function"
    },
    {
      "inputs": [],
      "name": "totalDonationTx",
      "outputs": [
        {
          "internalType": "uint256",
          "name": "",
          "type": "uint256"
        }
      ],
      "stateMutability": "view",
      "type": "function"
    },
    {
      "inputs": [
        {
          "components": [
            {
              "internalType": "uint256",
              "name": "donationId",
              "type": "uint256"
            },
            {
              "internalType": "uint256",
              "name": "donationAmount",
              "type": "uint256"
            }
          ],
          "internalType": "struct ISynsDonation.UpdateDonationParam",
          "name": "_param",
          "type": "tuple"
        }
      ],
      "name": "updateDonation",
      "outputs": [],
      "stateMutability": "nonpayable",
      "type": "function"
    },
    {
      "stateMutability": "payable",
      "type": "receive"
    }
  ],
  "bytecode": "0x60a06040523480156200001157600080fd5b50604051620029403803806200294083398101604081905262000034916200045b565b600054610100900460ff1615808015620000555750600054600160ff909116105b806200008557506200007230620001bb60201b62000dfa1760201c565b15801562000085575060005460ff166001145b620000ee5760405162461bcd60e51b815260206004820152602e60248201527f496e697469616c697a61626c653a20636f6e747261637420697320616c72656160448201526d191e481a5b9a5d1a585b1a5e995960921b60648201526084015b60405180910390fd5b6000805460ff19166001179055801562000112576000805461ff0019166101001790555b6200011c620001ca565b6001600160a01b0382166080526200013f60006200013962000232565b6200024e565b6200016c7fcd78a1cced6b14f7a512ca70f5d377e467c045593fa67a2d72d8ae6ccd9a89e560006200024e565b8015620001b3576000805461ff0019169055604051600181527f7f26b83ff96e1f2b6a682f133852f6798a09c465da95921460cefb38474024989060200160405180910390a15b50506200048d565b6001600160a01b03163b151590565b600054610100900460ff16620002265760405162461bcd60e51b815260206004820152602b60248201526000805160206200292083398151915260448201526a6e697469616c697a696e6760a81b6064820152608401620000e5565b620002306200025e565b565b600062000249620002c160201b62000e091760201c565b905090565b6200025a8282620002fc565b5050565b600054610100900460ff16620002ba5760405162461bcd60e51b815260206004820152602b60248201526000805160206200292083398151915260448201526a6e697469616c697a696e6760a81b6064820152608401620000e5565b6001606555565b3360009081526033602052604081205460ff1615620002e7575060131936013560601c90565b620002496200033f60201b62000e381760201c565b6200031382826200034360201b62000e3c1760201c565b600082815260fb602090815260409091206200033a91839062000ec3620003e9821b17901c565b505050565b3390565b600082815260c9602090815260408083206001600160a01b038516845290915290205460ff166200025a57600082815260c9602090815260408083206001600160a01b03851684529091529020805460ff19166001179055620003a562000232565b6001600160a01b0316816001600160a01b0316837f2f8788117e7eff1d82e926ec794901d17c78024a50270940304540a733656f0d60405160405180910390a45050565b600062000400836001600160a01b03841662000409565b90505b92915050565b6000818152600183016020526040812054620004525750815460018181018455600084815260208082209093018490558454848252828601909352604090209190915562000403565b50600062000403565b6000602082840312156200046e57600080fd5b81516001600160a01b03811681146200048657600080fd5b9392505050565b608051612477620004a9600039600061100701526124776000f3fe6080604052600436106101445760003560e01c806383fda903116100b6578063a0a8e4601161006f578063a0a8e460146103d3578063a217fddf146103ef578063ca15c87314610404578063cb2ef6f714610424578063d547741f14610447578063e8a3d4851461046757600080fd5b806383fda903146103025780639010d07c14610322578063904904b21461035a5780639112190e1461037857806391d1485414610398578063993c8000146103b857600080fd5b806336568abe1161010857806336568abe146102185780633a105cfb14610238578063572b6c05146102585780637ddc914a146102915780637ebb3196146102be57806383e4aa7d146102eb57600080fd5b806301ffc9a7146101505780630f9879c014610185578063248a9ca31461019a5780632ca8c72b146101d85780632f2ff15d146101f857600080fd5b3661014b57005b600080fd5b34801561015c57600080fd5b5061017061016b366004611d9f565b610489565b60405190151581526020015b60405180910390f35b610198610193366004611e2c565b6104b4565b005b3480156101a657600080fd5b506101ca6101b5366004611ea8565b600090815260c9602052604090206001015490565b60405190815260200161017c565b3480156101e457600080fd5b506101ca6101f3366004611ec1565b610670565b34801561020457600080fd5b50610198610213366004611edc565b6106cb565b34801561022457600080fd5b50610198610233366004611edc565b6106f5565b34801561024457600080fd5b50610198610253366004611f84565b610788565b34801561026457600080fd5b50610170610273366004611ec1565b6001600160a01b031660009081526033602052604090205460ff1690565b34801561029d57600080fd5b506102b16102ac366004611ea8565b6108f0565b60405161017c91906120db565b3480156102ca57600080fd5b506102de6102d9366004611ec1565b61099b565b60405161017c91906120e9565b3480156102f757600080fd5b506101ca61012e5481565b34801561030e57600080fd5b506101ca61031d366004611ec1565b610b1a565b34801561032e57600080fd5b5061034261033d366004612137565b610b6f565b6040516001600160a01b03909116815260200161017c565b34801561036657600080fd5b50610198610375366004612159565b50565b34801561038457600080fd5b506102de610393366004611ec1565b610b8e565b3480156103a457600080fd5b506101706103b3366004611edc565b610d04565b3480156103c457600080fd5b50610198610375366004611ea8565b3480156103df57600080fd5b506040516001815260200161017c565b3480156103fb57600080fd5b506101ca600081565b34801561041057600080fd5b506101ca61041f366004611ea8565b610d2f565b34801561043057600080fd5b506c29bcb73996a237b730ba34b7b760991b6101ca565b34801561045357600080fd5b50610198610462366004611edc565b610d46565b34801561047357600080fd5b5061047c610d6b565b60405161017c91906121d4565b60006001600160e01b03198216635a05180f60e01b14806104ae57506104ae82610ed8565b92915050565b6104bc610f0d565b6104d36104c7610f67565b60408301518351610f71565b6104ef6104de610f67565b602083015160408401518451611005565b61012e805490819060006105028361221d565b919050555060006040518060e00160405280838152602001610522610f67565b6001600160a01b039081168252602086810151821690830152855160408084019190915286015116606082015242608082015260a00160009052600083815261012f60209081526040918290208351815590830151600180830180546001600160a01b03199081166001600160a01b039485161790915593850151600284018054861691841691909117905560608501516003840155608085015160048401805490951692169190911790925560a0830151600582015560c0830151600682018054949550859492939192909160ff199091169083818111156106075761060761204b565b0217905550905050610617610f67565b6001600160a01b0316827f1908387995a01308a05ad17c2c4148b35f71add54de5ed24acf56f52d1657e27856020015184876060015160405161065c93929190612238565b60405180910390a350506103756001606555565b6000805b61012e548110156106c557600081815261012f60205260409020600101546001600160a01b03848116911614156106b357816106af8161221d565b9250505b806106bd8161221d565b915050610674565b50919050565b600082815260c960205260409020600101546106e681611041565b6106f08383611052565b505050565b6106fd610f67565b6001600160a01b0316816001600160a01b03161461077a5760405162461bcd60e51b815260206004820152602f60248201527f416363657373436f6e74726f6c3a2063616e206f6e6c792072656e6f756e636560448201526e103937b632b9903337b91039b2b63360891b60648201526084015b60405180910390fd5b6107848282611074565b5050565b600054610100900460ff16158080156107a85750600054600160ff909116105b806107c25750303b1580156107c2575060005460ff166001145b6108255760405162461bcd60e51b815260206004820152602e60248201527f496e697469616c697a61626c653a20636f6e747261637420697320616c72656160448201526d191e481a5b9a5d1a585b1a5e995960921b6064820152608401610771565b6000805460ff191660011790558015610848576000805461ff0019166101001790555b610850611096565b610859826110c7565b825161086d9061012d906020860190611ccc565b506108796000856110ff565b6108a47fcd78a1cced6b14f7a512ca70f5d377e467c045593fa67a2d72d8ae6ccd9a89e560006110ff565b80156108ea576000805461ff0019169055604051600181527f7f26b83ff96e1f2b6a682f133852f6798a09c465da95921460cefb38474024989060200160405180910390a15b50505050565b6108f8611d50565b600082815261012f6020908152604091829020825160e081018452815481526001808301546001600160a01b039081169483019490945260028301548416948201949094526003820154606082015260048201549092166080830152600581015460a083015260068101549192909160c084019160ff909116908111156109815761098161204b565b60018111156109925761099261204b565b90525092915050565b606060006109a883610670565b90506000808267ffffffffffffffff8111156109c6576109c6611dc9565b6040519080825280602002602001820160405280156109ff57816020015b6109ec611d50565b8152602001906001900390816109e45790505b50905060005b61012e54811015610b1157600081815261012f60205260409020600101546001600160a01b0387811691161415610aff57600081815261012f60209081526040808320815160e081018352815481526001808301546001600160a01b039081169583019590955260028301548516938201939093526003820154606082015260048201549093166080840152600581015460a08401526006810154909160c084019160ff1690811115610aba57610aba61204b565b6001811115610acb57610acb61204b565b81525050905080838581518110610ae457610ae4612264565b60200260200101819052508380610afa9061221d565b945050505b80610b098161221d565b915050610a05565b50949350505050565b6000805b61012e548110156106c557600081815261012f60205260409020600201546001600160a01b0384811691161415610b5d5781610b598161221d565b9250505b80610b678161221d565b915050610b1e565b600082815260fb60205260408120610b879083611109565b9392505050565b60606000610b9b83610b1a565b90506000808267ffffffffffffffff811115610bb957610bb9611dc9565b604051908082528060200260200182016040528015610bf257816020015b610bdf611d50565b815260200190600190039081610bd75790505b50905060005b61012e54811015610b1157600081815261012f60205260409020600201546001600160a01b0387811691161415610cf257600081815261012f60209081526040808320815160e081018352815481526001808301546001600160a01b039081169583019590955260028301548516938201939093526003820154606082015260048201549093166080840152600581015460a08401526006810154909160c084019160ff1690811115610cad57610cad61204b565b6001811115610cbe57610cbe61204b565b81525050905080838581518110610cd757610cd7612264565b60200260200101819052508380610ced9061221d565b945050505b80610cfc8161221d565b915050610bf8565b600091825260c9602090815260408084206001600160a01b0393909316845291905290205460ff1690565b600081815260fb602052604081206104ae90611115565b600082815260c96020526040902060010154610d6181611041565b6106f08383611074565b61012d8054610d799061227a565b80601f0160208091040260200160405190810160405280929190818152602001828054610da59061227a565b8015610df25780601f10610dc757610100808354040283529160200191610df2565b820191906000526020600020905b815481529060010190602001808311610dd557829003601f168201915b505050505081565b6001600160a01b03163b151590565b3360009081526033602052604081205460ff1615610e2e575060131936013560601c90565b503390565b905090565b3390565b610e468282610d04565b61078457600082815260c9602090815260408083206001600160a01b03851684529091529020805460ff19166001179055610e7f610f67565b6001600160a01b0316816001600160a01b0316837f2f8788117e7eff1d82e926ec794901d17c78024a50270940304540a733656f0d60405160405180910390a45050565b6000610b87836001600160a01b03841661111f565b60006001600160e01b03198216637965db0b60e01b14806104ae57506301ffc9a760e01b6001600160e01b03198316146104ae565b60026065541415610f605760405162461bcd60e51b815260206004820152601f60248201527f5265656e7472616e637947756172643a207265656e7472616e742063616c6c006044820152606401610771565b6002606555565b6000610e33610e09565b6001600160a01b03821673eeeeeeeeeeeeeeeeeeeeeeeeeeeeeeeeeeeeeeee1415610ffa578034146106f05760405162461bcd60e51b815260206004820152602c60248201527f2146554e44202d206d73672e76616c756520646f6573206e6f74206d6174636860448201526b20746f74616c20707269636560a01b6064820152608401610771565b6106f083838361116e565b7f000000000000000000000000000000000000000000000000000000000000000061103383868685856112b0565b5050505050565b6001606555565b6103758161104d610f67565b611420565b61105c8282610e3c565b600082815260fb602052604090206106f09082610ec3565b61107e8282611479565b600082815260fb602052604090206106f090826114fe565b600054610100900460ff166110bd5760405162461bcd60e51b8152600401610771906122af565b6110c5611513565b565b600054610100900460ff166110ee5760405162461bcd60e51b8152600401610771906122af565b6110f661153a565b61037581611561565b6107848282611052565b6000610b8783836115f0565b60006104ae825490565b6000818152600183016020526040812054611166575081546001818101845560008481526020808220909301849055845484825282860190935260409020919091556104ae565b5060006104ae565b6040516370a0823160e01b81526001600160a01b0384811660048301528291908416906370a0823190602401602060405180830381865afa1580156111b7573d6000803e3d6000fd5b505050506040513d601f19601f820116820180604052508101906111db91906122fa565b1015801561125a5750604051636eb1769f60e11b81526001600160a01b03848116600483015230602483015282919084169063dd62ed3e90604401602060405180830381865afa158015611233573d6000803e3d6000fd5b505050506040513d601f19601f8201168201806040525081019061125791906122fa565b10155b6106f05760405162461bcd60e51b815260206004820152602160248201527f2142414c414e43453230202d20696e73756666696369656e742062616c616e636044820152606560f81b6064820152608401610771565b816112ba57611033565b6001600160a01b03851673eeeeeeeeeeeeeeeeeeeeeeeeeeeeeeeeeeeeeeee1415611414576001600160a01b03841630141561135a57604051632e1a7d4d60e01b8152600481018390526001600160a01b03821690632e1a7d4d90602401600060405180830381600087803b15801561133257600080fd5b505af1158015611346573d6000803e3d6000fd5b5050505061135583838361161a565b611033565b6001600160a01b038316301415611409573482146113b05760405162461bcd60e51b81526020600482015260136024820152721b5cd9cb9d985b1d5948084f48185b5bdd5b9d606a1b6044820152606401610771565b806001600160a01b031663d0e30db0836040518263ffffffff1660e01b81526004016000604051808303818588803b1580156113eb57600080fd5b505af11580156113ff573d6000803e3d6000fd5b5050505050611033565b61135583838361161a565b611033858585856116df565b61142a8282610d04565b610784576114378161173d565b61144283602061174f565b604051602001611453929190612313565b60408051601f198184030181529082905262461bcd60e51b8252610771916004016121d4565b6114838282610d04565b1561078457600082815260c9602090815260408083206001600160a01b03851684529091529020805460ff191690556114ba610f67565b6001600160a01b0316816001600160a01b0316837ff6391f5c32d9c69d2a47ea670b442974b53935d1edc7fd64eb21e047a839171b60405160405180910390a45050565b6000610b87836001600160a01b0384166118eb565b600054610100900460ff1661103a5760405162461bcd60e51b8152600401610771906122af565b600054610100900460ff166110c55760405162461bcd60e51b8152600401610771906122af565b600054610100900460ff166115885760405162461bcd60e51b8152600401610771906122af565b60005b8151811015610784576001603360008484815181106115ac576115ac612264565b6020908102919091018101516001600160a01b03168252810191909152604001600020805460ff1916911515919091179055806115e88161221d565b91505061158b565b600082600001828154811061160757611607612264565b9060005260206000200154905092915050565b6000836001600160a01b03168360405160006040518083038185875af1925050503d8060008114611667576040519150601f19603f3d011682016040523d82523d6000602084013e61166c565b606091505b50509050806108ea57816001600160a01b031663d0e30db0846040518263ffffffff1660e01b81526004016000604051808303818588803b1580156116b057600080fd5b505af11580156116c4573d6000803e3d6000fd5b506108ea935050506001600160a01b038416905085856119de565b816001600160a01b0316836001600160a01b031614156116fe576108ea565b6001600160a01b038316301415611728576117236001600160a01b03851683836119de565b6108ea565b6108ea6001600160a01b038516848484611a41565b60606104ae6001600160a01b03831660145b6060600061175e836002612388565b6117699060026123a7565b67ffffffffffffffff81111561178157611781611dc9565b6040519080825280601f01601f1916602001820160405280156117ab576020820181803683370190505b509050600360fc1b816000815181106117c6576117c6612264565b60200101906001600160f81b031916908160001a905350600f60fb1b816001815181106117f5576117f5612264565b60200101906001600160f81b031916908160001a9053506000611819846002612388565b6118249060016123a7565b90505b600181111561189c576f181899199a1a9b1b9c1cb0b131b232b360811b85600f166010811061185857611858612264565b1a60f81b82828151811061186e5761186e612264565b60200101906001600160f81b031916908160001a90535060049490941c93611895816123bf565b9050611827565b508315610b875760405162461bcd60e51b815260206004820181905260248201527f537472696e67733a20686578206c656e67746820696e73756666696369656e746044820152606401610771565b600081815260018301602052604081205480156119d457600061190f6001836123d6565b8554909150600090611923906001906123d6565b905081811461198857600086600001828154811061194357611943612264565b906000526020600020015490508087600001848154811061196657611966612264565b6000918252602080832090910192909255918252600188019052604090208390555b8554869080611999576119996123ed565b6001900381819060005260206000200160009055905585600101600086815260200190815260200160002060009055600193505050506104ae565b60009150506104ae565b6040516001600160a01b0383166024820152604481018290526106f090849063a9059cbb60e01b906064015b60408051601f198184030181529190526020810180516001600160e01b03166001600160e01b031990931692909217909152611a79565b6040516001600160a01b03808516602483015283166044820152606481018290526108ea9085906323b872dd60e01b90608401611a0a565b6000611ace826040518060400160405280602081526020017f5361666545524332303a206c6f772d6c6576656c2063616c6c206661696c6564815250856001600160a01b0316611b4b9092919063ffffffff16565b8051909150156106f05780806020019051810190611aec9190612403565b6106f05760405162461bcd60e51b815260206004820152602a60248201527f5361666545524332303a204552433230206f7065726174696f6e20646964206e6044820152691bdd081cdd58d8d9595960b21b6064820152608401610771565b6060611b5a8484600085611b62565b949350505050565b606082471015611bc35760405162461bcd60e51b815260206004820152602660248201527f416464726573733a20696e73756666696369656e742062616c616e636520666f6044820152651c8818d85b1b60d21b6064820152608401610771565b6001600160a01b0385163b611c1a5760405162461bcd60e51b815260206004820152601d60248201527f416464726573733a2063616c6c20746f206e6f6e2d636f6e74726163740000006044820152606401610771565b600080866001600160a01b03168587604051611c369190612425565b60006040518083038185875af1925050503d8060008114611c73576040519150601f19603f3d011682016040523d82523d6000602084013e611c78565b606091505b5091509150611c88828286611c93565b979650505050505050565b60608315611ca2575081610b87565b825115611cb25782518084602001fd5b8160405162461bcd60e51b815260040161077191906121d4565b828054611cd89061227a565b90600052602060002090601f016020900481019282611cfa5760008555611d40565b82601f10611d1357805160ff1916838001178555611d40565b82800160010185558215611d40579182015b82811115611d40578251825591602001919060010190611d25565b50611d4c929150611d8a565b5090565b6040805160e081018252600080825260208201819052918101829052606081018290526080810182905260a081018290529060c082015290565b5b80821115611d4c5760008155600101611d8b565b600060208284031215611db157600080fd5b81356001600160e01b031981168114610b8757600080fd5b634e487b7160e01b600052604160045260246000fd5b604051601f8201601f1916810167ffffffffffffffff81118282101715611e0857611e08611dc9565b604052919050565b80356001600160a01b0381168114611e2757600080fd5b919050565b600060808284031215611e3e57600080fd5b6040516080810181811067ffffffffffffffff82111715611e6157611e61611dc9565b60405282358152611e7460208401611e10565b6020820152611e8560408401611e10565b6040820152606083013560028110611e9c57600080fd5b60608201529392505050565b600060208284031215611eba57600080fd5b5035919050565b600060208284031215611ed357600080fd5b610b8782611e10565b60008060408385031215611eef57600080fd5b82359150611eff60208401611e10565b90509250929050565b600082601f830112611f1957600080fd5b8135602067ffffffffffffffff821115611f3557611f35611dc9565b8160051b611f44828201611ddf565b9283528481018201928281019087851115611f5e57600080fd5b83870192505b84831015611c8857611f7583611e10565b82529183019190830190611f64565b600080600060608486031215611f9957600080fd5b611fa284611e10565b925060208085013567ffffffffffffffff80821115611fc057600080fd5b818701915087601f830112611fd457600080fd5b813581811115611fe657611fe6611dc9565b611ff8601f8201601f19168501611ddf565b818152898583860101111561200c57600080fd5b81858501868301376000918101909401529193506040860135918083111561203357600080fd5b505061204186828701611f08565b9150509250925092565b634e487b7160e01b600052602160045260246000fd5b6002811061207f57634e487b7160e01b600052602160045260246000fd5b9052565b80518252602081015160018060a01b03808216602085015280604084015116604085015260608301516060850152806080840151166080850152505060a081015160a083015260c08101516106f060c0840182612061565b60e081016104ae8284612083565b6020808252825182820181905260009190848201906040850190845b8181101561212b57612118838551612083565b9284019260e09290920191600101612105565b50909695505050505050565b6000806040838503121561214a57600080fd5b50508035926020909101359150565b60006040828403121561216b57600080fd5b6040516040810181811067ffffffffffffffff8211171561218e5761218e611dc9565b604052823581526020928301359281019290925250919050565b60005b838110156121c35781810151838201526020016121ab565b838111156108ea5750506000910152565b60208152600082518060208401526121f38160408501602087016121a8565b601f01601f19169190910160400192915050565b634e487b7160e01b600052601160045260246000fd5b600060001982141561223157612231612207565b5060010190565b6001600160a01b038416815261012081016122566020830185612083565b611b5a610100830184612061565b634e487b7160e01b600052603260045260246000fd5b600181811c9082168061228e57607f821691505b602082108114156106c557634e487b7160e01b600052602260045260246000fd5b6020808252602b908201527f496e697469616c697a61626c653a20636f6e7472616374206973206e6f74206960408201526a6e697469616c697a696e6760a81b606082015260800190565b60006020828403121561230c57600080fd5b5051919050565b7f416363657373436f6e74726f6c3a206163636f756e742000000000000000000081526000835161234b8160178501602088016121a8565b7001034b99036b4b9b9b4b733903937b6329607d1b601791840191820152835161237c8160288401602088016121a8565b01602801949350505050565b60008160001904831182151516156123a2576123a2612207565b500290565b600082198211156123ba576123ba612207565b500190565b6000816123ce576123ce612207565b506000190190565b6000828210156123e8576123e8612207565b500390565b634e487b7160e01b600052603160045260246000fd5b60006020828403121561241557600080fd5b81518015158114610b8757600080fd5b600082516124378184602087016121a8565b919091019291505056fea2646970667358221220a174a97532140354ab0ccf552a1aac761986efa25610e68d9c7093bdc40f222c64736f6c634300080b0033496e697469616c697a61626c653a20636f6e7472616374206973206e6f742069",
  "linkReferences": {},
  "deployedLinkReferences": {}
}