{
  "_format": "hh-sol-artifact-1",
  "contractName": "SynsERC1155",
  "sourceName": "contracts/v1/SynsERC1155.sol",
  "abi": [
    {
      "inputs": [],
      "stateMutability": "nonpayable",
      "type": "constructor"
    },
    {
      "anonymous": false,
      "inputs": [
        {
          "indexed": true,
          "internalType": "address",
          "name": "_owner",
          "type": "address"
        },
        {
          "indexed": true,
          "internalType": "address",
          "name": "_operator",
          "type": "address"
        },
        {
          "indexed": false,
          "internalType": "bool",
          "name": "_approved",
          "type": "bool"
        }
      ],
      "name": "ApprovalForAll",
      "type": "event"
    },
    {
      "anonymous": false,
      "inputs": [
        {
          "indexed": false,
          "internalType": "string",
          "name": "prevURI",
          "type": "string"
        },
        {
          "indexed": false,
          "internalType": "string",
          "name": "newURI",
          "type": "string"
        }
      ],
      "name": "ContractURIUpdated",
      "type": "event"
    },
    {
      "anonymous": false,
      "inputs": [
        {
          "indexed": true,
          "internalType": "address",
          "name": "newRoyaltyRecipient",
          "type": "address"
        },
        {
          "indexed": false,
          "internalType": "uint256",
          "name": "newRoyaltyBps",
          "type": "uint256"
        }
      ],
      "name": "DefaultRoyalty",
      "type": "event"
    },
    {
      "anonymous": false,
      "inputs": [
        {
          "indexed": true,
          "internalType": "address",
          "name": "prevOwner",
          "type": "address"
        },
        {
          "indexed": true,
          "internalType": "address",
          "name": "newOwner",
          "type": "address"
        }
      ],
      "name": "OwnerUpdated",
      "type": "event"
    },
    {
      "anonymous": false,
      "inputs": [
        {
          "indexed": true,
          "internalType": "bytes32",
          "name": "role",
          "type": "bytes32"
        },
        {
          "indexed": true,
          "internalType": "bytes32",
          "name": "previousAdminRole",
          "type": "bytes32"
        },
        {
          "indexed": true,
          "internalType": "bytes32",
          "name": "newAdminRole",
          "type": "bytes32"
        }
      ],
      "name": "RoleAdminChanged",
      "type": "event"
    },
    {
      "anonymous": false,
      "inputs": [
        {
          "indexed": true,
          "internalType": "bytes32",
          "name": "role",
          "type": "bytes32"
        },
        {
          "indexed": true,
          "internalType": "address",
          "name": "account",
          "type": "address"
        },
        {
          "indexed": true,
          "internalType": "address",
          "name": "sender",
          "type": "address"
        }
      ],
      "name": "RoleGranted",
      "type": "event"
    },
    {
      "anonymous": false,
      "inputs": [
        {
          "indexed": true,
          "internalType": "bytes32",
          "name": "role",
          "type": "bytes32"
        },
        {
          "indexed": true,
          "internalType": "address",
          "name": "account",
          "type": "address"
        },
        {
          "indexed": true,
          "internalType": "address",
          "name": "sender",
          "type": "address"
        }
      ],
      "name": "RoleRevoked",
      "type": "event"
    },
    {
      "anonymous": false,
      "inputs": [
        {
          "indexed": true,
          "internalType": "uint256",
          "name": "tokenId",
          "type": "uint256"
        },
        {
          "indexed": true,
          "internalType": "address",
          "name": "royaltyRecipient",
          "type": "address"
        },
        {
          "indexed": false,
          "internalType": "uint256",
          "name": "royaltyBps",
          "type": "uint256"
        }
      ],
      "name": "RoyaltyForToken",
      "type": "event"
    },
    {
      "anonymous": false,
      "inputs": [
        {
          "indexed": true,
          "internalType": "address",
          "name": "_operator",
          "type": "address"
        },
        {
          "indexed": true,
          "internalType": "address",
          "name": "_from",
          "type": "address"
        },
        {
          "indexed": true,
          "internalType": "address",
          "name": "_to",
          "type": "address"
        },
        {
          "indexed": false,
          "internalType": "uint256[]",
          "name": "_ids",
          "type": "uint256[]"
        },
        {
          "indexed": false,
          "internalType": "uint256[]",
          "name": "_values",
          "type": "uint256[]"
        }
      ],
      "name": "TransferBatch",
      "type": "event"
    },
    {
      "anonymous": false,
      "inputs": [
        {
          "indexed": true,
          "internalType": "address",
          "name": "_operator",
          "type": "address"
        },
        {
          "indexed": true,
          "internalType": "address",
          "name": "_from",
          "type": "address"
        },
        {
          "indexed": true,
          "internalType": "address",
          "name": "_to",
          "type": "address"
        },
        {
          "indexed": false,
          "internalType": "uint256",
          "name": "_id",
          "type": "uint256"
        },
        {
          "indexed": false,
          "internalType": "uint256",
          "name": "_value",
          "type": "uint256"
        }
      ],
      "name": "TransferSingle",
      "type": "event"
    },
    {
      "anonymous": false,
      "inputs": [
        {
          "indexed": false,
          "internalType": "string",
          "name": "_value",
          "type": "string"
        },
        {
          "indexed": true,
          "internalType": "uint256",
          "name": "_id",
          "type": "uint256"
        }
      ],
      "name": "URI",
      "type": "event"
    },
    {
      "anonymous": false,
      "inputs": [
        {
          "indexed": true,
          "internalType": "address",
          "name": "to",
          "type": "address"
        },
        {
          "indexed": true,
          "internalType": "uint256",
          "name": "tokenId",
          "type": "uint256"
        },
        {
          "indexed": false,
          "internalType": "string",
          "name": "uri",
          "type": "string"
        },
        {
          "indexed": false,
          "internalType": "uint256",
          "name": "amount",
          "type": "uint256"
        },
        {
          "indexed": true,
          "internalType": "uint256",
          "name": "royaltyBps",
          "type": "uint256"
        }
      ],
      "name": "mintedOnExistedToken",
      "type": "event"
    },
    {
      "anonymous": false,
      "inputs": [
        {
          "indexed": true,
          "internalType": "address",
          "name": "to",
          "type": "address"
        },
        {
          "indexed": true,
          "internalType": "uint256",
          "name": "tokenId",
          "type": "uint256"
        },
        {
          "indexed": false,
          "internalType": "string",
          "name": "uri",
          "type": "string"
        },
        {
          "indexed": false,
          "internalType": "uint256",
          "name": "amount",
          "type": "uint256"
        },
        {
          "indexed": true,
          "internalType": "uint256",
          "name": "royaltyBps",
          "type": "uint256"
        }
      ],
      "name": "newTokenMintedTo",
      "type": "event"
    },
    {
      "inputs": [],
      "name": "DEFAULT_ADMIN_ROLE",
      "outputs": [
        {
          "internalType": "bytes32",
          "name": "",
          "type": "bytes32"
        }
      ],
      "stateMutability": "view",
      "type": "function"
    },
    {
      "inputs": [
        {
          "internalType": "address",
          "name": "",
          "type": "address"
        },
        {
          "internalType": "uint256",
          "name": "",
          "type": "uint256"
        }
      ],
      "name": "balanceOf",
      "outputs": [
        {
          "internalType": "uint256",
          "name": "",
          "type": "uint256"
        }
      ],
      "stateMutability": "view",
      "type": "function"
    },
    {
      "inputs": [
        {
          "internalType": "address[]",
          "name": "accounts",
          "type": "address[]"
        },
        {
          "internalType": "uint256[]",
          "name": "ids",
          "type": "uint256[]"
        }
      ],
      "name": "balanceOfBatch",
      "outputs": [
        {
          "internalType": "uint256[]",
          "name": "",
          "type": "uint256[]"
        }
      ],
      "stateMutability": "view",
      "type": "function"
    },
    {
      "inputs": [
        {
          "internalType": "address",
          "name": "_to",
          "type": "address"
        },
        {
          "internalType": "uint256[]",
          "name": "_tokenIds",
          "type": "uint256[]"
        },
        {
          "internalType": "uint256[]",
          "name": "_amounts",
          "type": "uint256[]"
        },
        {
          "internalType": "string",
          "name": "_baseURI",
          "type": "string"
        }
      ],
      "name": "batchMintTo",
      "outputs": [],
      "stateMutability": "nonpayable",
      "type": "function"
    },
    {
      "inputs": [
        {
          "internalType": "address",
          "name": "_owner",
          "type": "address"
        },
        {
          "internalType": "uint256",
          "name": "_tokenId",
          "type": "uint256"
        },
        {
          "internalType": "uint256",
          "name": "_amount",
          "type": "uint256"
        }
      ],
      "name": "burn",
      "outputs": [],
      "stateMutability": "nonpayable",
      "type": "function"
    },
    {
      "inputs": [
        {
          "internalType": "address",
          "name": "_owner",
          "type": "address"
        },
        {
          "internalType": "uint256[]",
          "name": "_tokenIds",
          "type": "uint256[]"
        },
        {
          "internalType": "uint256[]",
          "name": "_amounts",
          "type": "uint256[]"
        }
      ],
      "name": "burnBatch",
      "outputs": [],
      "stateMutability": "nonpayable",
      "type": "function"
    },
    {
      "inputs": [],
      "name": "contractURI",
      "outputs": [
        {
          "internalType": "string",
          "name": "",
          "type": "string"
        }
      ],
      "stateMutability": "view",
      "type": "function"
    },
    {
      "inputs": [],
      "name": "getBaseURICount",
      "outputs": [
        {
          "internalType": "uint256",
          "name": "",
          "type": "uint256"
        }
      ],
      "stateMutability": "view",
      "type": "function"
    },
    {
      "inputs": [
        {
          "internalType": "uint256",
          "name": "_index",
          "type": "uint256"
        }
      ],
      "name": "getBatchIdAtIndex",
      "outputs": [
        {
          "internalType": "uint256",
          "name": "",
          "type": "uint256"
        }
      ],
      "stateMutability": "view",
      "type": "function"
    },
    {
      "inputs": [],
      "name": "getDefaultRoyaltyInfo",
      "outputs": [
        {
          "internalType": "address",
          "name": "",
          "type": "address"
        },
        {
          "internalType": "uint16",
          "name": "",
          "type": "uint16"
        }
      ],
      "stateMutability": "view",
      "type": "function"
    },
    {
      "inputs": [],
      "name": "getNewTokenRequiredId",
      "outputs": [
        {
          "internalType": "uint256",
          "name": "",
          "type": "uint256"
        }
      ],
      "stateMutability": "pure",
      "type": "function"
    },
    {
      "inputs": [
        {
          "internalType": "uint256",
          "name": "_tokenId",
          "type": "uint256"
        }
      ],
      "name": "getOriginalCreator",
      "outputs": [
        {
          "internalType": "address",
          "name": "",
          "type": "address"
        }
      ],
      "stateMutability": "view",
      "type": "function"
    },
    {
      "inputs": [
        {
          "internalType": "bytes32",
          "name": "role",
          "type": "bytes32"
        }
      ],
      "name": "getRoleAdmin",
      "outputs": [
        {
          "internalType": "bytes32",
          "name": "",
          "type": "bytes32"
        }
      ],
      "stateMutability": "view",
      "type": "function"
    },
    {
      "inputs": [
        {
          "internalType": "bytes32",
          "name": "role",
          "type": "bytes32"
        },
        {
          "internalType": "uint256",
          "name": "index",
          "type": "uint256"
        }
      ],
      "name": "getRoleMember",
      "outputs": [
        {
          "internalType": "address",
          "name": "member",
          "type": "address"
        }
      ],
      "stateMutability": "view",
      "type": "function"
    },
    {
      "inputs": [
        {
          "internalType": "bytes32",
          "name": "role",
          "type": "bytes32"
        }
      ],
      "name": "getRoleMemberCount",
      "outputs": [
        {
          "internalType": "uint256",
          "name": "count",
          "type": "uint256"
        }
      ],
      "stateMutability": "view",
      "type": "function"
    },
    {
      "inputs": [
        {
          "internalType": "uint256",
          "name": "_tokenId",
          "type": "uint256"
        }
      ],
      "name": "getRoyaltyInfoForToken",
      "outputs": [
        {
          "internalType": "address",
          "name": "",
          "type": "address"
        },
        {
          "internalType": "uint16",
          "name": "",
          "type": "uint16"
        }
      ],
      "stateMutability": "view",
      "type": "function"
    },
    {
      "inputs": [
        {
          "internalType": "uint256",
          "name": "_tokenId",
          "type": "uint256"
        }
      ],
      "name": "getTokenTimestamp",
      "outputs": [
        {
          "internalType": "uint256",
          "name": "",
          "type": "uint256"
        }
      ],
      "stateMutability": "view",
      "type": "function"
    },
    {
      "inputs": [
        {
          "internalType": "address",
          "name": "owner",
          "type": "address"
        }
      ],
      "name": "getTokensOwnedBy",
      "outputs": [
        {
          "internalType": "int256[]",
          "name": "",
          "type": "int256[]"
        }
      ],
      "stateMutability": "view",
      "type": "function"
    },
    {
      "inputs": [
        {
          "internalType": "bytes32",
          "name": "role",
          "type": "bytes32"
        },
        {
          "internalType": "address",
          "name": "account",
          "type": "address"
        }
      ],
      "name": "grantRole",
      "outputs": [],
      "stateMutability": "nonpayable",
      "type": "function"
    },
    {
      "inputs": [
        {
          "internalType": "bytes32",
          "name": "role",
          "type": "bytes32"
        },
        {
          "internalType": "address",
          "name": "account",
          "type": "address"
        }
      ],
      "name": "hasRole",
      "outputs": [
        {
          "internalType": "bool",
          "name": "",
          "type": "bool"
        }
      ],
      "stateMutability": "view",
      "type": "function"
    },
    {
      "inputs": [
        {
          "internalType": "bytes32",
          "name": "role",
          "type": "bytes32"
        },
        {
          "internalType": "address",
          "name": "account",
          "type": "address"
        }
      ],
      "name": "hasRoleWithSwitch",
      "outputs": [
        {
          "internalType": "bool",
          "name": "",
          "type": "bool"
        }
      ],
      "stateMutability": "view",
      "type": "function"
    },
    {
      "inputs": [
        {
          "internalType": "address",
          "name": "",
          "type": "address"
        },
        {
          "internalType": "address",
          "name": "",
          "type": "address"
        }
      ],
      "name": "isApprovedForAll",
      "outputs": [
        {
          "internalType": "bool",
          "name": "",
          "type": "bool"
        }
      ],
      "stateMutability": "view",
      "type": "function"
    },
    {
      "inputs": [
        {
          "internalType": "address",
          "name": "_to",
          "type": "address"
        },
        {
          "internalType": "uint256",
          "name": "_tokenId",
          "type": "uint256"
        },
        {
          "internalType": "string",
          "name": "_tokenURI",
          "type": "string"
        },
        {
          "internalType": "uint256",
          "name": "_amount",
          "type": "uint256"
        }
      ],
      "name": "mintTo",
      "outputs": [],
      "stateMutability": "nonpayable",
      "type": "function"
    },
    {
      "inputs": [
        {
          "internalType": "bytes[]",
          "name": "data",
          "type": "bytes[]"
        }
      ],
      "name": "multicall",
      "outputs": [
        {
          "internalType": "bytes[]",
          "name": "results",
          "type": "bytes[]"
        }
      ],
      "stateMutability": "nonpayable",
      "type": "function"
    },
    {
      "inputs": [],
      "name": "name",
      "outputs": [
        {
          "internalType": "string",
          "name": "",
          "type": "string"
        }
      ],
      "stateMutability": "view",
      "type": "function"
    },
    {
      "inputs": [],
      "name": "nextTokenIdToMint",
      "outputs": [
        {
          "internalType": "uint256",
          "name": "",
          "type": "uint256"
        }
      ],
      "stateMutability": "view",
      "type": "function"
    },
    {
      "inputs": [],
      "name": "owner",
      "outputs": [
        {
          "internalType": "address",
          "name": "",
          "type": "address"
        }
      ],
      "stateMutability": "view",
      "type": "function"
    },
    {
      "inputs": [
        {
          "internalType": "bytes32",
          "name": "role",
          "type": "bytes32"
        },
        {
          "internalType": "address",
          "name": "account",
          "type": "address"
        }
      ],
      "name": "renounceRole",
      "outputs": [],
      "stateMutability": "nonpayable",
      "type": "function"
    },
    {
      "inputs": [
        {
          "internalType": "bytes32",
          "name": "role",
          "type": "bytes32"
        },
        {
          "internalType": "address",
          "name": "account",
          "type": "address"
        }
      ],
      "name": "revokeRole",
      "outputs": [],
      "stateMutability": "nonpayable",
      "type": "function"
    },
    {
      "inputs": [
        {
          "internalType": "uint256",
          "name": "tokenId",
          "type": "uint256"
        },
        {
          "internalType": "uint256",
          "name": "salePrice",
          "type": "uint256"
        }
      ],
      "name": "royaltyInfo",
      "outputs": [
        {
          "internalType": "address",
          "name": "receiver",
          "type": "address"
        },
        {
          "internalType": "uint256",
          "name": "royaltyAmount",
          "type": "uint256"
        }
      ],
      "stateMutability": "view",
      "type": "function"
    },
    {
      "inputs": [
        {
          "internalType": "address",
          "name": "from",
          "type": "address"
        },
        {
          "internalType": "address",
          "name": "to",
          "type": "address"
        },
        {
          "internalType": "uint256[]",
          "name": "ids",
          "type": "uint256[]"
        },
        {
          "internalType": "uint256[]",
          "name": "amounts",
          "type": "uint256[]"
        },
        {
          "internalType": "bytes",
          "name": "data",
          "type": "bytes"
        }
      ],
      "name": "safeBatchTransferFrom",
      "outputs": [],
      "stateMutability": "nonpayable",
      "type": "function"
    },
    {
      "inputs": [
        {
          "internalType": "uint256",
          "name": "_tokenId",
          "type": "uint256"
        },
        {
          "internalType": "string",
          "name": "_tokenURI",
          "type": "string"
        },
        {
          "internalType": "uint256",
          "name": "_amount",
          "type": "uint256"
        },
        {
          "internalType": "uint256",
          "name": "_royaltyBps",
          "type": "uint256"
        }
      ],
      "name": "safeMintTo",
      "outputs": [],
      "stateMutability": "nonpayable",
      "type": "function"
    },
    {
      "inputs": [
        {
          "internalType": "address",
          "name": "from",
          "type": "address"
        },
        {
          "internalType": "address",
          "name": "to",
          "type": "address"
        },
        {
          "internalType": "uint256",
          "name": "id",
          "type": "uint256"
        },
        {
          "internalType": "uint256",
          "name": "amount",
          "type": "uint256"
        },
        {
          "internalType": "bytes",
          "name": "data",
          "type": "bytes"
        }
      ],
      "name": "safeTransferFrom",
      "outputs": [],
      "stateMutability": "nonpayable",
      "type": "function"
    },
    {
      "inputs": [
        {
          "internalType": "address",
          "name": "operator",
          "type": "address"
        },
        {
          "internalType": "bool",
          "name": "approved",
          "type": "bool"
        }
      ],
      "name": "setApprovalForAll",
      "outputs": [],
      "stateMutability": "nonpayable",
      "type": "function"
    },
    {
      "inputs": [
        {
          "internalType": "string",
          "name": "_uri",
          "type": "string"
        }
      ],
      "name": "setContractURI",
      "outputs": [],
      "stateMutability": "nonpayable",
      "type": "function"
    },
    {
      "inputs": [
        {
          "internalType": "address",
          "name": "_royaltyRecipient",
          "type": "address"
        },
        {
          "internalType": "uint256",
          "name": "_royaltyBps",
          "type": "uint256"
        }
      ],
      "name": "setDefaultRoyaltyInfo",
      "outputs": [],
      "stateMutability": "nonpayable",
      "type": "function"
    },
    {
      "inputs": [
        {
          "internalType": "address",
          "name": "_newOwner",
          "type": "address"
        }
      ],
      "name": "setOwner",
      "outputs": [],
      "stateMutability": "nonpayable",
      "type": "function"
    },
    {
      "inputs": [
        {
          "internalType": "uint256",
          "name": "_tokenId",
          "type": "uint256"
        },
        {
          "internalType": "address",
          "name": "_recipient",
          "type": "address"
        },
        {
          "internalType": "uint256",
          "name": "_bps",
          "type": "uint256"
        }
      ],
      "name": "setRoyaltyInfoForToken",
      "outputs": [],
      "stateMutability": "nonpayable",
      "type": "function"
    },
    {
      "inputs": [
        {
          "internalType": "bytes4",
          "name": "interfaceId",
          "type": "bytes4"
        }
      ],
      "name": "supportsInterface",
      "outputs": [
        {
          "internalType": "bool",
          "name": "",
          "type": "bool"
        }
      ],
      "stateMutability": "view",
      "type": "function"
    },
    {
      "inputs": [],
      "name": "symbol",
      "outputs": [
        {
          "internalType": "string",
          "name": "",
          "type": "string"
        }
      ],
      "stateMutability": "view",
      "type": "function"
    },
    {
      "inputs": [
        {
          "internalType": "uint256",
          "name": "",
          "type": "uint256"
        }
      ],
      "name": "totalSupply",
      "outputs": [
        {
          "internalType": "uint256",
          "name": "",
          "type": "uint256"
        }
      ],
      "stateMutability": "view",
      "type": "function"
    },
    {
      "inputs": [
        {
          "internalType": "uint256",
          "name": "_tokenId",
          "type": "uint256"
        }
      ],
      "name": "uri",
      "outputs": [
        {
          "internalType": "string",
          "name": "",
          "type": "string"
        }
      ],
      "stateMutability": "view",
      "type": "function"
    }
  ],
  "bytecode": "0x60806040523480156200001157600080fd5b50604080518082018252601681527f537061726b20596f7572204e6f626c652053746f72790000000000000000000060208083019182528351808501909452600884526753594e533131353560c01b908401528151919291839183916200007b91600091620001fe565b50805162000091906001906020840190620001fe565b505050620000a533620000bb60201b60201c565b50620000b590506000336200010d565b62000308565b600680546001600160a01b038381166001600160a01b0319831681179093556040519116919082907f8292fce18fa69edf4db7b94ea2e58241df0ae57f97e0a6c9b29067028bf92d7690600090a35050565b6200012482826200013460201b6200186f1760201c565b6200013082826200018f565b5050565b6000828152600d602090815260408083206001600160a01b0385168085529252808320805460ff1916600117905551339285917f2f8788117e7eff1d82e926ec794901d17c78024a50270940304540a733656f0d9190a45050565b6000828152600f6020526040812080549160019190620001b08385620002a4565b90915550506000928352600f6020908152604080852083865260018101835281862080546001600160a01b039096166001600160a01b03199096168617905593855260029093019052912055565b8280546200020c90620002cb565b90600052602060002090601f0160209004810192826200023057600085556200027b565b82601f106200024b57805160ff19168380011785556200027b565b828001600101855582156200027b579182015b828111156200027b5782518255916020019190600101906200025e565b50620002899291506200028d565b5090565b5b808211156200028957600081556001016200028e565b60008219821115620002c657634e487b7160e01b600052601160045260246000fd5b500190565b600181811c90821680620002e057607f821691505b602082108114156200030257634e487b7160e01b600052602260045260246000fd5b50919050565b613d0980620003186000396000f3fe608060405234801561001057600080fd5b506004361061025d5760003560e01c80639010d07c11610146578063b03f4528116100c3578063caa47fbf11610087578063caa47fbf146105c2578063d547741f146105eb578063e8a3d485146105fe578063e985e9c514610606578063f242432a14610634578063f5298aca1461064757600080fd5b8063b03f452814610556578063b1bcb08114610569578063b24f2d3914610571578063bd85b0391461058f578063ca15c873146105af57600080fd5b80639bcf7a151161010a5780639bcf7a15146104f5578063a217fddf14610508578063a22cb46514610510578063a32fa5b314610523578063ac9650d81461053657600080fd5b80639010d07c146104a157806391d14854146104b4578063938e3d7b146104c7578063949c09f7146104da57806395d89b41146104ed57600080fd5b80632f2ff15d116101df5780634e1273f4116101a35780634e1273f41461041b578063600dd5ea1461043b57806363b45e2d1461044e5780636b20c45414610456578063870b5ab2146104695780638da5cb5b1461047c57600080fd5b80632f2ff15d1461039857806336568abe146103ab5780633b1475a7146103be5780633d4392c0146103c65780634cc157df146103e657600080fd5b806321a16b0c1161022657806321a16b0c146103005780632419f51b14610320578063248a9ca3146103335780632a55205a146103535780632eb2c2d61461038557600080fd5b8062fdd58e1461026257806301ffc9a7146102a057806306fdde03146102c35780630e89341c146102d857806313af4035146102eb575b600080fd5b61028d610270366004612f7a565b600260209081526000928352604080842090915290825290205481565b6040519081526020015b60405180910390f35b6102b36102ae366004612fba565b61065a565b6040519015158152602001610297565b6102cb6106c7565b604051610297919061302f565b6102cb6102e6366004613042565b610755565b6102fe6102f936600461305b565b610843565b005b61028d61030e366004613042565b60009081526011602052604090205490565b61028d61032e366004613042565b61087c565b61028d610341366004613042565b6000908152600e602052604090205490565b610366610361366004613076565b6108ea565b604080516001600160a01b039093168352602083019190915201610297565b6102fe6103933660046131e1565b610927565b6102fe6103a636600461328a565b6109b6565b6102fe6103b936600461328a565b610a50565b600b5461028d565b6103d96103d436600461305b565b610ab2565b60405161029791906132b6565b6103f96103f4366004613042565b610b9b565b604080516001600160a01b03909316835261ffff909116602083015201610297565b61042e6104293660046132fa565b610c06565b60405161029791906133ff565b6102fe610449366004612f7a565b610d12565b60095461028d565b6102fe610464366004613412565b610d40565b6102fe610477366004613485565b610ee2565b6006546001600160a01b03165b6040516001600160a01b039091168152602001610297565b6104896104af366004613076565b61106c565b6102b36104c236600461328a565b61115b565b6102fe6104d53660046134db565b611186565b6102fe6104e836600461350f565b6111b3565b6102cb611361565b6102fe6105033660046135a7565b61136e565b61028d600081565b6102fe61051e3660046135dc565b6113a2565b6102b361053136600461328a565b61145b565b610549610544366004613618565b6114b1565b604051610297919061368c565b6102fe6105643660046136ee565b6115a5565b60001961028d565b6007546001600160a01b03811690600160a01b900461ffff166103f9565b61028d61059d366004613042565b600c6020526000908152604090205481565b61028d6105bd366004613042565b611643565b6104896105d0366004613042565b6000908152601060205260409020546001600160a01b031690565b6102fe6105f936600461328a565b6116cc565b6102cb6116e5565b6102b361061436600461374c565b600360209081526000928352604080842090915290825290205460ff1681565b6102fe610642366004613776565b6116f2565b6102fe6106553660046137da565b61177a565b60006301ffc9a760e01b6001600160e01b03198316148061068b5750636cdb3d1360e11b6001600160e01b03198316145b806106a657506303a24d0760e21b6001600160e01b03198316145b806106c157506001600160e01b0319821663152a902d60e11b145b92915050565b600080546106d49061380d565b80601f01602080910402602001604051908101604052809291908181526020018280546107009061380d565b801561074d5780601f106107225761010080835404028352916020019161074d565b820191906000526020600020905b81548152906001019060200180831161073057829003601f168201915b505050505081565b6000818152600460205260408120805460609291906107739061380d565b80601f016020809104026020016040519081016040528092919081815260200182805461079f9061380d565b80156107ec5780601f106107c1576101008083540402835291602001916107ec565b820191906000526020600020905b8154815290600101906020018083116107cf57829003601f168201915b505050505090506000815111156108035792915050565b600061080e846118ca565b90508061081a85611a66565b60405160200161082b929190613842565b60405160208183030381529060405292505050919050565b61084b611b6b565b6108705760405162461bcd60e51b815260040161086790613871565b60405180910390fd5b61087981611b98565b50565b600061088760095490565b82106108c55760405162461bcd60e51b815260206004820152600d60248201526c092dcecc2d8d2c840d2dcc8caf609b1b6044820152606401610867565b600982815481106108d8576108d8613899565b90600052602060002001549050919050565b6000806000806108f986610b9b565b90945084925061ffff16905061271061091282876138c5565b61091c91906138fa565b925050509250929050565b6001600160a01b03851633148061096157506001600160a01b038516600090815260036020908152604080832033845290915290205460ff165b6109a25760405162461bcd60e51b81526020600482015260126024820152710853d5d3915497d3d497d054141493d5915160721b6044820152606401610867565b6109af8585858585611bea565b5050505050565b6000828152600e60205260409020546109cf9033611d9d565b6000828152600d602090815260408083206001600160a01b038516845290915290205460ff1615610a425760405162461bcd60e51b815260206004820152601d60248201527f43616e206f6e6c79206772616e7420746f206e6f6e20686f6c646572730000006044820152606401610867565b610a4c8282611e1d565b5050565b336001600160a01b03821614610aa85760405162461bcd60e51b815260206004820152601a60248201527f43616e206f6e6c792072656e6f756e636520666f722073656c660000000000006044820152606401610867565b610a4c8282611e31565b60606000610abf600b5490565b90506000816001600160401b03811115610adb57610adb613098565b604051908082528060200260200182016040528015610b04578160200160208202803683370190505b50905060005b82811015610b93576001600160a01b038516600090815260026020908152604080832084845290915290205415610b5f5780828281518110610b4e57610b4e613899565b602002602001018181525050610b81565b600019828281518110610b7457610b74613899565b6020026020010181815250505b80610b8b8161390e565b915050610b0a565b509392505050565b6000818152600860209081526040808320815180830190925280546001600160a01b031680835260019091015492820192909252829115610be25780516020820151610bfc565b6007546001600160a01b03811690600160a01b900461ffff165b9250925050915091565b60608151835114610c295760405162461bcd60e51b815260040161086790613929565b600083516001600160401b03811115610c4457610c44613098565b604051908082528060200260200182016040528015610c6d578160200160208202803683370190505b50905060005b8451811015610b935760026000868381518110610c9257610c92613899565b60200260200101516001600160a01b03166001600160a01b031681526020019081526020016000206000858381518110610cce57610cce613899565b6020026020010151815260200190815260200160002054828281518110610cf757610cf7613899565b6020908102919091010152610d0b8161390e565b9050610c73565b610d1a611b6b565b610d365760405162461bcd60e51b815260040161086790613871565b610a4c8282611e88565b336001600160a01b038416811480610d7d57506001600160a01b0380851660009081526003602090815260408083209385168352929052205460ff165b610dbd5760405162461bcd60e51b81526020600482015260116024820152702ab730b8383937bb32b21031b0b63632b960791b6044820152606401610867565b8151835114610e005760405162461bcd60e51b815260206004820152600f60248201526e098cadccee8d040dad2e6dac2e8c6d608b1b6044820152606401610867565b60005b8351811015610ed057828181518110610e1e57610e1e613899565b602002602001015160026000876001600160a01b03166001600160a01b031681526020019081526020016000206000868481518110610e5f57610e5f613899565b60200260200101518152602001908152602001600020541015610ebe5760405162461bcd60e51b8152602060048201526017602482015276139bdd08195b9bdd59da081d1bdad95b9cc81bdddb9959604a1b6044820152606401610867565b610ec9600182613952565b9050610e03565b50610edc848484611f2e565b50505050565b600019848114610f7a576000858152601060205260409020546001600160a01b03163314610f7a576040805162461bcd60e51b81526020600482015260248101919091527f21415554484f52202d206f6e6c79206f726967696e616c20617574686f72206360448201527f616e20616464206d6f726520737570706c7920746f207468697320746f6b656e6064820152608401610867565b6000610f85600b5490565b9050610f93338787876115a5565b8186141561101e57600081815260106020526040902080546001600160a01b03191633908117909155610fc8908290856120e3565b60008181526011602052604090819020429055518390829033907f7b76e93fe5c68e1505f929bc138ed2a5f56dddf32c5878989908a62ac48c396890611011908a908a9061396a565b60405180910390a4611064565b8281336001600160a01b03167fd73f5279190e8c0114f28ce84abb24fbccd531714e736ec44622ca3dab8be0b6888860405161105b92919061396a565b60405180910390a45b505050505050565b6000828152600f602052604081205481805b82811015611152576000868152600f602090815260408083208484526001019091529020546001600160a01b0316156110fb57848214156110e9576000868152600f602090815260408083209383526001909301905220546001600160a01b031692506106c1915050565b6110f4600183613952565b9150611140565b61110686600061115b565b801561112d57506000868152600f6020908152604080832083805260020190915290205481145b156111405761113d600183613952565b91505b61114b600182613952565b905061107e565b50505092915050565b6000918252600d602090815260408084206001600160a01b0393909316845291905290205460ff1690565b61118e611b6b565b6111aa5760405162461bcd60e51b815260040161086790613871565b610879816121a4565b60008251116111fb5760405162461bcd60e51b815260206004820152601460248201527326b4b73a34b733903d32b937903a37b5b2b7399760611b6044820152606401610867565b815183511461123f5760405162461bcd60e51b815260206004820152601060248201526f2632b733ba341036b4b9b6b0ba31b41760811b6044820152606401610867565b600061124a600b5490565b9050806000805b86518110156113215760001987828151811061126f5761126f613899565b602002602001015114156112ba578387828151811061129057611290613899565b60209081029190910101526112a6600185613952565b93506112b3600183613952565b915061130f565b838782815181106112cd576112cd613899565b60200260200101511061130f5760405162461bcd60e51b815260206004820152600a6024820152691a5b9d985b1a59081a5960b21b6044820152606401610867565b61131a600182613952565b9050611251565b50801561133657611333828286612286565b50505b82600b81905550611358878787604051806020016040528060008152506122f3565b50505050505050565b600180546106d49061380d565b611376611b6b565b6113925760405162461bcd60e51b815260040161086790613871565b61139d8383836120e3565b505050565b336001600160a01b0383168114156113ed5760405162461bcd60e51b815260206004820152600e60248201526d20a8282927ab24a723afa9a2a62360911b6044820152606401610867565b6001600160a01b03818116600081815260036020908152604080832094881680845294825291829020805460ff191687151590811790915591519182527f17307eab39ab6107e8899845ad3d59bd9653f200f220920489ca2b5937696c3191015b60405180910390a3505050565b6000828152600d6020908152604080832083805290915281205460ff166114a857506000828152600d602090815260408083206001600160a01b038516845290915290205460ff166106c1565b50600192915050565b6060816001600160401b038111156114cb576114cb613098565b6040519080825280602002602001820160405280156114fe57816020015b60608152602001906001900390816114e95790505b50905060005b8281101561159e5761156e3085858481811061152257611522613899565b9050602002810190611534919061398c565b8080601f01602080910402602001604051908101604052809392919081815260200183838082843760009201919091525061244e92505050565b82828151811061158057611580613899565b602002602001018190525080806115969061390e565b915050611504565b5092915050565b6000806115b1600b5490565b90506000198514156115e8578091506001600b60008282546115d39190613952565b909155506115e39050818561247a565b611628565b8085106116245760405162461bcd60e51b815260206004820152600a6024820152691a5b9d985b1a59081a5960b21b6044820152606401610867565b8491505b61106486838560405180602001604052806000815250612499565b6000818152600f6020526040812054815b818110156116a7576000848152600f602090815260408083208484526001019091529020546001600160a01b03161561169557611692600184613952565b92505b6116a0600182613952565b9050611654565b506116b383600061115b565b156116c6576116c3600183613952565b91505b50919050565b6000828152600e6020526040902054610aa89033611d9d565b600580546106d49061380d565b6001600160a01b03851633148061172c57506001600160a01b038516600090815260036020908152604080832033845290915290205460ff165b61176d5760405162461bcd60e51b81526020600482015260126024820152710853d5d3915497d3d497d054141493d5915160721b6044820152606401610867565b6109af8585858585612572565b336001600160a01b0384168114806117b757506001600160a01b0380851660009081526003602090815260408083209385168352929052205460ff165b6117f75760405162461bcd60e51b81526020600482015260116024820152702ab730b8383937bb32b21031b0b63632b960791b6044820152606401610867565b6001600160a01b03841660009081526002602090815260408083208684529091529020548211156118645760405162461bcd60e51b8152602060048201526017602482015276139bdd08195b9bdd59da081d1bdad95b9cc81bdddb9959604a1b6044820152606401610867565b610edc848484612698565b6000828152600d602090815260408083206001600160a01b0385168085529252808320805460ff1916600117905551339285917f2f8788117e7eff1d82e926ec794901d17c78024a50270940304540a733656f0d9190a45050565b606060006118d760095490565b90506000600980548060200260200160405190810160405280929190818152602001828054801561192757602002820191906000526020600020905b815481526020019060010190808311611913575b5050505050905060005b82811015611a2b5781818151811061194b5761194b613899565b6020026020010151851015611a1957600a600083838151811061197057611970613899565b6020026020010151815260200190815260200160002080546119919061380d565b80601f01602080910402602001604051908101604052809291908181526020018280546119bd9061380d565b8015611a0a5780601f106119df57610100808354040283529160200191611a0a565b820191906000526020600020905b8154815290600101906020018083116119ed57829003601f168201915b50505050509350505050919050565b611a24600182613952565b9050611931565b5060405162461bcd60e51b815260206004820152600f60248201526e125b9d985b1a59081d1bdad95b9259608a1b6044820152606401610867565b606081611a8a5750506040805180820190915260018152600360fc1b602082015290565b8160005b8115611ab45780611a9e8161390e565b9150611aad9050600a836138fa565b9150611a8e565b6000816001600160401b03811115611ace57611ace613098565b6040519080825280601f01601f191660200182016040528015611af8576020820181803683370190505b5090505b8415611b6357611b0d6001836139d9565b9150611b1a600a866139f0565b611b25906030613952565b60f81b818381518110611b3a57611b3a613899565b60200101906001600160f81b031916908160001a905350611b5c600a866138fa565b9450611afc565b949350505050565b6000611b7f6006546001600160a01b031690565b6001600160a01b0316336001600160a01b031614905090565b600680546001600160a01b038381166001600160a01b0319831681179093556040519116919082907f8292fce18fa69edf4db7b94ea2e58241df0ae57f97e0a6c9b29067028bf92d7690600090a35050565b8151835114611c0b5760405162461bcd60e51b815260040161086790613929565b6001600160a01b038416611c315760405162461bcd60e51b815260040161086790613a04565b33611c408187878787876127bd565b60005b8451811015611d37576000858281518110611c6057611c60613899565b602002602001015190506000858381518110611c7e57611c7e613899565b6020908102919091018101516001600160a01b038b166000908152600283526040808220868352909352919091205490915081811015611cd05760405162461bcd60e51b815260040161086790613a2a565b6001600160a01b03808b16600090815260026020818152604080842088855282528084208787039055938d16835290815282822086835290529081208054849290611d1c908490613952565b9250508190555050505080611d309061390e565b9050611c43565b50846001600160a01b0316866001600160a01b0316826001600160a01b03167f4a39dc06d4c0dbc64b70af90fd698a233a518aa5d07e595d983b8c0526c8f7fb8787604051611d87929190613a54565b60405180910390a46110648187878787876128c9565b6000828152600d602090815260408083206001600160a01b038516845290915290205460ff16610a4c57611ddb816001600160a01b03166014612a1d565b611de6836020612a1d565b604051602001611df7929190613a82565b60408051601f198184030181529082905262461bcd60e51b82526108679160040161302f565b611e27828261186f565b610a4c8282612bb8565b611e3b8282612c25565b6000828152600f602090815260408083206001600160a01b03851680855260028201808552838620805487526001909301855292852080546001600160a01b031916905584529152555050565b612710811115611ecc5760405162461bcd60e51b815260206004820152600f60248201526e45786365656473206d61782062707360881b6044820152606401610867565b600780546001600160a01b0384166001600160b01b03199091168117600160a01b61ffff851602179091556040518281527f90d7ec04bcb8978719414f82e52e4cb651db41d0e6f8cea6118c2191e6183adb9060200160405180910390a25050565b6001600160a01b038316611f755760405162461bcd60e51b815260206004820152600e60248201526d232927a6afad22a927afa0a2222960911b6044820152606401610867565b8051825114611f965760405162461bcd60e51b815260040161086790613929565b6000339050611fb9818560008686604051806020016040528060008152506127bd565b60005b8351811015612084576000848281518110611fd957611fd9613899565b602002602001015190506000848381518110611ff757611ff7613899565b6020908102919091018101516001600160a01b03891660009081526002835260408082208683529093529190912054909150818110156120495760405162461bcd60e51b815260040161086790613a2a565b6001600160a01b038816600090815260026020908152604080832095835294905292909220910390558061207c8161390e565b915050611fbc565b5060006001600160a01b0316846001600160a01b0316826001600160a01b03167f4a39dc06d4c0dbc64b70af90fd698a233a518aa5d07e595d983b8c0526c8f7fb86866040516120d5929190613a54565b60405180910390a450505050565b6127108111156121275760405162461bcd60e51b815260206004820152600f60248201526e45786365656473206d61782062707360881b6044820152606401610867565b6040805180820182526001600160a01b038481168083526020808401868152600089815260088352869020945185546001600160a01b031916941693909317845591516001909301929092559151838152909185917f7365cf4122f072a3365c20d54eff9b38d73c096c28e1892ec8f5b0e403a0f12d910161144e565b6000600580546121b39061380d565b80601f01602080910402602001604051908101604052809291908181526020018280546121df9061380d565b801561222c5780601f106122015761010080835404028352916020019161222c565b820191906000526020600020905b81548152906001019060200180831161220f57829003601f168201915b5050855193945061224893600593506020870192509050612ec5565b507fc9c7c3fe08b88b4df9d4d47ef47d2c43d55c025a0ba88ca442580ed9e7348a16818360405161227a929190613aef565b60405180910390a15050565b6000806122938486613952565b60098054600181019091557f6e1540171b6c0c960b71a7020d9f60077f6af931a8bbf590da0223dacf75c7af018190556000818152600a6020908152604090912085519294508493506122ea929091860190612ec5565b50935093915050565b6001600160a01b0384166123195760405162461bcd60e51b815260040161086790613a04565b815183511461233a5760405162461bcd60e51b815260040161086790613929565b3361234a816000878787876127bd565b60005b84518110156123e65783818151811061236857612368613899565b602002602001015160026000886001600160a01b03166001600160a01b0316815260200190815260200160002060008784815181106123a9576123a9613899565b6020026020010151815260200190815260200160002060008282546123ce9190613952565b909155508190506123de8161390e565b91505061234d565b50846001600160a01b031660006001600160a01b0316826001600160a01b03167f4a39dc06d4c0dbc64b70af90fd698a233a518aa5d07e595d983b8c0526c8f7fb8787604051612437929190613a54565b60405180910390a46109af816000878787876128c9565b60606124738383604051806060016040528060278152602001613cad60279139612c87565b9392505050565b6000828152600460209081526040909120825161139d92840190612ec5565b6001600160a01b0384166124bf5760405162461bcd60e51b815260040161086790613a04565b336124df816000876124d088612d64565b6124d988612d64565b876127bd565b6001600160a01b038516600090815260026020908152604080832087845290915281208054859290612512908490613952565b909155505060408051858152602081018590526001600160a01b0380881692600092918516917fc3d58168c5ae7397731d063d5bbf3d657854427343f4c083240f7aacaa2d0f62910160405180910390a46109af81600087878787612daf565b6001600160a01b0384166125985760405162461bcd60e51b815260040161086790613a04565b336125a88187876124d088612d64565b6001600160a01b0386166000908152600260209081526040808320878452909152902054838110156125ec5760405162461bcd60e51b815260040161086790613a2a565b6001600160a01b0380881660009081526002602081815260408084208a855282528084208987039055938a16835290815282822088835290529081208054869290612638908490613952565b909155505060408051868152602081018690526001600160a01b03808916928a821692918616917fc3d58168c5ae7397731d063d5bbf3d657854427343f4c083240f7aacaa2d0f62910160405180910390a4611358828888888888612daf565b6001600160a01b0383166126df5760405162461bcd60e51b815260206004820152600e60248201526d232927a6afad22a927afa0a2222960911b6044820152606401610867565b3361270e818560006126f087612d64565b6126f987612d64565b604051806020016040528060008152506127bd565b6001600160a01b0384166000908152600260209081526040808320868452909152902054828110156127525760405162461bcd60e51b815260040161086790613a2a565b6001600160a01b03858116600081815260026020908152604080832089845282528083208887039055805189815291820188905291938616917fc3d58168c5ae7397731d063d5bbf3d657854427343f4c083240f7aacaa2d0f62910160405180910390a45050505050565b6001600160a01b0385166128445760005b8351811015612842578281815181106127e9576127e9613899565b6020026020010151600c600086848151811061280757612807613899565b60200260200101518152602001908152602001600020600082825461282c9190613952565b9091555061283b90508161390e565b90506127ce565b505b6001600160a01b0384166110645760005b83518110156113585782818151811061287057612870613899565b6020026020010151600c600086848151811061288e5761288e613899565b6020026020010151815260200190815260200160002060008282546128b391906139d9565b909155506128c290508161390e565b9050612855565b6001600160a01b0384163b156110645760405163bc197c8160e01b81526001600160a01b0385169063bc197c819061290d9089908990889088908890600401613b14565b6020604051808303816000875af1925050508015612948575060408051601f3d908101601f1916820190925261294591810190613b72565b60015b6129cb57612954613b8f565b806308c379a0141561298e5750612969613bab565b806129745750612990565b8060405162461bcd60e51b8152600401610867919061302f565b505b60405162461bcd60e51b815260206004820152601060248201526f10a2a92198989a9aa922a1a2a4ab22a960811b6044820152606401610867565b6001600160e01b0319811663bc197c8160e01b146113585760405162461bcd60e51b815260206004820152600f60248201526e1513d2d15394d7d491529150d51151608a1b6044820152606401610867565b60606000612a2c8360026138c5565b612a37906002613952565b6001600160401b03811115612a4e57612a4e613098565b6040519080825280601f01601f191660200182016040528015612a78576020820181803683370190505b509050600360fc1b81600081518110612a9357612a93613899565b60200101906001600160f81b031916908160001a905350600f60fb1b81600181518110612ac257612ac2613899565b60200101906001600160f81b031916908160001a9053506000612ae68460026138c5565b612af1906001613952565b90505b6001811115612b69576f181899199a1a9b1b9c1cb0b131b232b360811b85600f1660108110612b2557612b25613899565b1a60f81b828281518110612b3b57612b3b613899565b60200101906001600160f81b031916908160001a90535060049490941c93612b6281613c34565b9050612af4565b5083156124735760405162461bcd60e51b815260206004820181905260248201527f537472696e67733a20686578206c656e67746820696e73756666696369656e746044820152606401610867565b6000828152600f6020526040812080549160019190612bd78385613952565b90915550506000928352600f6020908152604080852083865260018101835281862080546001600160a01b039096166001600160a01b03199096168617905593855260029093019052912055565b612c2f8282611d9d565b6000828152600d602090815260408083206001600160a01b0385168085529252808320805460ff1916905551339285917ff6391f5c32d9c69d2a47ea670b442974b53935d1edc7fd64eb21e047a839171b9190a45050565b60606001600160a01b0384163b612cef5760405162461bcd60e51b815260206004820152602660248201527f416464726573733a2064656c65676174652063616c6c20746f206e6f6e2d636f6044820152651b9d1c9858dd60d21b6064820152608401610867565b600080856001600160a01b031685604051612d0a9190613c4b565b600060405180830381855af49150503d8060008114612d45576040519150601f19603f3d011682016040523d82523d6000602084013e612d4a565b606091505b5091509150612d5a828286612e8c565b9695505050505050565b60408051600180825281830190925260609160009190602080830190803683370190505090508281600081518110612d9e57612d9e613899565b602090810291909101015292915050565b6001600160a01b0384163b156110645760405163f23a6e6160e01b81526001600160a01b0385169063f23a6e6190612df39089908990889088908890600401613c67565b6020604051808303816000875af1925050508015612e2e575060408051601f3d908101601f19168201909252612e2b91810190613b72565b60015b612e3a57612954613b8f565b6001600160e01b0319811663f23a6e6160e01b146113585760405162461bcd60e51b815260206004820152600f60248201526e1513d2d15394d7d491529150d51151608a1b6044820152606401610867565b60608315612e9b575081612473565b825115612eab5782518084602001fd5b8160405162461bcd60e51b8152600401610867919061302f565b828054612ed19061380d565b90600052602060002090601f016020900481019282612ef35760008555612f39565b82601f10612f0c57805160ff1916838001178555612f39565b82800160010185558215612f39579182015b82811115612f39578251825591602001919060010190612f1e565b50612f45929150612f49565b5090565b5b80821115612f455760008155600101612f4a565b80356001600160a01b0381168114612f7557600080fd5b919050565b60008060408385031215612f8d57600080fd5b612f9683612f5e565b946020939093013593505050565b6001600160e01b03198116811461087957600080fd5b600060208284031215612fcc57600080fd5b813561247381612fa4565b60005b83811015612ff2578181015183820152602001612fda565b83811115610edc5750506000910152565b6000815180845261301b816020860160208601612fd7565b601f01601f19169290920160200192915050565b6020815260006124736020830184613003565b60006020828403121561305457600080fd5b5035919050565b60006020828403121561306d57600080fd5b61247382612f5e565b6000806040838503121561308957600080fd5b50508035926020909101359150565b634e487b7160e01b600052604160045260246000fd5b601f8201601f191681016001600160401b03811182821017156130d3576130d3613098565b6040525050565b60006001600160401b038211156130f3576130f3613098565b5060051b60200190565b600082601f83011261310e57600080fd5b8135602061311b826130da565b60405161312882826130ae565b83815260059390931b850182019282810191508684111561314857600080fd5b8286015b84811015613163578035835291830191830161314c565b509695505050505050565b600082601f83011261317f57600080fd5b81356001600160401b0381111561319857613198613098565b6040516131af601f8301601f1916602001826130ae565b8181528460208386010111156131c457600080fd5b816020850160208301376000918101602001919091529392505050565b600080600080600060a086880312156131f957600080fd5b61320286612f5e565b945061321060208701612f5e565b935060408601356001600160401b038082111561322c57600080fd5b61323889838a016130fd565b9450606088013591508082111561324e57600080fd5b61325a89838a016130fd565b9350608088013591508082111561327057600080fd5b5061327d8882890161316e565b9150509295509295909350565b6000806040838503121561329d57600080fd5b823591506132ad60208401612f5e565b90509250929050565b6020808252825182820181905260009190848201906040850190845b818110156132ee578351835292840192918401916001016132d2565b50909695505050505050565b6000806040838503121561330d57600080fd5b82356001600160401b038082111561332457600080fd5b818501915085601f83011261333857600080fd5b81356020613345826130da565b60405161335282826130ae565b83815260059390931b850182019282810191508984111561337257600080fd5b948201945b838610156133975761338886612f5e565b82529482019490820190613377565b965050860135925050808211156133ad57600080fd5b506133ba858286016130fd565b9150509250929050565b600081518084526020808501945080840160005b838110156133f4578151875295820195908201906001016133d8565b509495945050505050565b60208152600061247360208301846133c4565b60008060006060848603121561342757600080fd5b61343084612f5e565b925060208401356001600160401b038082111561344c57600080fd5b613458878388016130fd565b9350604086013591508082111561346e57600080fd5b5061347b868287016130fd565b9150509250925092565b6000806000806080858703121561349b57600080fd5b8435935060208501356001600160401b038111156134b857600080fd5b6134c48782880161316e565b949794965050505060408301359260600135919050565b6000602082840312156134ed57600080fd5b81356001600160401b0381111561350357600080fd5b611b638482850161316e565b6000806000806080858703121561352557600080fd5b61352e85612f5e565b935060208501356001600160401b038082111561354a57600080fd5b613556888389016130fd565b9450604087013591508082111561356c57600080fd5b613578888389016130fd565b9350606087013591508082111561358e57600080fd5b5061359b8782880161316e565b91505092959194509250565b6000806000606084860312156135bc57600080fd5b833592506135cc60208501612f5e565b9150604084013590509250925092565b600080604083850312156135ef57600080fd5b6135f883612f5e565b91506020830135801515811461360d57600080fd5b809150509250929050565b6000806020838503121561362b57600080fd5b82356001600160401b038082111561364257600080fd5b818501915085601f83011261365657600080fd5b81358181111561366557600080fd5b8660208260051b850101111561367a57600080fd5b60209290920196919550909350505050565b6000602080830181845280855180835260408601915060408160051b870101925083870160005b828110156136e157603f198886030184526136cf858351613003565b945092850192908501906001016136b3565b5092979650505050505050565b6000806000806080858703121561370457600080fd5b61370d85612f5e565b93506020850135925060408501356001600160401b0381111561372f57600080fd5b61373b8782880161316e565b949793965093946060013593505050565b6000806040838503121561375f57600080fd5b61376883612f5e565b91506132ad60208401612f5e565b600080600080600060a0868803121561378e57600080fd5b61379786612f5e565b94506137a560208701612f5e565b9350604086013592506060860135915060808601356001600160401b038111156137ce57600080fd5b61327d8882890161316e565b6000806000606084860312156137ef57600080fd5b6137f884612f5e565b95602085013595506040909401359392505050565b600181811c9082168061382157607f821691505b602082108114156116c657634e487b7160e01b600052602260045260246000fd5b60008351613854818460208801612fd7565b835190830190613868818360208801612fd7565b01949350505050565b6020808252600e908201526d139bdd08185d5d1a1bdc9a5e995960921b604082015260600190565b634e487b7160e01b600052603260045260246000fd5b634e487b7160e01b600052601160045260246000fd5b60008160001904831182151516156138df576138df6138af565b500290565b634e487b7160e01b600052601260045260246000fd5b600082613909576139096138e4565b500490565b6000600019821415613922576139226138af565b5060010190565b6020808252600f908201526e0988a9c8ea890be9a92a69a82a8869608b1b604082015260600190565b60008219821115613965576139656138af565b500190565b60408152600061397d6040830185613003565b90508260208301529392505050565b6000808335601e198436030181126139a357600080fd5b8301803591506001600160401b038211156139bd57600080fd5b6020019150368190038213156139d257600080fd5b9250929050565b6000828210156139eb576139eb6138af565b500390565b6000826139ff576139ff6138e4565b500690565b6020808252600c908201526b2a27afad22a927afa0a2222960a11b604082015260600190565b60208082526010908201526f125394d551919250d251539517d0905360821b604082015260600190565b604081526000613a6760408301856133c4565b8281036020840152613a7981856133c4565b95945050505050565b7402832b936b4b9b9b4b7b7399d1030b1b1b7bab73a1605d1b815260008351613ab2816015850160208801612fd7565b7001034b99036b4b9b9b4b733903937b6329607d1b6015918401918201528351613ae3816026840160208801612fd7565b01602601949350505050565b604081526000613b026040830185613003565b8281036020840152613a798185613003565b6001600160a01b0386811682528516602082015260a060408201819052600090613b40908301866133c4565b8281036060840152613b5281866133c4565b90508281036080840152613b668185613003565b98975050505050505050565b600060208284031215613b8457600080fd5b815161247381612fa4565b600060033d1115613ba85760046000803e5060005160e01c5b90565b600060443d1015613bb95790565b6040516003193d81016004833e81513d6001600160401b038160248401118184111715613be857505050505090565b8285019150815181811115613c005750505050505090565b843d8701016020828501011115613c1a5750505050505090565b613c29602082860101876130ae565b509095945050505050565b600081613c4357613c436138af565b506000190190565b60008251613c5d818460208701612fd7565b9190910192915050565b6001600160a01b03868116825285166020820152604081018490526060810183905260a060808201819052600090613ca190830184613003565b97965050505050505056fe416464726573733a206c6f772d6c6576656c2064656c65676174652063616c6c206661696c6564a2646970667358221220033ebd769d97e539c39595cf24159b42c86fa4daccd3c5f9f8ec1db26fe445a764736f6c634300080b0033",
  "linkReferences": {},
  "deployedLinkReferences": {}
}