{
  "_format": "hh-sol-artifact-1",
  "contractName": "SynsERC721",
  "sourceName": "contracts/v1/SynsERC721.sol",
  "abi": [
    {
      "inputs": [],
      "stateMutability": "nonpayable",
      "type": "constructor"
    },
    {
      "anonymous": false,
      "inputs": [
        {
          "indexed": true,
          "internalType": "address",
          "name": "owner",
          "type": "address"
        },
        {
          "indexed": true,
          "internalType": "address",
          "name": "approved",
          "type": "address"
        },
        {
          "indexed": true,
          "internalType": "uint256",
          "name": "tokenId",
          "type": "uint256"
        }
      ],
      "name": "Approval",
      "type": "event"
    },
    {
      "anonymous": false,
      "inputs": [
        {
          "indexed": true,
          "internalType": "address",
          "name": "owner",
          "type": "address"
        },
        {
          "indexed": true,
          "internalType": "address",
          "name": "operator",
          "type": "address"
        },
        {
          "indexed": false,
          "internalType": "bool",
          "name": "approved",
          "type": "bool"
        }
      ],
      "name": "ApprovalForAll",
      "type": "event"
    },
    {
      "anonymous": false,
      "inputs": [
        {
          "indexed": true,
          "internalType": "bytes32",
          "name": "role",
          "type": "bytes32"
        },
        {
          "indexed": true,
          "internalType": "bytes32",
          "name": "previousAdminRole",
          "type": "bytes32"
        },
        {
          "indexed": true,
          "internalType": "bytes32",
          "name": "newAdminRole",
          "type": "bytes32"
        }
      ],
      "name": "RoleAdminChanged",
      "type": "event"
    },
    {
      "anonymous": false,
      "inputs": [
        {
          "indexed": true,
          "internalType": "bytes32",
          "name": "role",
          "type": "bytes32"
        },
        {
          "indexed": true,
          "internalType": "address",
          "name": "account",
          "type": "address"
        },
        {
          "indexed": true,
          "internalType": "address",
          "name": "sender",
          "type": "address"
        }
      ],
      "name": "RoleGranted",
      "type": "event"
    },
    {
      "anonymous": false,
      "inputs": [
        {
          "indexed": true,
          "internalType": "bytes32",
          "name": "role",
          "type": "bytes32"
        },
        {
          "indexed": true,
          "internalType": "address",
          "name": "account",
          "type": "address"
        },
        {
          "indexed": true,
          "internalType": "address",
          "name": "sender",
          "type": "address"
        }
      ],
      "name": "RoleRevoked",
      "type": "event"
    },
    {
      "anonymous": false,
      "inputs": [
        {
          "indexed": true,
          "internalType": "address",
          "name": "from",
          "type": "address"
        },
        {
          "indexed": true,
          "internalType": "address",
          "name": "to",
          "type": "address"
        },
        {
          "indexed": true,
          "internalType": "uint256",
          "name": "tokenId",
          "type": "uint256"
        }
      ],
      "name": "Transfer",
      "type": "event"
    },
    {
      "anonymous": false,
      "inputs": [
        {
          "indexed": true,
          "internalType": "address",
          "name": "to",
          "type": "address"
        },
        {
          "indexed": true,
          "internalType": "uint256",
          "name": "tokenId",
          "type": "uint256"
        },
        {
          "indexed": false,
          "internalType": "string",
          "name": "uri",
          "type": "string"
        },
        {
          "indexed": true,
          "internalType": "uint256",
          "name": "royaltyBps",
          "type": "uint256"
        }
      ],
      "name": "newTokenMintedTo",
      "type": "event"
    },
    {
      "inputs": [],
      "name": "DEFAULT_ADMIN_ROLE",
      "outputs": [
        {
          "internalType": "bytes32",
          "name": "",
          "type": "bytes32"
        }
      ],
      "stateMutability": "view",
      "type": "function"
    },
    {
      "inputs": [
        {
          "internalType": "address",
          "name": "to",
          "type": "address"
        },
        {
          "internalType": "uint256",
          "name": "tokenId",
          "type": "uint256"
        }
      ],
      "name": "approve",
      "outputs": [],
      "stateMutability": "nonpayable",
      "type": "function"
    },
    {
      "inputs": [
        {
          "internalType": "address",
          "name": "owner",
          "type": "address"
        }
      ],
      "name": "balanceOf",
      "outputs": [
        {
          "internalType": "uint256",
          "name": "",
          "type": "uint256"
        }
      ],
      "stateMutability": "view",
      "type": "function"
    },
    {
      "inputs": [
        {
          "internalType": "uint256",
          "name": "tokenId",
          "type": "uint256"
        }
      ],
      "name": "getApproved",
      "outputs": [
        {
          "internalType": "address",
          "name": "",
          "type": "address"
        }
      ],
      "stateMutability": "view",
      "type": "function"
    },
    {
      "inputs": [
        {
          "internalType": "bytes32",
          "name": "role",
          "type": "bytes32"
        }
      ],
      "name": "getRoleAdmin",
      "outputs": [
        {
          "internalType": "bytes32",
          "name": "",
          "type": "bytes32"
        }
      ],
      "stateMutability": "view",
      "type": "function"
    },
    {
      "inputs": [
        {
          "internalType": "uint256",
          "name": "_tokenId",
          "type": "uint256"
        }
      ],
      "name": "getRoyaltyInfoForToken",
      "outputs": [
        {
          "components": [
            {
              "internalType": "address",
              "name": "originalAuthor",
              "type": "address"
            },
            {
              "internalType": "uint96",
              "name": "royaltyBPS",
              "type": "uint96"
            }
          ],
          "internalType": "struct SynsERC721.RoyaltyInfoForAddress",
          "name": "",
          "type": "tuple"
        }
      ],
      "stateMutability": "view",
      "type": "function"
    },
    {
      "inputs": [
        {
          "internalType": "uint256",
          "name": "_tokenId",
          "type": "uint256"
        }
      ],
      "name": "getTokenTimestamp",
      "outputs": [
        {
          "internalType": "uint256",
          "name": "",
          "type": "uint256"
        }
      ],
      "stateMutability": "view",
      "type": "function"
    },
    {
      "inputs": [
        {
          "internalType": "address",
          "name": "owner",
          "type": "address"
        }
      ],
      "name": "getTokensOwnedBy",
      "outputs": [
        {
          "internalType": "int256[]",
          "name": "",
          "type": "int256[]"
        }
      ],
      "stateMutability": "view",
      "type": "function"
    },
    {
      "inputs": [
        {
          "internalType": "bytes32",
          "name": "role",
          "type": "bytes32"
        },
        {
          "internalType": "address",
          "name": "account",
          "type": "address"
        }
      ],
      "name": "grantRole",
      "outputs": [],
      "stateMutability": "nonpayable",
      "type": "function"
    },
    {
      "inputs": [
        {
          "internalType": "bytes32",
          "name": "role",
          "type": "bytes32"
        },
        {
          "internalType": "address",
          "name": "account",
          "type": "address"
        }
      ],
      "name": "hasRole",
      "outputs": [
        {
          "internalType": "bool",
          "name": "",
          "type": "bool"
        }
      ],
      "stateMutability": "view",
      "type": "function"
    },
    {
      "inputs": [
        {
          "internalType": "address",
          "name": "owner",
          "type": "address"
        },
        {
          "internalType": "address",
          "name": "operator",
          "type": "address"
        }
      ],
      "name": "isApprovedForAll",
      "outputs": [
        {
          "internalType": "bool",
          "name": "",
          "type": "bool"
        }
      ],
      "stateMutability": "view",
      "type": "function"
    },
    {
      "inputs": [],
      "name": "name",
      "outputs": [
        {
          "internalType": "string",
          "name": "",
          "type": "string"
        }
      ],
      "stateMutability": "view",
      "type": "function"
    },
    {
      "inputs": [],
      "name": "nextTokenIdToMint",
      "outputs": [
        {
          "internalType": "uint256",
          "name": "",
          "type": "uint256"
        }
      ],
      "stateMutability": "view",
      "type": "function"
    },
    {
      "inputs": [
        {
          "internalType": "uint256",
          "name": "tokenId",
          "type": "uint256"
        }
      ],
      "name": "ownerOf",
      "outputs": [
        {
          "internalType": "address",
          "name": "",
          "type": "address"
        }
      ],
      "stateMutability": "view",
      "type": "function"
    },
    {
      "inputs": [
        {
          "internalType": "bytes32",
          "name": "role",
          "type": "bytes32"
        },
        {
          "internalType": "address",
          "name": "account",
          "type": "address"
        }
      ],
      "name": "renounceRole",
      "outputs": [],
      "stateMutability": "nonpayable",
      "type": "function"
    },
    {
      "inputs": [
        {
          "internalType": "bytes32",
          "name": "role",
          "type": "bytes32"
        },
        {
          "internalType": "address",
          "name": "account",
          "type": "address"
        }
      ],
      "name": "revokeRole",
      "outputs": [],
      "stateMutability": "nonpayable",
      "type": "function"
    },
    {
      "inputs": [
        {
          "internalType": "uint256",
          "name": "_tokenId",
          "type": "uint256"
        },
        {
          "internalType": "uint256",
          "name": "_salePrice",
          "type": "uint256"
        }
      ],
      "name": "royaltyInfo",
      "outputs": [
        {
          "internalType": "address",
          "name": "",
          "type": "address"
        },
        {
          "internalType": "uint256",
          "name": "",
          "type": "uint256"
        }
      ],
      "stateMutability": "view",
      "type": "function"
    },
    {
      "inputs": [
        {
          "internalType": "string",
          "name": "_tokenURI",
          "type": "string"
        },
        {
          "internalType": "uint96",
          "name": "_royaltyBps",
          "type": "uint96"
        }
      ],
      "name": "safeMintTo",
      "outputs": [
        {
          "internalType": "uint256",
          "name": "",
          "type": "uint256"
        }
      ],
      "stateMutability": "nonpayable",
      "type": "function"
    },
    {
      "inputs": [
        {
          "internalType": "address",
          "name": "from",
          "type": "address"
        },
        {
          "internalType": "address",
          "name": "to",
          "type": "address"
        },
        {
          "internalType": "uint256",
          "name": "tokenId",
          "type": "uint256"
        }
      ],
      "name": "safeTransferFrom",
      "outputs": [],
      "stateMutability": "nonpayable",
      "type": "function"
    },
    {
      "inputs": [
        {
          "internalType": "address",
          "name": "from",
          "type": "address"
        },
        {
          "internalType": "address",
          "name": "to",
          "type": "address"
        },
        {
          "internalType": "uint256",
          "name": "tokenId",
          "type": "uint256"
        },
        {
          "internalType": "bytes",
          "name": "data",
          "type": "bytes"
        }
      ],
      "name": "safeTransferFrom",
      "outputs": [],
      "stateMutability": "nonpayable",
      "type": "function"
    },
    {
      "inputs": [
        {
          "internalType": "address",
          "name": "operator",
          "type": "address"
        },
        {
          "internalType": "bool",
          "name": "approved",
          "type": "bool"
        }
      ],
      "name": "setApprovalForAll",
      "outputs": [],
      "stateMutability": "nonpayable",
      "type": "function"
    },
    {
      "inputs": [
        {
          "internalType": "bytes4",
          "name": "interfaceId",
          "type": "bytes4"
        }
      ],
      "name": "supportsInterface",
      "outputs": [
        {
          "internalType": "bool",
          "name": "",
          "type": "bool"
        }
      ],
      "stateMutability": "view",
      "type": "function"
    },
    {
      "inputs": [],
      "name": "symbol",
      "outputs": [
        {
          "internalType": "string",
          "name": "",
          "type": "string"
        }
      ],
      "stateMutability": "view",
      "type": "function"
    },
    {
      "inputs": [
        {
          "internalType": "uint256",
          "name": "tokenId",
          "type": "uint256"
        }
      ],
      "name": "tokenURI",
      "outputs": [
        {
          "internalType": "string",
          "name": "",
          "type": "string"
        }
      ],
      "stateMutability": "view",
      "type": "function"
    },
    {
      "inputs": [
        {
          "internalType": "address",
          "name": "from",
          "type": "address"
        },
        {
          "internalType": "address",
          "name": "to",
          "type": "address"
        },
        {
          "internalType": "uint256",
          "name": "tokenId",
          "type": "uint256"
        }
      ],
      "name": "transferFrom",
      "outputs": [],
      "stateMutability": "nonpayable",
      "type": "function"
    }
  ],
  "bytecode": "0x60806040523480156200001157600080fd5b50604080518082018252601681527f537061726b20596f7572204e6f626c652053746f72790000000000000000000060208083019182528351808501909452600784526653594e5337323160c81b908401528151919291620000769160029162000158565b5080516200008c90600390602084019062000158565b506200009e91506000905033620000a4565b6200023b565b620000b08282620000b4565b5050565b60008281526009602090815260408083206001600160a01b038516845290915290205460ff16620000b05760008281526009602090815260408083206001600160a01b03851684529091529020805460ff19166001179055620001143390565b6001600160a01b0316816001600160a01b0316837f2f8788117e7eff1d82e926ec794901d17c78024a50270940304540a733656f0d60405160405180910390a45050565b8280546200016690620001fe565b90600052602060002090601f0160209004810192826200018a5760008555620001d5565b82601f10620001a557805160ff1916838001178555620001d5565b82800160010185558215620001d5579182015b82811115620001d5578251825591602001919060010190620001b8565b50620001e3929150620001e7565b5090565b5b80821115620001e35760008155600101620001e8565b600181811c908216806200021357607f821691505b602082108114156200023557634e487b7160e01b600052602260045260246000fd5b50919050565b61222c806200024b6000396000f3fe608060405234801561001057600080fd5b50600436106101735760003560e01c80633d4392c0116100de57806395d89b4111610097578063b88d4fde11610071578063b88d4fde146103e9578063c87b56dd146103fc578063d547741f1461040f578063e985e9c51461042257600080fd5b806395d89b41146103c6578063a217fddf146103ce578063a22cb465146103d657600080fd5b80633d4392c0146102cc57806342842e0e146102ec5780634cc157df146102ff5780636352211e1461038d57806370a08231146103a057806391d14854146103b357600080fd5b806323b872dd1161013057806323b872dd14610236578063248a9ca3146102495780632a55205a1461026c5780632f2ff15d1461029e57806336568abe146102b15780633b1475a7146102c457600080fd5b806301ffc9a71461017857806302e162d7146101a057806306fdde03146101c1578063081812fc146101d6578063095ea7b31461020157806321a16b0c14610216575b600080fd5b61018b610186366004611b66565b61045e565b60405190151581526020015b60405180910390f35b6101b36101ae366004611c0f565b61046f565b604051908152602001610197565b6101c9610567565b6040516101979190611cd9565b6101e96101e4366004611cec565b6105f9565b6040516001600160a01b039091168152602001610197565b61021461020f366004611d21565b610620565b005b6101b3610224366004611cec565b6000908152600c602052604090205490565b610214610244366004611d4b565b61073b565b6101b3610257366004611cec565b60009081526009602052604090206001015490565b61027f61027a366004611d87565b61076c565b604080516001600160a01b039093168352602083019190915201610197565b6102146102ac366004611da9565b610818565b6102146102bf366004611da9565b61083d565b6101b36108bb565b6102df6102da366004611dd5565b6108cb565b6040516101979190611df0565b6102146102fa366004611d4b565b6109a6565b61036061030d366004611cec565b6040805180820190915260008082526020820152506000908152600b60209081526040918290208251808401909352546001600160a01b0381168352600160a01b90046001600160601b03169082015290565b6040805182516001600160a01b031681526020928301516001600160601b03169281019290925201610197565b6101e961039b366004611cec565b6109c1565b6101b36103ae366004611dd5565b610a21565b61018b6103c1366004611da9565b610aa7565b6101c9610ad2565b6101b3600081565b6102146103e4366004611e34565b610ae1565b6102146103f7366004611e65565b610aec565b6101c961040a366004611cec565b610b24565b61021461041d366004611da9565b610b2f565b61018b610430366004611ee1565b6001600160a01b03918216600090815260076020908152604080832093909416825291909152205460ff1690565b600061046982610b54565b92915050565b60008061047b600a5490565b90506104873382610b79565b6104918185610b93565b604080518082018252338082526001600160601b0380871660208085019182526000878152600b9091529490942083519451909116600160a01b026001600160a01b039490941693909317909255906104ec90839086610c2d565b6000828152600c602052604090204290556001600160601b038416610510600a5490565b336001600160a01b03167f2d3404b1dd86095b29a1fd54981757872fe00cdee1ab7b76a603beb1e2e668bf886040516105499190611cd9565b60405180910390a461055f600a80546001019055565b509392505050565b60606002805461057690611f0b565b80601f01602080910402602001604051908101604052809291908181526020018280546105a290611f0b565b80156105ef5780601f106105c4576101008083540402835291602001916105ef565b820191906000526020600020905b8154815290600101906020018083116105d257829003601f168201915b5050505050905090565b600061060482610d3b565b506000908152600660205260409020546001600160a01b031690565b600061062b826109c1565b9050806001600160a01b0316836001600160a01b0316141561069e5760405162461bcd60e51b815260206004820152602160248201527f4552433732313a20617070726f76616c20746f2063757272656e74206f776e656044820152603960f91b60648201526084015b60405180910390fd5b336001600160a01b03821614806106ba57506106ba8133610430565b61072c5760405162461bcd60e51b815260206004820152603d60248201527f4552433732313a20617070726f76652063616c6c6572206973206e6f7420746f60448201527f6b656e206f776e6572206f7220617070726f76656420666f7220616c6c0000006064820152608401610695565b6107368383610d9d565b505050565b6107453382610e0b565b6107615760405162461bcd60e51b815260040161069590611f46565b610736838383610e8a565b60008281526001602090815260408083208151808301909252546001600160a01b038116808352600160a01b9091046001600160601b03169282019290925282916107e15750604080518082019091526000546001600160a01b0381168252600160a01b90046001600160601b031660208201525b602081015160009061271090610800906001600160601b031687611fa9565b61080a9190611fc8565b915196919550909350505050565b60008281526009602052604090206001015461083381610ffb565b6107368383611005565b6001600160a01b03811633146108ad5760405162461bcd60e51b815260206004820152602f60248201527f416363657373436f6e74726f6c3a2063616e206f6e6c792072656e6f756e636560448201526e103937b632b9903337b91039b2b63360891b6064820152608401610695565b6108b7828261108b565b5050565b60006108c6600a5490565b905090565b606060006108d8600a5490565b905060008167ffffffffffffffff8111156108f5576108f5611b83565b60405190808252806020026020018201604052801561091e578160200160208202803683370190505b50905060005b8281101561055f57846001600160a01b031661093f826109c1565b6001600160a01b03161415610972578082828151811061096157610961611fea565b602002602001018181525050610994565b60001982828151811061098757610987611fea565b6020026020010181815250505b8061099e81612000565b915050610924565b61073683838360405180602001604052806000815250610aec565b6000818152600460205260408120546001600160a01b0316806104695760405162461bcd60e51b8152602060048201526018602482015277115490cdcc8c4e881a5b9d985b1a59081d1bdad95b88125160421b6044820152606401610695565b60006001600160a01b038216610a8b5760405162461bcd60e51b815260206004820152602960248201527f4552433732313a2061646472657373207a65726f206973206e6f7420612076616044820152683634b21037bbb732b960b91b6064820152608401610695565b506001600160a01b031660009081526005602052604090205490565b60009182526009602090815260408084206001600160a01b0393909316845291905290205460ff1690565b60606003805461057690611f0b565b6108b73383836110f2565b610af63383610e0b565b610b125760405162461bcd60e51b815260040161069590611f46565b610b1e848484846111c1565b50505050565b6060610469826111f4565b600082815260096020526040902060010154610b4a81610ffb565b610736838361108b565b60006001600160e01b03198216637965db0b60e01b14806104695750610469826112fd565b6108b7828260405180602001604052806000815250611308565b6000828152600460205260409020546001600160a01b0316610c0e5760405162461bcd60e51b815260206004820152602e60248201527f45524337323155524953746f726167653a2055524920736574206f66206e6f6e60448201526d32bc34b9ba32b73a103a37b5b2b760911b6064820152608401610695565b6000828152600860209081526040909120825161073692840190611ab7565b6127106001600160601b0382161115610c9b5760405162461bcd60e51b815260206004820152602a60248201527f455243323938313a20726f79616c7479206665652077696c6c206578636565646044820152692073616c65507269636560b01b6064820152608401610695565b6001600160a01b038216610cf15760405162461bcd60e51b815260206004820152601b60248201527f455243323938313a20496e76616c696420706172616d657465727300000000006044820152606401610695565b6040805180820182526001600160a01b0393841681526001600160601b0392831660208083019182526000968752600190529190942093519051909116600160a01b029116179055565b6000818152600460205260409020546001600160a01b0316610d9a5760405162461bcd60e51b8152602060048201526018602482015277115490cdcc8c4e881a5b9d985b1a59081d1bdad95b88125160421b6044820152606401610695565b50565b600081815260066020526040902080546001600160a01b0319166001600160a01b0384169081179091558190610dd2826109c1565b6001600160a01b03167f8c5be1e5ebec7d5bd14f71427d1e84f3dd0314c0f7b2291e5b200ac8c7c3b92560405160405180910390a45050565b600080610e17836109c1565b9050806001600160a01b0316846001600160a01b03161480610e5e57506001600160a01b0380821660009081526007602090815260408083209388168352929052205460ff165b80610e825750836001600160a01b0316610e77846105f9565b6001600160a01b0316145b949350505050565b826001600160a01b0316610e9d826109c1565b6001600160a01b031614610ec35760405162461bcd60e51b81526004016106959061201b565b6001600160a01b038216610f255760405162461bcd60e51b8152602060048201526024808201527f4552433732313a207472616e7366657220746f20746865207a65726f206164646044820152637265737360e01b6064820152608401610695565b610f32838383600161133b565b826001600160a01b0316610f45826109c1565b6001600160a01b031614610f6b5760405162461bcd60e51b81526004016106959061201b565b600081815260066020908152604080832080546001600160a01b03199081169091556001600160a01b0387811680865260058552838620805460001901905590871680865283862080546001019055868652600490945282852080549092168417909155905184937fddf252ad1be2c89b69c2b068fc378daa952ba7f163c4a11628f55a4df523b3ef91a4505050565b610d9a81336113c3565b61100f8282610aa7565b6108b75760008281526009602090815260408083206001600160a01b03851684529091529020805460ff191660011790556110473390565b6001600160a01b0316816001600160a01b0316837f2f8788117e7eff1d82e926ec794901d17c78024a50270940304540a733656f0d60405160405180910390a45050565b6110958282610aa7565b156108b75760008281526009602090815260408083206001600160a01b0385168085529252808320805460ff1916905551339285917ff6391f5c32d9c69d2a47ea670b442974b53935d1edc7fd64eb21e047a839171b9190a45050565b816001600160a01b0316836001600160a01b031614156111545760405162461bcd60e51b815260206004820152601960248201527f4552433732313a20617070726f766520746f2063616c6c6572000000000000006044820152606401610695565b6001600160a01b03838116600081815260076020908152604080832094871680845294825291829020805460ff191686151590811790915591519182527f17307eab39ab6107e8899845ad3d59bd9653f200f220920489ca2b5937696c31910160405180910390a3505050565b6111cc848484610e8a565b6111d88484848461141c565b610b1e5760405162461bcd60e51b815260040161069590612060565b60606111ff82610d3b565b6000828152600860205260408120805461121890611f0b565b80601f016020809104026020016040519081016040528092919081815260200182805461124490611f0b565b80156112915780601f1061126657610100808354040283529160200191611291565b820191906000526020600020905b81548152906001019060200180831161127457829003601f168201915b5050505050905060006112af60408051602081019091526000815290565b90508051600014156112c2575092915050565b8151156112f45780826040516020016112dc9291906120b2565b60405160208183030381529060405292505050919050565b610e828461151a565b60006104698261158e565b61131283836115ce565b61131f600084848461141c565b6107365760405162461bcd60e51b815260040161069590612060565b6001811115610b1e576001600160a01b03841615611381576001600160a01b0384166000908152600560205260408120805483929061137b9084906120e1565b90915550505b6001600160a01b03831615610b1e576001600160a01b038316600090815260056020526040812080548392906113b89084906120f8565b909155505050505050565b6113cd8282610aa7565b6108b7576113da81611767565b6113e5836020611779565b6040516020016113f6929190612110565b60408051601f198184030181529082905262461bcd60e51b825261069591600401611cd9565b60006001600160a01b0384163b1561150f57604051630a85bd0160e11b81526001600160a01b0385169063150b7a0290611460903390899088908890600401612185565b6020604051808303816000875af192505050801561149b575060408051601f3d908101601f19168201909252611498918101906121c2565b60015b6114f5573d8080156114c9576040519150601f19603f3d011682016040523d82523d6000602084013e6114ce565b606091505b5080516114ed5760405162461bcd60e51b815260040161069590612060565b805181602001fd5b6001600160e01b031916630a85bd0160e11b149050610e82565b506001949350505050565b606061152582610d3b565b600061153c60408051602081019091526000815290565b9050600081511161155c5760405180602001604052806000815250611587565b8061156684611915565b6040516020016115779291906120b2565b6040516020818303038152906040525b9392505050565b60006001600160e01b031982166380ac58cd60e01b14806115bf57506001600160e01b03198216635b5e139f60e01b145b806104695750610469826119aa565b6001600160a01b0382166116245760405162461bcd60e51b815260206004820181905260248201527f4552433732313a206d696e7420746f20746865207a65726f20616464726573736044820152606401610695565b6000818152600460205260409020546001600160a01b0316156116895760405162461bcd60e51b815260206004820152601c60248201527f4552433732313a20746f6b656e20616c7265616479206d696e746564000000006044820152606401610695565b61169760008383600161133b565b6000818152600460205260409020546001600160a01b0316156116fc5760405162461bcd60e51b815260206004820152601c60248201527f4552433732313a20746f6b656e20616c7265616479206d696e746564000000006044820152606401610695565b6001600160a01b038216600081815260056020908152604080832080546001019055848352600490915280822080546001600160a01b0319168417905551839291907fddf252ad1be2c89b69c2b068fc378daa952ba7f163c4a11628f55a4df523b3ef908290a45050565b60606104696001600160a01b03831660145b60606000611788836002611fa9565b6117939060026120f8565b67ffffffffffffffff8111156117ab576117ab611b83565b6040519080825280601f01601f1916602001820160405280156117d5576020820181803683370190505b509050600360fc1b816000815181106117f0576117f0611fea565b60200101906001600160f81b031916908160001a905350600f60fb1b8160018151811061181f5761181f611fea565b60200101906001600160f81b031916908160001a9053506000611843846002611fa9565b61184e9060016120f8565b90505b60018111156118c6576f181899199a1a9b1b9c1cb0b131b232b360811b85600f166010811061188257611882611fea565b1a60f81b82828151811061189857611898611fea565b60200101906001600160f81b031916908160001a90535060049490941c936118bf816121df565b9050611851565b5083156115875760405162461bcd60e51b815260206004820181905260248201527f537472696e67733a20686578206c656e67746820696e73756666696369656e746044820152606401610695565b60606000611922836119df565b600101905060008167ffffffffffffffff81111561194257611942611b83565b6040519080825280601f01601f19166020018201604052801561196c576020820181803683370190505b5090508181016020015b600019016f181899199a1a9b1b9c1cb0b131b232b360811b600a86061a8153600a85049450846119a55761055f565b611976565b60006001600160e01b0319821663152a902d60e11b148061046957506301ffc9a760e01b6001600160e01b0319831614610469565b60008072184f03e93ff9f4daa797ed6e38ed64bf6a1f0160401b8310611a1e5772184f03e93ff9f4daa797ed6e38ed64bf6a1f0160401b830492506040015b6d04ee2d6d415b85acef81000000008310611a4a576d04ee2d6d415b85acef8100000000830492506020015b662386f26fc100008310611a6857662386f26fc10000830492506010015b6305f5e1008310611a80576305f5e100830492506008015b6127108310611a9457612710830492506004015b60648310611aa6576064830492506002015b600a83106104695760010192915050565b828054611ac390611f0b565b90600052602060002090601f016020900481019282611ae55760008555611b2b565b82601f10611afe57805160ff1916838001178555611b2b565b82800160010185558215611b2b579182015b82811115611b2b578251825591602001919060010190611b10565b50611b37929150611b3b565b5090565b5b80821115611b375760008155600101611b3c565b6001600160e01b031981168114610d9a57600080fd5b600060208284031215611b7857600080fd5b813561158781611b50565b634e487b7160e01b600052604160045260246000fd5b600067ffffffffffffffff80841115611bb457611bb4611b83565b604051601f8501601f19908116603f01168101908282118183101715611bdc57611bdc611b83565b81604052809350858152868686011115611bf557600080fd5b858560208301376000602087830101525050509392505050565b60008060408385031215611c2257600080fd5b823567ffffffffffffffff811115611c3957600080fd5b8301601f81018513611c4a57600080fd5b611c5985823560208401611b99565b92505060208301356001600160601b0381168114611c7657600080fd5b809150509250929050565b60005b83811015611c9c578181015183820152602001611c84565b83811115610b1e5750506000910152565b60008151808452611cc5816020860160208601611c81565b601f01601f19169290920160200192915050565b6020815260006115876020830184611cad565b600060208284031215611cfe57600080fd5b5035919050565b80356001600160a01b0381168114611d1c57600080fd5b919050565b60008060408385031215611d3457600080fd5b611d3d83611d05565b946020939093013593505050565b600080600060608486031215611d6057600080fd5b611d6984611d05565b9250611d7760208501611d05565b9150604084013590509250925092565b60008060408385031215611d9a57600080fd5b50508035926020909101359150565b60008060408385031215611dbc57600080fd5b82359150611dcc60208401611d05565b90509250929050565b600060208284031215611de757600080fd5b61158782611d05565b6020808252825182820181905260009190848201906040850190845b81811015611e2857835183529284019291840191600101611e0c565b50909695505050505050565b60008060408385031215611e4757600080fd5b611e5083611d05565b915060208301358015158114611c7657600080fd5b60008060008060808587031215611e7b57600080fd5b611e8485611d05565b9350611e9260208601611d05565b925060408501359150606085013567ffffffffffffffff811115611eb557600080fd5b8501601f81018713611ec657600080fd5b611ed587823560208401611b99565b91505092959194509250565b60008060408385031215611ef457600080fd5b611efd83611d05565b9150611dcc60208401611d05565b600181811c90821680611f1f57607f821691505b60208210811415611f4057634e487b7160e01b600052602260045260246000fd5b50919050565b6020808252602d908201527f4552433732313a2063616c6c6572206973206e6f7420746f6b656e206f776e6560408201526c1c881bdc88185c1c1c9bdd9959609a1b606082015260800190565b634e487b7160e01b600052601160045260246000fd5b6000816000190483118215151615611fc357611fc3611f93565b500290565b600082611fe557634e487b7160e01b600052601260045260246000fd5b500490565b634e487b7160e01b600052603260045260246000fd5b600060001982141561201457612014611f93565b5060010190565b60208082526025908201527f4552433732313a207472616e736665722066726f6d20696e636f72726563742060408201526437bbb732b960d91b606082015260800190565b60208082526032908201527f4552433732313a207472616e7366657220746f206e6f6e20455243373231526560408201527131b2b4bb32b91034b6b83632b6b2b73a32b960711b606082015260800190565b600083516120c4818460208801611c81565b8351908301906120d8818360208801611c81565b01949350505050565b6000828210156120f3576120f3611f93565b500390565b6000821982111561210b5761210b611f93565b500190565b7f416363657373436f6e74726f6c3a206163636f756e7420000000000000000000815260008351612148816017850160208801611c81565b7001034b99036b4b9b9b4b733903937b6329607d1b6017918401918201528351612179816028840160208801611c81565b01602801949350505050565b6001600160a01b03858116825284166020820152604081018390526080606082018190526000906121b890830184611cad565b9695505050505050565b6000602082840312156121d457600080fd5b815161158781611b50565b6000816121ee576121ee611f93565b50600019019056fea2646970667358221220350139a0becb8d6577e51da7a4cb4c3e53f7a6df3a1a11f92ffda884b7d5f0fb64736f6c634300080b0033",
  "linkReferences": {},
  "deployedLinkReferences": {}
}