{
  "_format": "hh-sol-artifact-1",
  "contractName": "SynsMarketplace",
  "sourceName": "contracts/v1/SynsMarketplace.sol",
  "abi": [
    {
      "inputs": [
        {
          "internalType": "address",
          "name": "_nativeTokenWrapper",
          "type": "address"
        },
        {
          "internalType": "address",
          "name": "_platformFeeRecipient",
          "type": "address"
        },
        {
          "internalType": "uint256",
          "name": "_platformFeeBps",
          "type": "uint256"
        }
      ],
      "stateMutability": "nonpayable",
      "type": "constructor"
    },
    {
      "anonymous": false,
      "inputs": [
        {
          "indexed": false,
          "internalType": "uint8",
          "name": "version",
          "type": "uint8"
        }
      ],
      "name": "Initialized",
      "type": "event"
    },
    {
      "anonymous": false,
      "inputs": [
        {
          "indexed": true,
          "internalType": "uint256",
          "name": "listingId",
          "type": "uint256"
        },
        {
          "indexed": true,
          "internalType": "address",
          "name": "assetContract",
          "type": "address"
        },
        {
          "indexed": true,
          "internalType": "address",
          "name": "lister",
          "type": "address"
        },
        {
          "components": [
            {
              "internalType": "uint256",
              "name": "listingId",
              "type": "uint256"
            },
            {
              "internalType": "address",
              "name": "tokenOwner",
              "type": "address"
            },
            {
              "internalType": "address",
              "name": "assetContract",
              "type": "address"
            },
            {
              "internalType": "uint256",
              "name": "tokenId",
              "type": "uint256"
            },
            {
              "internalType": "uint256",
              "name": "startSale",
              "type": "uint256"
            },
            {
              "internalType": "uint256",
              "name": "endSale",
              "type": "uint256"
            },
            {
              "internalType": "uint256",
              "name": "quantity",
              "type": "uint256"
            },
            {
              "internalType": "address",
              "name": "currency",
              "type": "address"
            },
            {
              "internalType": "uint256",
              "name": "buyoutPricePerToken",
              "type": "uint256"
            },
            {
              "internalType": "enum ISynsMarketplace.TokenType",
              "name": "tokenType",
              "type": "uint8"
            }
          ],
          "indexed": false,
          "internalType": "struct ISynsMarketplace.Listing",
          "name": "listing",
          "type": "tuple"
        }
      ],
      "name": "ListingAdded",
      "type": "event"
    },
    {
      "anonymous": false,
      "inputs": [
        {
          "indexed": true,
          "internalType": "uint256",
          "name": "listingId",
          "type": "uint256"
        },
        {
          "indexed": true,
          "internalType": "address",
          "name": "assetContract",
          "type": "address"
        },
        {
          "indexed": true,
          "internalType": "address",
          "name": "lister",
          "type": "address"
        },
        {
          "components": [
            {
              "internalType": "uint256",
              "name": "listingId",
              "type": "uint256"
            },
            {
              "internalType": "address",
              "name": "tokenOwner",
              "type": "address"
            },
            {
              "internalType": "address",
              "name": "assetContract",
              "type": "address"
            },
            {
              "internalType": "uint256",
              "name": "tokenId",
              "type": "uint256"
            },
            {
              "internalType": "uint256",
              "name": "startSale",
              "type": "uint256"
            },
            {
              "internalType": "uint256",
              "name": "endSale",
              "type": "uint256"
            },
            {
              "internalType": "uint256",
              "name": "quantity",
              "type": "uint256"
            },
            {
              "internalType": "address",
              "name": "currency",
              "type": "address"
            },
            {
              "internalType": "uint256",
              "name": "buyoutPricePerToken",
              "type": "uint256"
            },
            {
              "internalType": "enum ISynsMarketplace.TokenType",
              "name": "tokenType",
              "type": "uint8"
            }
          ],
          "indexed": false,
          "internalType": "struct ISynsMarketplace.Listing",
          "name": "listing",
          "type": "tuple"
        }
      ],
      "name": "ListingAppend",
      "type": "event"
    },
    {
      "anonymous": false,
      "inputs": [
        {
          "indexed": false,
          "internalType": "address",
          "name": "royaltyRecipient",
          "type": "address"
        },
        {
          "indexed": false,
          "internalType": "uint256",
          "name": "royaltyAmount",
          "type": "uint256"
        },
        {
          "indexed": false,
          "internalType": "uint256",
          "name": "SynsServiceFeeCut",
          "type": "uint256"
        }
      ],
      "name": "ListingPaidOutInformation",
      "type": "event"
    },
    {
      "anonymous": false,
      "inputs": [
        {
          "indexed": true,
          "internalType": "uint256",
          "name": "listingId",
          "type": "uint256"
        },
        {
          "indexed": true,
          "internalType": "address",
          "name": "listingCreator",
          "type": "address"
        }
      ],
      "name": "ListingRemoved",
      "type": "event"
    },
    {
      "anonymous": false,
      "inputs": [
        {
          "indexed": true,
          "internalType": "uint256",
          "name": "listingId",
          "type": "uint256"
        },
        {
          "indexed": true,
          "internalType": "address",
          "name": "listingCreator",
          "type": "address"
        }
      ],
      "name": "ListingUpdated",
      "type": "event"
    },
    {
      "anonymous": false,
      "inputs": [
        {
          "indexed": true,
          "internalType": "uint256",
          "name": "listingId",
          "type": "uint256"
        },
        {
          "indexed": true,
          "internalType": "address",
          "name": "offeror",
          "type": "address"
        },
        {
          "indexed": true,
          "internalType": "enum ISynsMarketplace.ListingType",
          "name": "listingType",
          "type": "uint8"
        },
        {
          "indexed": false,
          "internalType": "uint256",
          "name": "quantityWanted",
          "type": "uint256"
        },
        {
          "indexed": false,
          "internalType": "uint256",
          "name": "totalOfferAmount",
          "type": "uint256"
        },
        {
          "indexed": false,
          "internalType": "address",
          "name": "currency",
          "type": "address"
        }
      ],
      "name": "NewOffer",
      "type": "event"
    },
    {
      "anonymous": false,
      "inputs": [
        {
          "indexed": true,
          "internalType": "uint256",
          "name": "listingId",
          "type": "uint256"
        },
        {
          "indexed": true,
          "internalType": "address",
          "name": "assetContract",
          "type": "address"
        },
        {
          "indexed": true,
          "internalType": "address",
          "name": "lister",
          "type": "address"
        },
        {
          "indexed": false,
          "internalType": "address",
          "name": "buyer",
          "type": "address"
        },
        {
          "indexed": false,
          "internalType": "uint256",
          "name": "quantityBought",
          "type": "uint256"
        },
        {
          "indexed": false,
          "internalType": "uint256",
          "name": "totalPricePaid",
          "type": "uint256"
        }
      ],
      "name": "NewSale",
      "type": "event"
    },
    {
      "anonymous": false,
      "inputs": [
        {
          "indexed": true,
          "internalType": "address",
          "name": "platformFeeRecipient",
          "type": "address"
        },
        {
          "indexed": false,
          "internalType": "uint256",
          "name": "platformFeeBps",
          "type": "uint256"
        }
      ],
      "name": "PlatformFeeInfoUpdated",
      "type": "event"
    },
    {
      "anonymous": false,
      "inputs": [
        {
          "indexed": true,
          "internalType": "bytes32",
          "name": "role",
          "type": "bytes32"
        },
        {
          "indexed": true,
          "internalType": "bytes32",
          "name": "previousAdminRole",
          "type": "bytes32"
        },
        {
          "indexed": true,
          "internalType": "bytes32",
          "name": "newAdminRole",
          "type": "bytes32"
        }
      ],
      "name": "RoleAdminChanged",
      "type": "event"
    },
    {
      "anonymous": false,
      "inputs": [
        {
          "indexed": true,
          "internalType": "bytes32",
          "name": "role",
          "type": "bytes32"
        },
        {
          "indexed": true,
          "internalType": "address",
          "name": "account",
          "type": "address"
        },
        {
          "indexed": true,
          "internalType": "address",
          "name": "sender",
          "type": "address"
        }
      ],
      "name": "RoleGranted",
      "type": "event"
    },
    {
      "anonymous": false,
      "inputs": [
        {
          "indexed": true,
          "internalType": "bytes32",
          "name": "role",
          "type": "bytes32"
        },
        {
          "indexed": true,
          "internalType": "address",
          "name": "account",
          "type": "address"
        },
        {
          "indexed": true,
          "internalType": "address",
          "name": "sender",
          "type": "address"
        }
      ],
      "name": "RoleRevoked",
      "type": "event"
    },
    {
      "inputs": [],
      "name": "ASSET_ROLE",
      "outputs": [
        {
          "internalType": "bytes32",
          "name": "",
          "type": "bytes32"
        }
      ],
      "stateMutability": "view",
      "type": "function"
    },
    {
      "inputs": [],
      "name": "DEFAULT_ADMIN_ROLE",
      "outputs": [
        {
          "internalType": "bytes32",
          "name": "",
          "type": "bytes32"
        }
      ],
      "stateMutability": "view",
      "type": "function"
    },
    {
      "inputs": [],
      "name": "LISTER_ROLE",
      "outputs": [
        {
          "internalType": "bytes32",
          "name": "",
          "type": "bytes32"
        }
      ],
      "stateMutability": "view",
      "type": "function"
    },
    {
      "inputs": [],
      "name": "MAX_BPS",
      "outputs": [
        {
          "internalType": "uint64",
          "name": "",
          "type": "uint64"
        }
      ],
      "stateMutability": "view",
      "type": "function"
    },
    {
      "inputs": [
        {
          "internalType": "uint256",
          "name": "_listingId",
          "type": "uint256"
        },
        {
          "internalType": "address",
          "name": "_offeror",
          "type": "address"
        },
        {
          "internalType": "address",
          "name": "_currency",
          "type": "address"
        },
        {
          "internalType": "uint256",
          "name": "_totalPrice",
          "type": "uint256"
        }
      ],
      "name": "acceptOffer",
      "outputs": [],
      "stateMutability": "nonpayable",
      "type": "function"
    },
    {
      "inputs": [
        {
          "internalType": "uint256",
          "name": "_listingId",
          "type": "uint256"
        },
        {
          "internalType": "address",
          "name": "_receiver",
          "type": "address"
        },
        {
          "internalType": "uint256",
          "name": "_quantity",
          "type": "uint256"
        },
        {
          "internalType": "address",
          "name": "_currency",
          "type": "address"
        },
        {
          "internalType": "uint256",
          "name": "_totalPrice",
          "type": "uint256"
        }
      ],
      "name": "buy",
      "outputs": [],
      "stateMutability": "payable",
      "type": "function"
    },
    {
      "inputs": [
        {
          "internalType": "uint256",
          "name": "_listingId",
          "type": "uint256"
        }
      ],
      "name": "cancelListing",
      "outputs": [],
      "stateMutability": "nonpayable",
      "type": "function"
    },
    {
      "inputs": [
        {
          "components": [
            {
              "internalType": "uint256",
              "name": "listingId",
              "type": "uint256"
            },
            {
              "internalType": "address",
              "name": "tokenOwner",
              "type": "address"
            },
            {
              "internalType": "address",
              "name": "assetContract",
              "type": "address"
            },
            {
              "internalType": "uint256",
              "name": "tokenId",
              "type": "uint256"
            },
            {
              "internalType": "uint256",
              "name": "startSale",
              "type": "uint256"
            },
            {
              "internalType": "uint256",
              "name": "endSale",
              "type": "uint256"
            },
            {
              "internalType": "uint256",
              "name": "quantity",
              "type": "uint256"
            },
            {
              "internalType": "address",
              "name": "currency",
              "type": "address"
            },
            {
              "internalType": "uint256",
              "name": "buyoutPricePerToken",
              "type": "uint256"
            },
            {
              "internalType": "enum ISynsMarketplace.TokenType",
              "name": "tokenType",
              "type": "uint8"
            }
          ],
          "internalType": "struct ISynsMarketplace.Listing[]",
          "name": "listings",
          "type": "tuple[]"
        },
        {
          "internalType": "address",
          "name": "_assetContract",
          "type": "address"
        },
        {
          "internalType": "uint256",
          "name": "_tokenId",
          "type": "uint256"
        },
        {
          "internalType": "address",
          "name": "_currencyToAccept",
          "type": "address"
        },
        {
          "internalType": "uint256",
          "name": "_listingPrice",
          "type": "uint256"
        }
      ],
      "name": "checkTokenAlreadyListed",
      "outputs": [
        {
          "internalType": "bool",
          "name": "_isListed",
          "type": "bool"
        },
        {
          "internalType": "uint256",
          "name": "_existingListingId",
          "type": "uint256"
        }
      ],
      "stateMutability": "pure",
      "type": "function"
    },
    {
      "inputs": [
        {
          "internalType": "address",
          "name": "_assetContract",
          "type": "address"
        },
        {
          "internalType": "address",
          "name": "tokenOwner",
          "type": "address"
        },
        {
          "internalType": "uint256",
          "name": "_tokenId",
          "type": "uint256"
        }
      ],
      "name": "checkTokenListed",
      "outputs": [
        {
          "internalType": "bool",
          "name": "_isListed",
          "type": "bool"
        },
        {
          "internalType": "uint256",
          "name": "listingId",
          "type": "uint256"
        }
      ],
      "stateMutability": "view",
      "type": "function"
    },
    {
      "inputs": [],
      "name": "contractType",
      "outputs": [
        {
          "internalType": "bytes32",
          "name": "",
          "type": "bytes32"
        }
      ],
      "stateMutability": "pure",
      "type": "function"
    },
    {
      "inputs": [],
      "name": "contractURI",
      "outputs": [
        {
          "internalType": "string",
          "name": "",
          "type": "string"
        }
      ],
      "stateMutability": "view",
      "type": "function"
    },
    {
      "inputs": [],
      "name": "contractVersion",
      "outputs": [
        {
          "internalType": "uint8",
          "name": "",
          "type": "uint8"
        }
      ],
      "stateMutability": "pure",
      "type": "function"
    },
    {
      "inputs": [
        {
          "components": [
            {
              "internalType": "address",
              "name": "assetContract",
              "type": "address"
            },
            {
              "internalType": "uint256",
              "name": "tokenId",
              "type": "uint256"
            },
            {
              "internalType": "uint256",
              "name": "quantityToList",
              "type": "uint256"
            },
            {
              "internalType": "address",
              "name": "currencyToAccept",
              "type": "address"
            },
            {
              "internalType": "uint256",
              "name": "buyoutPricePerToken",
              "type": "uint256"
            }
          ],
          "internalType": "struct ISynsMarketplace.DirectListingParameters",
          "name": "_param",
          "type": "tuple"
        }
      ],
      "name": "createListing",
      "outputs": [],
      "stateMutability": "nonpayable",
      "type": "function"
    },
    {
      "inputs": [
        {
          "components": [
            {
              "internalType": "uint256",
              "name": "listingId",
              "type": "uint256"
            },
            {
              "internalType": "address",
              "name": "tokenOwner",
              "type": "address"
            },
            {
              "internalType": "address",
              "name": "assetContract",
              "type": "address"
            },
            {
              "internalType": "uint256",
              "name": "tokenId",
              "type": "uint256"
            },
            {
              "internalType": "uint256",
              "name": "startSale",
              "type": "uint256"
            },
            {
              "internalType": "uint256",
              "name": "endSale",
              "type": "uint256"
            },
            {
              "internalType": "uint256",
              "name": "quantity",
              "type": "uint256"
            },
            {
              "internalType": "address",
              "name": "currency",
              "type": "address"
            },
            {
              "internalType": "uint256",
              "name": "buyoutPricePerToken",
              "type": "uint256"
            },
            {
              "internalType": "enum ISynsMarketplace.TokenType",
              "name": "tokenType",
              "type": "uint8"
            }
          ],
          "internalType": "struct ISynsMarketplace.Listing[]",
          "name": "listings",
          "type": "tuple[]"
        },
        {
          "internalType": "address",
          "name": "_assetContract",
          "type": "address"
        },
        {
          "internalType": "uint256",
          "name": "_tokenId",
          "type": "uint256"
        },
        {
          "internalType": "uint256",
          "name": "_totalBalance",
          "type": "uint256"
        }
      ],
      "name": "getBalanceLeftToList",
      "outputs": [
        {
          "internalType": "uint256",
          "name": "totalBalanceLeft",
          "type": "uint256"
        }
      ],
      "stateMutability": "pure",
      "type": "function"
    },
    {
      "inputs": [
        {
          "internalType": "uint256",
          "name": "_listingId",
          "type": "uint256"
        }
      ],
      "name": "getListingById",
      "outputs": [
        {
          "components": [
            {
              "internalType": "uint256",
              "name": "listingId",
              "type": "uint256"
            },
            {
              "internalType": "address",
              "name": "tokenOwner",
              "type": "address"
            },
            {
              "internalType": "address",
              "name": "assetContract",
              "type": "address"
            },
            {
              "internalType": "uint256",
              "name": "tokenId",
              "type": "uint256"
            },
            {
              "internalType": "uint256",
              "name": "startSale",
              "type": "uint256"
            },
            {
              "internalType": "uint256",
              "name": "endSale",
              "type": "uint256"
            },
            {
              "internalType": "uint256",
              "name": "quantity",
              "type": "uint256"
            },
            {
              "internalType": "address",
              "name": "currency",
              "type": "address"
            },
            {
              "internalType": "uint256",
              "name": "buyoutPricePerToken",
              "type": "uint256"
            },
            {
              "internalType": "enum ISynsMarketplace.TokenType",
              "name": "tokenType",
              "type": "uint8"
            }
          ],
          "internalType": "struct ISynsMarketplace.Listing",
          "name": "",
          "type": "tuple"
        }
      ],
      "stateMutability": "view",
      "type": "function"
    },
    {
      "inputs": [
        {
          "internalType": "address",
          "name": "_listingCreator",
          "type": "address"
        }
      ],
      "name": "getListingsOwnedBy",
      "outputs": [
        {
          "components": [
            {
              "internalType": "uint256",
              "name": "listingId",
              "type": "uint256"
            },
            {
              "internalType": "address",
              "name": "tokenOwner",
              "type": "address"
            },
            {
              "internalType": "address",
              "name": "assetContract",
              "type": "address"
            },
            {
              "internalType": "uint256",
              "name": "tokenId",
              "type": "uint256"
            },
            {
              "internalType": "uint256",
              "name": "startSale",
              "type": "uint256"
            },
            {
              "internalType": "uint256",
              "name": "endSale",
              "type": "uint256"
            },
            {
              "internalType": "uint256",
              "name": "quantity",
              "type": "uint256"
            },
            {
              "internalType": "address",
              "name": "currency",
              "type": "address"
            },
            {
              "internalType": "uint256",
              "name": "buyoutPricePerToken",
              "type": "uint256"
            },
            {
              "internalType": "enum ISynsMarketplace.TokenType",
              "name": "tokenType",
              "type": "uint8"
            }
          ],
          "internalType": "struct ISynsMarketplace.Listing[]",
          "name": "",
          "type": "tuple[]"
        }
      ],
      "stateMutability": "view",
      "type": "function"
    },
    {
      "inputs": [],
      "name": "getPlatformFeeInfo",
      "outputs": [
        {
          "internalType": "address",
          "name": "",
          "type": "address"
        },
        {
          "internalType": "uint16",
          "name": "",
          "type": "uint16"
        }
      ],
      "stateMutability": "view",
      "type": "function"
    },
    {
      "inputs": [
        {
          "internalType": "bytes32",
          "name": "role",
          "type": "bytes32"
        }
      ],
      "name": "getRoleAdmin",
      "outputs": [
        {
          "internalType": "bytes32",
          "name": "",
          "type": "bytes32"
        }
      ],
      "stateMutability": "view",
      "type": "function"
    },
    {
      "inputs": [
        {
          "internalType": "bytes32",
          "name": "role",
          "type": "bytes32"
        },
        {
          "internalType": "uint256",
          "name": "index",
          "type": "uint256"
        }
      ],
      "name": "getRoleMember",
      "outputs": [
        {
          "internalType": "address",
          "name": "",
          "type": "address"
        }
      ],
      "stateMutability": "view",
      "type": "function"
    },
    {
      "inputs": [
        {
          "internalType": "bytes32",
          "name": "role",
          "type": "bytes32"
        }
      ],
      "name": "getRoleMemberCount",
      "outputs": [
        {
          "internalType": "uint256",
          "name": "",
          "type": "uint256"
        }
      ],
      "stateMutability": "view",
      "type": "function"
    },
    {
      "inputs": [
        {
          "internalType": "address",
          "name": "_listingCreator",
          "type": "address"
        }
      ],
      "name": "getTotalAmountListingBy",
      "outputs": [
        {
          "internalType": "uint256",
          "name": "total",
          "type": "uint256"
        }
      ],
      "stateMutability": "view",
      "type": "function"
    },
    {
      "inputs": [
        {
          "internalType": "bytes32",
          "name": "role",
          "type": "bytes32"
        },
        {
          "internalType": "address",
          "name": "account",
          "type": "address"
        }
      ],
      "name": "grantRole",
      "outputs": [],
      "stateMutability": "nonpayable",
      "type": "function"
    },
    {
      "inputs": [
        {
          "internalType": "bytes32",
          "name": "role",
          "type": "bytes32"
        },
        {
          "internalType": "address",
          "name": "account",
          "type": "address"
        }
      ],
      "name": "hasRole",
      "outputs": [
        {
          "internalType": "bool",
          "name": "",
          "type": "bool"
        }
      ],
      "stateMutability": "view",
      "type": "function"
    },
    {
      "inputs": [
        {
          "internalType": "address",
          "name": "_defaultAdmin",
          "type": "address"
        },
        {
          "internalType": "string",
          "name": "_contrtactURI",
          "type": "string"
        },
        {
          "internalType": "address[]",
          "name": "_trustedForwarders",
          "type": "address[]"
        },
        {
          "internalType": "address",
          "name": "_platformFeeRecipient",
          "type": "address"
        },
        {
          "internalType": "uint256",
          "name": "_platformFeeBps",
          "type": "uint256"
        }
      ],
      "name": "initialize",
      "outputs": [],
      "stateMutability": "nonpayable",
      "type": "function"
    },
    {
      "inputs": [
        {
          "internalType": "address",
          "name": "forwarder",
          "type": "address"
        }
      ],
      "name": "isTrustedForwarder",
      "outputs": [
        {
          "internalType": "bool",
          "name": "",
          "type": "bool"
        }
      ],
      "stateMutability": "view",
      "type": "function"
    },
    {
      "inputs": [
        {
          "internalType": "bytes[]",
          "name": "data",
          "type": "bytes[]"
        }
      ],
      "name": "multicall",
      "outputs": [
        {
          "internalType": "bytes[]",
          "name": "results",
          "type": "bytes[]"
        }
      ],
      "stateMutability": "nonpayable",
      "type": "function"
    },
    {
      "inputs": [
        {
          "internalType": "uint256",
          "name": "_listingId",
          "type": "uint256"
        },
        {
          "internalType": "uint256",
          "name": "_quantityWanted",
          "type": "uint256"
        },
        {
          "internalType": "address",
          "name": "_currency",
          "type": "address"
        },
        {
          "internalType": "uint256",
          "name": "_pricePerToken",
          "type": "uint256"
        },
        {
          "internalType": "uint256",
          "name": "_offerDuration",
          "type": "uint256"
        }
      ],
      "name": "offer",
      "outputs": [],
      "stateMutability": "payable",
      "type": "function"
    },
    {
      "inputs": [
        {
          "internalType": "address",
          "name": "",
          "type": "address"
        },
        {
          "internalType": "address",
          "name": "",
          "type": "address"
        },
        {
          "internalType": "uint256[]",
          "name": "",
          "type": "uint256[]"
        },
        {
          "internalType": "uint256[]",
          "name": "",
          "type": "uint256[]"
        },
        {
          "internalType": "bytes",
          "name": "",
          "type": "bytes"
        }
      ],
      "name": "onERC1155BatchReceived",
      "outputs": [
        {
          "internalType": "bytes4",
          "name": "",
          "type": "bytes4"
        }
      ],
      "stateMutability": "nonpayable",
      "type": "function"
    },
    {
      "inputs": [
        {
          "internalType": "address",
          "name": "",
          "type": "address"
        },
        {
          "internalType": "address",
          "name": "",
          "type": "address"
        },
        {
          "internalType": "uint256",
          "name": "",
          "type": "uint256"
        },
        {
          "internalType": "uint256",
          "name": "",
          "type": "uint256"
        },
        {
          "internalType": "bytes",
          "name": "",
          "type": "bytes"
        }
      ],
      "name": "onERC1155Received",
      "outputs": [
        {
          "internalType": "bytes4",
          "name": "",
          "type": "bytes4"
        }
      ],
      "stateMutability": "nonpayable",
      "type": "function"
    },
    {
      "inputs": [
        {
          "internalType": "address",
          "name": "",
          "type": "address"
        },
        {
          "internalType": "address",
          "name": "",
          "type": "address"
        },
        {
          "internalType": "uint256",
          "name": "",
          "type": "uint256"
        },
        {
          "internalType": "bytes",
          "name": "",
          "type": "bytes"
        }
      ],
      "name": "onERC721Received",
      "outputs": [
        {
          "internalType": "bytes4",
          "name": "",
          "type": "bytes4"
        }
      ],
      "stateMutability": "pure",
      "type": "function"
    },
    {
      "inputs": [
        {
          "internalType": "bytes32",
          "name": "role",
          "type": "bytes32"
        },
        {
          "internalType": "address",
          "name": "account",
          "type": "address"
        }
      ],
      "name": "renounceRole",
      "outputs": [],
      "stateMutability": "nonpayable",
      "type": "function"
    },
    {
      "inputs": [
        {
          "internalType": "bytes32",
          "name": "role",
          "type": "bytes32"
        },
        {
          "internalType": "address",
          "name": "account",
          "type": "address"
        }
      ],
      "name": "revokeRole",
      "outputs": [],
      "stateMutability": "nonpayable",
      "type": "function"
    },
    {
      "inputs": [
        {
          "internalType": "string",
          "name": "_uri",
          "type": "string"
        }
      ],
      "name": "setContractURI",
      "outputs": [],
      "stateMutability": "nonpayable",
      "type": "function"
    },
    {
      "inputs": [
        {
          "internalType": "address",
          "name": "_platformFeeRecipient",
          "type": "address"
        },
        {
          "internalType": "uint256",
          "name": "_platformFeeBps",
          "type": "uint256"
        }
      ],
      "name": "setPlatformFeeInfo",
      "outputs": [],
      "stateMutability": "nonpayable",
      "type": "function"
    },
    {
      "inputs": [
        {
          "internalType": "bytes4",
          "name": "interfaceId",
          "type": "bytes4"
        }
      ],
      "name": "supportsInterface",
      "outputs": [
        {
          "internalType": "bool",
          "name": "",
          "type": "bool"
        }
      ],
      "stateMutability": "view",
      "type": "function"
    },
    {
      "inputs": [],
      "name": "totalListings",
      "outputs": [
        {
          "internalType": "uint256",
          "name": "",
          "type": "uint256"
        }
      ],
      "stateMutability": "view",
      "type": "function"
    },
    {
      "inputs": [
        {
          "internalType": "uint256",
          "name": "_listingId",
          "type": "uint256"
        },
        {
          "internalType": "uint256",
          "name": "_quantityToList",
          "type": "uint256"
        },
        {
          "internalType": "uint256",
          "name": "_buyoutPricePerToken",
          "type": "uint256"
        },
        {
          "internalType": "address",
          "name": "_currencyToAccept",
          "type": "address"
        }
      ],
      "name": "updateListing",
      "outputs": [],
      "stateMutability": "nonpayable",
      "type": "function"
    },
    {
      "stateMutability": "payable",
      "type": "receive"
    }
  ],
  "bytecode": "0x60a06040523480156200001157600080fd5b5060405162005250380380620052508339810160408190526200003491620004d3565b600054610100900460ff1615808015620000555750600054600160ff909116105b8062000085575062000072306200021660201b620020021760201c565b15801562000085575060005460ff166001145b620000ee5760405162461bcd60e51b815260206004820152602e60248201527f496e697469616c697a61626c653a20636f6e747261637420697320616c72656160448201526d191e481a5b9a5d1a585b1a5e995960921b60648201526084015b60405180910390fd5b6000805460ff19166001179055801562000112576000805461ff0019166101001790555b6200011c62000225565b6001600160a01b0384811660805261016080549185166001600160e01b031990921691909117600160a01b6001600160401b038516021790556200016b6000620001656200028d565b620002a9565b620001987ff94103142c1baabe9ac2b5d1487bf783de9e69cfeea9a72f5c9c94afd7877b8c6000620002a9565b620001c57f86d5cf0a6bdc8d859ba3bdc97043337c82a0e609035f378e419298b6a3e00ae66000620002a9565b80156200020c576000805461ff0019169055604051600181527f7f26b83ff96e1f2b6a682f133852f6798a09c465da95921460cefb38474024989060200160405180910390a15b5050505062000514565b6001600160a01b03163b151590565b600054610100900460ff16620002815760405162461bcd60e51b815260206004820152602b60248201526000805160206200523083398151915260448201526a6e697469616c697a696e6760a81b6064820152608401620000e5565b6200028b620002b9565b565b6000620002a46200031b60201b620020111760201c565b905090565b620002b5828262000356565b5050565b600054610100900460ff16620003155760405162461bcd60e51b815260206004820152602b60248201526000805160206200523083398151915260448201526a6e697469616c697a696e6760a81b6064820152608401620000e5565b60018055565b3360009081526065602052604081205460ff161562000341575060131936013560601c90565b620002a46200039a60201b620020401760201c565b6200036d82826200039e60201b620020441760201c565b600082815261012d6020908152604090912062000395918390620020cb62000444821b17901c565b505050565b3390565b600082815260fb602090815260408083206001600160a01b038516845290915290205460ff16620002b557600082815260fb602090815260408083206001600160a01b03851684529091529020805460ff19166001179055620004006200028d565b6001600160a01b0316816001600160a01b0316837f2f8788117e7eff1d82e926ec794901d17c78024a50270940304540a733656f0d60405160405180910390a45050565b60006200045b836001600160a01b03841662000464565b90505b92915050565b6000818152600183016020526040812054620004ad575081546001818101845560008481526020808220909301849055845484825282860190935260409020919091556200045e565b5060006200045e565b80516001600160a01b0381168114620004ce57600080fd5b919050565b600080600060608486031215620004e957600080fd5b620004f484620004b6565b92506200050460208501620004b6565b9150604084015190509250925092565b608051614d00620005306000396000612d8d0152614d006000f3fe60806040526004361061021e5760003560e01c80639010d07c11610123578063ca15c873116100ab578063e8a3d4851161006f578063e8a3d485146106d6578063f23a6e61146106f8578063f37cea6714610724578063f6e28b8814610744578063fd967f471461077157600080fd5b8063ca15c87314610616578063cb2ef6f714610636578063d45573f61461065c578063d547741f14610694578063deb26b94146106b457600080fd5b8063a217fddf116100f2578063a217fddf14610571578063ac9650d814610586578063b13c0e63146105b3578063bc197c81146105d3578063c78b616c146105ff57600080fd5b80639010d07c146104dd57806391d1485414610515578063938e3d7b14610535578063a0a8e4601461055557600080fd5b80633c043425116101a65780635fef45e7116101755780635fef45e71461045757806362bb04f61461046a57806370f2a0721461048a5780637687ab02146104aa5780638c8a84e2146104bd57600080fd5b80633c043425146103b15780634e99c334146103d15780634f85310f146103f1578063572b6c051461041e57600080fd5b8063248a9ca3116101ed578063248a9ca3146102ea5780632f2ff15d1461031a578063305a67a81461033a57806335a914cf1461035a57806336568abe1461039157600080fd5b806301ffc9a71461022a57806303100aa41461025f578063150b7a021461028f5780631e7ac488146102c857600080fd5b3661022557005b600080fd5b34801561023657600080fd5b5061024a610245366004613da0565b61079f565b60405190151581526020015b60405180910390f35b34801561026b57600080fd5b50610281600080516020614c6483398151915281565b604051908152602001610256565b34801561029b57600080fd5b506102af6102aa366004613e32565b6107e5565b6040516001600160e01b03199091168152602001610256565b3480156102d457600080fd5b506102e86102e3366004613ea4565b6107f7565b005b3480156102f657600080fd5b50610281610305366004613ed0565b600090815260fb602052604090206001015490565b34801561032657600080fd5b506102e8610335366004613ee9565b6108e7565b34801561034657600080fd5b506102e8610355366004613ed0565b610911565b34801561036657600080fd5b5061037a610375366004613f19565b610a04565b604080519215158352602083019190915201610256565b34801561039d57600080fd5b506102e86103ac366004613ee9565b610ad0565b3480156103bd57600080fd5b506102e86103cc366004613fc9565b610b5e565b3480156103dd57600080fd5b506102816103ec366004614049565b611172565b3480156103fd57600080fd5b5061041161040c366004613ed0565b6111cd565b6040516102569190614139565b34801561042a57600080fd5b5061024a610439366004614049565b6001600160a01b031660009081526065602052604090205460ff1690565b6102e8610465366004614148565b611299565b34801561047657600080fd5b506102e8610485366004614191565b6112ec565b34801561049657600080fd5b506102816104a5366004614302565b61166e565b6102e86104b8366004614360565b611721565b3480156104c957600080fd5b506102e86104d8366004614409565b611903565b3480156104e957600080fd5b506104fd6104f83660046144fb565b611aa3565b6040516001600160a01b039091168152602001610256565b34801561052157600080fd5b5061024a610530366004613ee9565b611ac3565b34801561054157600080fd5b506102e861055036600461451d565b611aee565b34801561056157600080fd5b5060405160018152602001610256565b34801561057d57600080fd5b50610281600081565b34801561059257600080fd5b506105a66105a136600461455e565b611b0c565b604051610256919061462a565b3480156105bf57600080fd5b506102e86105ce36600461468c565b611c00565b3480156105df57600080fd5b506102af6105ee36600461475a565b63bc197c8160e01b95945050505050565b34801561060b57600080fd5b506102816101615481565b34801561062257600080fd5b50610281610631366004613ed0565b611c80565b34801561064257600080fd5b506f53796e732d4d61726b6574706c61636560801b610281565b34801561066857600080fd5b5061016054604080516001600160a01b0383168152600160a01b90920461ffff16602083015201610256565b3480156106a057600080fd5b506102e86106af366004613ee9565b611c98565b3480156106c057600080fd5b50610281600080516020614c8483398151915281565b3480156106e257600080fd5b506106eb611cbd565b6040516102569190614807565b34801561070457600080fd5b506102af61071336600461481a565b63f23a6e6160e01b95945050505050565b34801561073057600080fd5b5061037a61073f366004614882565b611d4c565b34801561075057600080fd5b5061076461075f366004614049565b611e6c565b60405161025691906148cd565b34801561077d57600080fd5b5061078761271081565b6040516001600160401b039091168152602001610256565b60006001600160e01b03198216630271189760e51b14806107d057506001600160e01b03198216630a85bd0160e11b145b806107df57506107df826120e0565b92915050565b630a85bd0160e11b5b95945050505050565b600061080281612105565b6127108211156108755760405162461bcd60e51b815260206004820152603360248201527f21494e56414c494420425053202d206d757374206265206c657373207468616e6044820152721037b91032b8bab0b6103a379018981818181760691b60648201526084015b60405180910390fd5b61016080546001600160e01b031916600160a01b6001600160401b038516026001600160a01b031916176001600160a01b0385169081179091556040518381527fe2497bd806ec41a6e0dd992c29a72efc0ef8fec9092d1978fd4a1e00b2f183049060200160405180910390a2505050565b600082815260fb602052604090206001015461090281612105565b61090c8383612119565b505050565b8061091a61213c565b600082815261016260205260409020600101546001600160a01b039081169116146109575760405162461bcd60e51b815260040161086c9061491c565b6000828152610162602052604081208181556001810180546001600160a01b0319908116909155600282018054821690556003820183905560048201839055600582018390556006820183905560078201805490911690556008810191909155600901805460ff191690556109ca61213c565b6001600160a01b0316827f58b0852506006c4be6c7ae72afcd195d9e64d7f5d8947905e914b778e47b7cf360405160405180910390a35050565b6000806000610a1285611e6c565b905060005b8151811015610abc57866001600160a01b0316828281518110610a3c57610a3c61493c565b6020026020010151604001516001600160a01b0316148015610a7a575084828281518110610a6c57610a6c61493c565b602002602001015160600151145b15610aaa576001828281518110610a9357610a9361493c565b602002602001015160000151935093505050610ac8565b80610ab481614968565b915050610a17565b50600060001992509250505b935093915050565b610ad861213c565b6001600160a01b0316816001600160a01b031614610b505760405162461bcd60e51b815260206004820152602f60248201527f416363657373436f6e74726f6c3a2063616e206f6e6c792072656e6f756e636560448201526e103937b632b9903337b91039b2b63360891b606482015260840161086c565b610b5a8282612146565b5050565b6000610b6861213c565b90506000610b7582611e6c565b9050610b90600080516020614c848339815191526000611ac3565b80610bae5750610bae600080516020614c8483398151915283611ac3565b610c145760405162461bcd60e51b815260206004820152603160248201527f494e56414c494420524f4c45202d206163636f756e74206d7573742068617665604482015270204c49535445525f524f4c4520726f6c6560781b606482015260840161086c565b610c2d600080516020614c648339815191526000611ac3565b80610c4f5750610c4f600080516020614c648339815191528460000151611ac3565b610cb45760405162461bcd60e51b815260206004820152603060248201527f494e56414c494420524f4c45202d206163636f756e74206d757374206861766560448201526f2041535345545f524f4c4520726f6c6560801b606482015260840161086c565b6000610cc38460000151612169565b90506000610cd58286604001516122b1565b905060008111610cf75760405162461bcd60e51b815260040161086c90614983565b6000610d0e858760000151886020015185876122e8565b905080610d6e5760405162461bcd60e51b815260206004820152602860248201527f494e56414c4944205155414e54495459202d20696e73756666696369656e74206044820152677175616e7469747960c01b606482015260840161086c565b610d838587600001518860200151858761246a565b600080610da38689600001518a602001518b606001518c60800151611d4c565b915091508115610fa157600081815261016260209081526040808320815161014081018352815481526001808301546001600160a01b039081169583019590955260028301548516938201939093526003820154606082015260048201546080820152600582015460a0820152600682015460c0820152600782015490931660e084015260088101546101008401526009810154909161012084019160ff1690811115610e5257610e52614066565b6001811115610e6357610e63614066565b815250509050848160c001818151610e7b91906149cc565b905250600082815261016260209081526040918290208351815590830151600180830180546001600160a01b03199081166001600160a01b0394851617909155938501516002840180548616918416919091179055606085015160038401556080850151600484015560a0850151600584015560c0850151600684015560e08501516007840180549095169216919091179092556101008301516008820155610120830151600982018054859460ff19909116908381811115610f4057610f40614066565b0217905550905050876001600160a01b031681604001516001600160a01b0316610161547f74f0ef0184182c3c414a92d520198a9ae5b2deb40a10c563b1f9f345350c4eaa84604051610f939190614139565b60405180910390a450611168565b6101618054906001906000610fb683856149cc565b9250508190555060006040518061014001604052808381526020018a6001600160a01b031681526020018b600001516001600160a01b031681526020018b60200151815260200142815260200160001981526020018781526020018b606001516001600160a01b031681526020018b60800151815260200188600181111561104057611040614066565b9052600083815261016260209081526040918290208351815590830151600180830180546001600160a01b03199081166001600160a01b0394851617909155938501516002840180548616918416919091179055606085015160038401556080850151600484015560a0850151600584015560c0850151600684015560e08501516007840180549095169216919091179092556101008301516008820155610120830151600982018054949550859492939192909160ff1990911690838181111561110d5761110d614066565b0217905550905050886001600160a01b031681604001516001600160a01b0316837f03a563117d286f4fd8d36e6506c6a80a939c02319e0c62d0d3a98290cabaf3fd8460405161115d9190614139565b60405180910390a450505b5050505050505050565b6000805b610161548110156111c757600081815261016260205260409020600101546001600160a01b03848116911614156111b557816111b181614968565b9250505b806111bf81614968565b915050611176565b50919050565b6111d5613c15565b60008281526101626020908152604091829020825161014081018452815481526001808301546001600160a01b039081169483019490945260028301548416948201949094526003820154606082015260048201546080820152600582015460a0820152600682015460c0820152600782015490921660e0830152600881015461010083015260098101549192909161012084019160ff9091169081111561127f5761127f614066565b600181111561129057611290614066565b90525092915050565b6112a161275c565b6000858152610162602052604090206002015485906001600160a01b03166112db5760405162461bcd60e51b815260040161086c906149e4565b506112e560018055565b5050505050565b836112f561213c565b600082815261016260205260409020600101546001600160a01b039081169116146113325760405162461bcd60e51b815260040161086c9061491c565b600085815261016260209081526040808320815161014081018352815481526001808301546001600160a01b039081169583019590955260028301548516938201939093526003820154606082015260048201546080820152600582015460a0820152600682015460c0820152600782015490931660e084015260088101546101008401526009810154909161012084019160ff16908111156113d7576113d7614066565b60018111156113e8576113e8614066565b81525050905060006113ff826101200151876122b1565b9050806114585760405162461bcd60e51b815260206004820152602160248201527f5155414e54495459202d206d7573742062652067726561746572207468616e206044820152600360fc1b606482015260840161086c565b6000826101200151600181111561147157611471614066565b1480156114815750808260c00151105b156115265760008260c00151826114989190614a01565b905060006114bd6114a761213c565b85604001518660600151858861012001516122e8565b9050806115235760405162461bcd60e51b815260206004820152602e60248201527f494e56414c4944205155414e54495459202d20696e73756666696369656e742060448201526d6578747261207175616e7469747960901b606482015260840161086c565b50505b8160c00151811461154f5761154f8260200151836040015184606001518486610120015161246a565b60c0820181815261010083018681526001600160a01b0380871660e0860190815260008b815261016260209081526040918290208851815590880151600180830180549287166001600160a01b031993841617905592890151600283018054918716918316919091179055606089015160038301556080890151600483015560a089015160058301559551600682015591516007830180549190941695169490941790915590516008820155610120840151600982018054869460ff199190911690838181111561162257611622614066565b02179055505050602082015182516040516001600160a01b03909216917fbbea26162edf2bc6a0255bf144ec4dd044302a301ef7d32daa835a2ddacfdef090600090a350505050505050565b8060005b855181101561171857846001600160a01b03168682815181106116975761169761493c565b6020026020010151604001516001600160a01b03161480156116d55750838682815181106116c7576116c761493c565b602002602001015160600151145b15611706578581815181106116ec576116ec61493c565b602002602001015160c00151826117039190614a01565b91505b8061171081614968565b915050611672565b50949350505050565b61172961275c565b6000858152610162602052604090206002015485906001600160a01b03166117635760405162461bcd60e51b815260040161086c906149e4565b600086815261016260209081526040808320815161014081018352815481526001808301546001600160a01b039081169583019590955260028301548516938201939093526003820154606082015260048201546080820152600582015460a0820152600682015460c0820152600782015490931660e084015260088101546101008401526009810154909161012084019160ff169081111561180857611808614066565b600181111561181957611819614066565b8152505090506000611830826101200151876122b1565b9050600081116118525760405162461bcd60e51b815260040161086c90614983565b6000818361010001516118659190614a18565b9050600061187161213c565b90508360e001516001600160a01b0316876001600160a01b031614801561189757508186145b6118e35760405162461bcd60e51b815260206004820152601b60248201527f215052494345202d20696e76616c696420746f74616c70726963650000000000604482015260640161086c565b6118f584828b8760e0015186886127bc565b50505050506112e560018055565b600054610100900460ff16158080156119235750600054600160ff909116105b8061193d5750303b15801561193d575060005460ff166001145b6119a05760405162461bcd60e51b815260206004820152602e60248201527f496e697469616c697a61626c653a20636f6e747261637420697320616c72656160448201526d191e481a5b9a5d1a585b1a5e995960921b606482015260840161086c565b6000805460ff1916600117905580156119c3576000805461ff0019166101001790555b6119cb61284f565b6119d484612880565b84516119e89061015f906020880190613c93565b5061016080546001600160401b038416600160a01b026001600160e01b03199091166001600160a01b03861617179055611a236000876128b8565b611a3c600080516020614c8483398151915260006128b8565b611a55600080516020614c6483398151915260006128b8565b8015611a9b576000805461ff0019169055604051600181527f7f26b83ff96e1f2b6a682f133852f6798a09c465da95921460cefb38474024989060200160405180910390a15b505050505050565b600082815261012d60205260408120611abc90836128c2565b9392505050565b600091825260fb602090815260408084206001600160a01b0393909316845291905290205460ff1690565b6000611af981612105565b611b0661015f8484613d17565b50505050565b6060816001600160401b03811115611b2657611b26613f5a565b604051908082528060200260200182016040528015611b5957816020015b6060815260200190600190039081611b445790505b50905060005b82811015611bf957611bc930858584818110611b7d57611b7d61493c565b9050602002810190611b8f9190614a37565b8080601f0160208091040260200160405190810160405280939291908181526020018383808284376000920191909152506128ce92505050565b828281518110611bdb57611bdb61493c565b60200260200101819052508080611bf190614968565b915050611b5f565b5092915050565b83611c0961213c565b600082815261016260205260409020600101546001600160a01b03908116911614611c465760405162461bcd60e51b815260040161086c9061491c565b6000858152610162602052604090206002015485906001600160a01b0316611a9b5760405162461bcd60e51b815260040161086c906149e4565b600081815261012d602052604081206107df906129b9565b600082815260fb6020526040902060010154611cb381612105565b61090c8383612146565b61015f8054611ccb90614a7d565b80601f0160208091040260200160405190810160405280929190818152602001828054611cf790614a7d565b8015611d445780601f10611d1957610100808354040283529160200191611d44565b820191906000526020600020905b815481529060010190602001808311611d2757829003601f168201915b505050505081565b60008060005b8751811015611e5957866001600160a01b0316888281518110611d7757611d7761493c565b6020026020010151604001516001600160a01b0316148015611db5575085888281518110611da757611da761493c565b602002602001015160600151145b8015611def5750846001600160a01b0316888281518110611dd857611dd861493c565b602002602001015160e001516001600160a01b0316145b8015611e18575083888281518110611e0957611e0961493c565b60200260200101516101000151145b15611e47576001888281518110611e3157611e3161493c565b6020026020010151600001519250925050611e62565b80611e5181614968565b915050611d52565b50600080915091505b9550959350505050565b60606000611e7983611172565b9050600080826001600160401b03811115611e9657611e96613f5a565b604051908082528060200260200182016040528015611ecf57816020015b611ebc613c15565b815260200190600190039081611eb45790505b50905060005b6101615481101561171857600081815261016260205260409020600101546001600160a01b0387811691161415611ff057600081815261016260209081526040808320815161014081018352815481526001808301546001600160a01b039081169583019590955260028301548516938201939093526003820154606082015260048201546080820152600582015460a0820152600682015460c0820152600782015490931660e084015260088101546101008401526009810154909161012084019160ff1690811115611fab57611fab614066565b6001811115611fbc57611fbc614066565b81525050905080838581518110611fd557611fd561493c565b60200260200101819052508380611feb90614968565b945050505b80611ffa81614968565b915050611ed5565b6001600160a01b03163b151590565b3360009081526065602052604081205460ff1615612036575060131936013560601c90565b503390565b905090565b3390565b61204e8282611ac3565b610b5a57600082815260fb602090815260408083206001600160a01b03851684529091529020805460ff1916600117905561208761213c565b6001600160a01b0316816001600160a01b0316837f2f8788117e7eff1d82e926ec794901d17c78024a50270940304540a733656f0d60405160405180910390a45050565b6000611abc836001600160a01b0384166129c3565b60006001600160e01b03198216635a05180f60e01b14806107df57506107df82612a12565b6121168161211161213c565b612a47565b50565b6121238282612044565b600082815261012d6020526040902061090c90826120cb565b600061203b612011565b6121508282612aa0565b600082815261012d6020526040902061090c9082612b25565b6040516301ffc9a760e01b8152636cdb3d1360e11b60048201526000906001600160a01b038316906301ffc9a790602401602060405180830381865afa1580156121b7573d6000803e3d6000fd5b505050506040513d601f19601f820116820180604052508101906121db9190614ab2565b156121e857506000919050565b6040516301ffc9a760e01b81526380ac58cd60e01b60048201526001600160a01b038316906301ffc9a790602401602060405180830381865afa158015612233573d6000803e3d6000fd5b505050506040513d601f19601f820116820180604052508101906122579190614ab2565b1561226457506001919050565b60405162461bcd60e51b815260206004820152601f60248201527f546f6b656e206d75737420626520455243373231206f72204552433131353500604482015260640161086c565b919050565b6000816122c0575060006107df565b60018360018111156122d4576122d4614066565b146122df5781611abc565b50600192915050565b6000806122f487611e6c565b9050600183600181111561230a5761230a614066565b141561239e5760005b815181101561239857866001600160a01b03168282815181106123385761233861493c565b6020026020010151604001516001600160a01b03161480156123765750858282815181106123685761236861493c565b602002602001015160600151145b15612386576000925050506107ee565b8061239081614968565b915050612313565b5061245d565b60008360018111156123b2576123b2614066565b141561245d57604051627eeac760e11b81526001600160a01b038881166004830152602482018790526000919088169062fdd58e90604401602060405180830381865afa158015612407573d6000803e3d6000fd5b505050506040513d601f19601f8201168201806040525081019061242b9190614ad4565b9050600061243b8389898561166e565b905085811080612449575080155b1561245a57600093505050506107ee565b50505b5060019695505050505050565b3060008083600181111561248057612480614066565b141561257a57604051627eeac760e11b81526001600160a01b0388811660048301526024820187905285919088169062fdd58e90604401602060405180830381865afa1580156124d4573d6000803e3d6000fd5b505050506040513d601f19601f820116820180604052508101906124f89190614ad4565b10158015612573575060405163e985e9c560e01b81526001600160a01b038881166004830152838116602483015287169063e985e9c590604401602060405180830381865afa15801561254f573d6000803e3d6000fd5b505050506040513d601f19601f820116820180604052508101906125739190614ab2565b9050612706565b600183600181111561258e5761258e614066565b1415612706576040516331a9108f60e11b8152600481018690526001600160a01b038089169190881690636352211e90602401602060405180830381865afa1580156125de573d6000803e3d6000fd5b505050506040513d601f19601f820116820180604052508101906126029190614aed565b6001600160a01b0316148015612703575060405163020604bf60e21b8152600481018690526001600160a01b03808416919088169063081812fc90602401602060405180830381865afa15801561265d573d6000803e3d6000fd5b505050506040513d601f19601f820116820180604052508101906126819190614aed565b6001600160a01b03161480612703575060405163e985e9c560e01b81526001600160a01b038881166004830152838116602483015287169063e985e9c590604401602060405180830381865afa1580156126df573d6000803e3d6000fd5b505050506040513d601f19601f820116820180604052508101906127039190614ab2565b90505b806127535760405162461bcd60e51b815260206004820152601f60248201527f21494e56414c4944204f574e45525348495020414e4420415050524f56414c00604482015260640161086c565b50505050505050565b600260015414156127af5760405162461bcd60e51b815260206004820152601f60248201527f5265656e7472616e637947756172643a207265656e7472616e742063616c6c00604482015260640161086c565b6002600155565b60018055565b6127c98686838686612b3a565b6127da85876020015185858a612c5b565b6127ea8660200151858389612e47565b602080870151604080890151895182516001600160a01b038a81168252958101879052928301879052928416931691907f306e6cde5eb293794d557a3a6c844de939e6206b05e6910451c512852bf654a59060600160405180910390a4505050505050565b600054610100900460ff166128765760405162461bcd60e51b815260040161086c90614b0a565b61287e613168565b565b600054610100900460ff166128a75760405162461bcd60e51b815260040161086c90614b0a565b6128af61318f565b612116816131b6565b610b5a8282612119565b6000611abc8383613245565b60606001600160a01b0383163b6129365760405162461bcd60e51b815260206004820152602660248201527f416464726573733a2064656c65676174652063616c6c20746f206e6f6e2d636f6044820152651b9d1c9858dd60d21b606482015260840161086c565b600080846001600160a01b0316846040516129519190614b55565b600060405180830381855af49150503d806000811461298c576040519150601f19603f3d011682016040523d82523d6000602084013e612991565b606091505b50915091506107ee8282604051806060016040528060278152602001614ca46027913961326f565b60006107df825490565b6000818152600183016020526040812054612a0a575081546001818101845560008481526020808220909301849055845484825282860190935260409020919091556107df565b5060006107df565b60006001600160e01b03198216637965db0b60e01b14806107df57506301ffc9a760e01b6001600160e01b03198316146107df565b612a518282611ac3565b610b5a57612a5e81613288565b612a6983602061329a565b604051602001612a7a929190614b71565b60408051601f198184030181529082905262461bcd60e51b825261086c91600401614807565b612aaa8282611ac3565b15610b5a57600082815260fb602090815260408083206001600160a01b03851684529091529020805460ff19169055612ae161213c565b6001600160a01b0316816001600160a01b0316837ff6391f5c32d9c69d2a47ea670b442974b53935d1edc7fd64eb21e047a839171b60405160405180910390a45050565b6000611abc836001600160a01b038416613435565b60008560c00151118015612b4e5750600083115b8015612b5e57508460c001518311155b612bb95760405162461bcd60e51b815260206004820152602660248201527f215155414e54495459202d20696e76616c6964207175616e74697479206f6620604482015265746f6b656e7360d01b606482015260840161086c565b6001600160a01b03821673eeeeeeeeeeeeeeeeeeeeeeeeeeeeeeeeeeeeeeee1415612c3257803414612c2d5760405162461bcd60e51b815260206004820181905260248201527f2146554e44202d206d73672e76616c756520213d20746f74616c207072696365604482015260640161086c565b612c3d565b612c3d848383613528565b6112e58560200151866040015187606001518689610120015161246a565b6101605460009061271090612c8090600160a01b90046001600160401b031685614a18565b612c8a9190614be6565b905060008083604001516001600160a01b0316632a55205a8560600151876040518363ffffffff1660e01b8152600401612cce929190918252602082015260400190565b6040805180830381865afa925050508015612d06575060408051601f3d908101601f19168201909252612d0391810190614c08565b60015b612d0f57612d87565b6001600160a01b03821615801590612d275750600081115b15612d845786612d3786836149cc565b1115612d7d5760405162461bcd60e51b815260206004820152601560248201527466656573206578636565642074686520707269636560581b604482015260640161086c565b8192508093505b50505b610160547f000000000000000000000000000000000000000000000000000000000000000090612dc59088908b906001600160a01b0316878561366a565b612dd2878a84868561366a565b612df2878a8a612de287896149cc565b612dec908b614a01565b8561366a565b604080516001600160a01b0384168152602081018590529081018590527f31e2bcb3104121384fecd6f15f88aa252c8677afcb27fc3cd7a3dc573b4e6a519060600160405180910390a1505050505050505050565b60008161012001516001811115612e6057612e60614066565b14156130545760408082015160608301519151637921219560e11b81526001600160a01b038781166004830152868116602483015260448201939093526064810185905260a06084820152600060a482015291169063f242432a9060c401600060405180830381600087803b158015612ed857600080fd5b505af1158015612eec573d6000803e3d6000fd5b50505050818160c001511415612f6e5780516000908152610162602052604081208181556001810180546001600160a01b0319908116909155600282018054821690556003820183905560048201839055600582018390556006820183905560078201805490911690556008810191909155600901805460ff19169055611b06565b818160c001818151612f809190614a01565b9052508051600090815261016260209081526040918290208351815590830151600180830180546001600160a01b03199081166001600160a01b0394851617909155938501516002840180548616918416919091179055606085015160038401556080850151600484015560a0850151600584015560c0850151600684015560e08501516007840180549095169216919091179092556101008301516008820155610120830151600982018054859460ff1990911690838181111561304757613047614066565b0217905550905050611b06565b6001816101200151600181111561306d5761306d614066565b1415611b065760408082015160608301519151635c46a7ef60e11b81526001600160a01b03878116600483015286811660248301526044820193909352608060648201526000608482015291169063b88d4fde9060a401600060405180830381600087803b1580156130de57600080fd5b505af11580156130f2573d6000803e3d6000fd5b505091516000908152610162602052604081208181556001810180546001600160a01b0319908116909155600282018054821690556003820183905560048201839055600582018390556006820183905560078201805490911690556008810191909155600901805460ff191690555050505050565b600054610100900460ff166127b65760405162461bcd60e51b815260040161086c90614b0a565b600054610100900460ff1661287e5760405162461bcd60e51b815260040161086c90614b0a565b600054610100900460ff166131dd5760405162461bcd60e51b815260040161086c90614b0a565b60005b8151811015610b5a576001606560008484815181106132015761320161493c565b6020908102919091018101516001600160a01b03168252810191909152604001600020805460ff19169115159190911790558061323d81614968565b9150506131e0565b600082600001828154811061325c5761325c61493c565b9060005260206000200154905092915050565b6060831561327e575081611abc565b611abc83836137da565b60606107df6001600160a01b03831660145b606060006132a9836002614a18565b6132b49060026149cc565b6001600160401b038111156132cb576132cb613f5a565b6040519080825280601f01601f1916602001820160405280156132f5576020820181803683370190505b509050600360fc1b816000815181106133105761331061493c565b60200101906001600160f81b031916908160001a905350600f60fb1b8160018151811061333f5761333f61493c565b60200101906001600160f81b031916908160001a9053506000613363846002614a18565b61336e9060016149cc565b90505b60018111156133e6576f181899199a1a9b1b9c1cb0b131b232b360811b85600f16601081106133a2576133a261493c565b1a60f81b8282815181106133b8576133b861493c565b60200101906001600160f81b031916908160001a90535060049490941c936133df81614c36565b9050613371565b508315611abc5760405162461bcd60e51b815260206004820181905260248201527f537472696e67733a20686578206c656e67746820696e73756666696369656e74604482015260640161086c565b6000818152600183016020526040812054801561351e576000613459600183614a01565b855490915060009061346d90600190614a01565b90508181146134d257600086600001828154811061348d5761348d61493c565b90600052602060002001549050808760000184815481106134b0576134b061493c565b6000918252602080832090910192909255918252600188019052604090208390555b85548690806134e3576134e3614c4d565b6001900381819060005260206000200160009055905585600101600086815260200190815260200160002060009055600193505050506107df565b60009150506107df565b6040516370a0823160e01b81526001600160a01b0384811660048301528291908416906370a0823190602401602060405180830381865afa158015613571573d6000803e3d6000fd5b505050506040513d601f19601f820116820180604052508101906135959190614ad4565b101580156136145750604051636eb1769f60e11b81526001600160a01b03848116600483015230602483015282919084169063dd62ed3e90604401602060405180830381865afa1580156135ed573d6000803e3d6000fd5b505050506040513d601f19601f820116820180604052508101906136119190614ad4565b10155b61090c5760405162461bcd60e51b815260206004820152602160248201527f2142414c414e43453230202d20696e73756666696369656e742062616c616e636044820152606560f81b606482015260840161086c565b81613674576112e5565b6001600160a01b03851673eeeeeeeeeeeeeeeeeeeeeeeeeeeeeeeeeeeeeeee14156137ce576001600160a01b03841630141561371457604051632e1a7d4d60e01b8152600481018390526001600160a01b03821690632e1a7d4d90602401600060405180830381600087803b1580156136ec57600080fd5b505af1158015613700573d6000803e3d6000fd5b5050505061370f838383613804565b6112e5565b6001600160a01b0383163014156137c35734821461376a5760405162461bcd60e51b81526020600482015260136024820152721b5cd9cb9d985b1d5948084f48185b5bdd5b9d606a1b604482015260640161086c565b806001600160a01b031663d0e30db0836040518263ffffffff1660e01b81526004016000604051808303818588803b1580156137a557600080fd5b505af11580156137b9573d6000803e3d6000fd5b50505050506112e5565b61370f838383613804565b6112e5858585856138c9565b8151156137ea5781518083602001fd5b8060405162461bcd60e51b815260040161086c9190614807565b6000836001600160a01b03168360405160006040518083038185875af1925050503d8060008114613851576040519150601f19603f3d011682016040523d82523d6000602084013e613856565b606091505b5050905080611b0657816001600160a01b031663d0e30db0846040518263ffffffff1660e01b81526004016000604051808303818588803b15801561389a57600080fd5b505af11580156138ae573d6000803e3d6000fd5b50611b06935050506001600160a01b03841690508585613927565b816001600160a01b0316836001600160a01b031614156138e857611b06565b6001600160a01b0383163014156139125761390d6001600160a01b0385168383613927565b611b06565b611b066001600160a01b03851684848461398a565b6040516001600160a01b03831660248201526044810182905261090c90849063a9059cbb60e01b906064015b60408051601f198184030181529190526020810180516001600160e01b03166001600160e01b0319909316929092179091526139c2565b6040516001600160a01b0380851660248301528316604482015260648101829052611b069085906323b872dd60e01b90608401613953565b6000613a17826040518060400160405280602081526020017f5361666545524332303a206c6f772d6c6576656c2063616c6c206661696c6564815250856001600160a01b0316613a949092919063ffffffff16565b80519091501561090c5780806020019051810190613a359190614ab2565b61090c5760405162461bcd60e51b815260206004820152602a60248201527f5361666545524332303a204552433230206f7065726174696f6e20646964206e6044820152691bdd081cdd58d8d9595960b21b606482015260840161086c565b6060613aa38484600085613aab565b949350505050565b606082471015613b0c5760405162461bcd60e51b815260206004820152602660248201527f416464726573733a20696e73756666696369656e742062616c616e636520666f6044820152651c8818d85b1b60d21b606482015260840161086c565b6001600160a01b0385163b613b635760405162461bcd60e51b815260206004820152601d60248201527f416464726573733a2063616c6c20746f206e6f6e2d636f6e7472616374000000604482015260640161086c565b600080866001600160a01b03168587604051613b7f9190614b55565b60006040518083038185875af1925050503d8060008114613bbc576040519150601f19603f3d011682016040523d82523d6000602084013e613bc1565b606091505b5091509150613bd1828286613bdc565b979650505050505050565b60608315613beb575081611abc565b825115613bfb5782518084602001fd5b8160405162461bcd60e51b815260040161086c9190614807565b6040518061014001604052806000815260200160006001600160a01b0316815260200160006001600160a01b031681526020016000815260200160008152602001600081526020016000815260200160006001600160a01b031681526020016000815260200160006001811115613c8e57613c8e614066565b905290565b828054613c9f90614a7d565b90600052602060002090601f016020900481019282613cc15760008555613d07565b82601f10613cda57805160ff1916838001178555613d07565b82800160010185558215613d07579182015b82811115613d07578251825591602001919060010190613cec565b50613d13929150613d8b565b5090565b828054613d2390614a7d565b90600052602060002090601f016020900481019282613d455760008555613d07565b82601f10613d5e5782800160ff19823516178555613d07565b82800160010185558215613d07579182015b82811115613d07578235825591602001919060010190613d70565b5b80821115613d135760008155600101613d8c565b600060208284031215613db257600080fd5b81356001600160e01b031981168114611abc57600080fd5b6001600160a01b038116811461211657600080fd5b80356122ac81613dca565b60008083601f840112613dfc57600080fd5b5081356001600160401b03811115613e1357600080fd5b602083019150836020828501011115613e2b57600080fd5b9250929050565b600080600080600060808688031215613e4a57600080fd5b8535613e5581613dca565b94506020860135613e6581613dca565b93506040860135925060608601356001600160401b03811115613e8757600080fd5b613e9388828901613dea565b969995985093965092949392505050565b60008060408385031215613eb757600080fd5b8235613ec281613dca565b946020939093013593505050565b600060208284031215613ee257600080fd5b5035919050565b60008060408385031215613efc57600080fd5b823591506020830135613f0e81613dca565b809150509250929050565b600080600060608486031215613f2e57600080fd5b8335613f3981613dca565b92506020840135613f4981613dca565b929592945050506040919091013590565b634e487b7160e01b600052604160045260246000fd5b60405161014081016001600160401b0381118282101715613f9357613f93613f5a565b60405290565b604051601f8201601f191681016001600160401b0381118282101715613fc157613fc1613f5a565b604052919050565b600060a08284031215613fdb57600080fd5b60405160a081018181106001600160401b0382111715613ffd57613ffd613f5a565b604052823561400b81613dca565b808252506020830135602082015260408301356040820152606083013561403181613dca565b60608201526080928301359281019290925250919050565b60006020828403121561405b57600080fd5b8135611abc81613dca565b634e487b7160e01b600052602160045260246000fd5b6002811061409a57634e487b7160e01b600052602160045260246000fd5b9052565b8051825260208101516140bc60208401826001600160a01b03169052565b5060408101516140d760408401826001600160a01b03169052565b50606081015160608301526080810151608083015260a081015160a083015260c081015160c083015260e081015161411a60e08401826001600160a01b03169052565b50610100818101519083015261012080820151611b068285018261407c565b61014081016107df828461409e565b600080600080600060a0868803121561416057600080fd5b8535945060208601359350604086013561417981613dca565b94979396509394606081013594506080013592915050565b600080600080608085870312156141a757600080fd5b84359350602085013592506040850135915060608501356141c781613dca565b939692955090935050565b60006001600160401b038211156141eb576141eb613f5a565b5060051b60200190565b8035600281106122ac57600080fd5b600082601f83011261421557600080fd5b8135602061422a614225836141d2565b613f99565b828152610140928302850182019282820191908785111561424a57600080fd5b8387015b858110156142f55781818a0312156142665760008081fd5b61426e613f70565b8135815261427d868301613ddf565b86820152604061428e818401613ddf565b90820152606082810135908201526080808301359082015260a0808301359082015260c0808301359082015260e06142c7818401613ddf565b9082015261010082810135908201526101206142e48184016141f5565b90820152845292840192810161424e565b5090979650505050505050565b6000806000806080858703121561431857600080fd5b84356001600160401b0381111561432e57600080fd5b61433a87828801614204565b945050602085013561434b81613dca565b93969395505050506040820135916060013590565b600080600080600060a0868803121561437857600080fd5b85359450602086013561438a81613dca565b93506040860135925060608601356143a181613dca565b949793965091946080013592915050565b60006001600160401b038311156143cb576143cb613f5a565b6143de601f8401601f1916602001613f99565b90508281528383830111156143f257600080fd5b828260208301376000602084830101529392505050565b600080600080600060a0868803121561442157600080fd5b853561442c81613dca565b94506020868101356001600160401b038082111561444957600080fd5b818901915089601f83011261445d57600080fd5b61446b8a83358585016143b2565b9650604089013591508082111561448157600080fd5b508701601f8101891361449357600080fd5b80356144a1614225826141d2565b81815260059190911b8201830190838101908b8311156144c057600080fd5b928401925b828410156144e75783356144d881613dca565b825292840192908401906144c5565b80975050505050506143a160608701613ddf565b6000806040838503121561450e57600080fd5b50508035926020909101359150565b6000806020838503121561453057600080fd5b82356001600160401b0381111561454657600080fd5b61455285828601613dea565b90969095509350505050565b6000806020838503121561457157600080fd5b82356001600160401b038082111561458857600080fd5b818501915085601f83011261459c57600080fd5b8135818111156145ab57600080fd5b8660208260051b85010111156145c057600080fd5b60209290920196919550909350505050565b60005b838110156145ed5781810151838201526020016145d5565b83811115611b065750506000910152565b600081518084526146168160208601602086016145d2565b601f01601f19169290920160200192915050565b6000602080830181845280855180835260408601915060408160051b870101925083870160005b8281101561467f57603f1988860301845261466d8583516145fe565b94509285019290850190600101614651565b5092979650505050505050565b600080600080608085870312156146a257600080fd5b8435935060208501356146b481613dca565b925060408501356146c481613dca565b9396929550929360600135925050565b600082601f8301126146e557600080fd5b813560206146f5614225836141d2565b82815260059290921b8401810191818101908684111561471457600080fd5b8286015b8481101561472f5780358352918301918301614718565b509695505050505050565b600082601f83011261474b57600080fd5b611abc838335602085016143b2565b600080600080600060a0868803121561477257600080fd5b853561477d81613dca565b9450602086013561478d81613dca565b935060408601356001600160401b03808211156147a957600080fd5b6147b589838a016146d4565b945060608801359150808211156147cb57600080fd5b6147d789838a016146d4565b935060808801359150808211156147ed57600080fd5b506147fa8882890161473a565b9150509295509295909350565b602081526000611abc60208301846145fe565b600080600080600060a0868803121561483257600080fd5b853561483d81613dca565b9450602086013561484d81613dca565b9350604086013592506060860135915060808601356001600160401b0381111561487657600080fd5b6147fa8882890161473a565b600080600080600060a0868803121561489a57600080fd5b85356001600160401b038111156148b057600080fd5b6148bc88828901614204565b955050602086013561438a81613dca565b6020808252825182820181905260009190848201906040850190845b81811015614910576148fc83855161409e565b9284019261014092909201916001016148e9565b50909695505050505050565b60208082526006908201526510a7aba722a960d11b604082015260600190565b634e487b7160e01b600052603260045260246000fd5b634e487b7160e01b600052601160045260246000fd5b600060001982141561497c5761497c614952565b5060010190565b60208082526029908201527f494e56414c4944205155414e54495459202d206d75737420626520677265617460408201526806572207468616e20360bc1b606082015260800190565b600082198211156149df576149df614952565b500190565b602080825260039082015262444e4560e81b604082015260600190565b600082821015614a1357614a13614952565b500390565b6000816000190483118215151615614a3257614a32614952565b500290565b6000808335601e19843603018112614a4e57600080fd5b8301803591506001600160401b03821115614a6857600080fd5b602001915036819003821315613e2b57600080fd5b600181811c90821680614a9157607f821691505b602082108114156111c757634e487b7160e01b600052602260045260246000fd5b600060208284031215614ac457600080fd5b81518015158114611abc57600080fd5b600060208284031215614ae657600080fd5b5051919050565b600060208284031215614aff57600080fd5b8151611abc81613dca565b6020808252602b908201527f496e697469616c697a61626c653a20636f6e7472616374206973206e6f74206960408201526a6e697469616c697a696e6760a81b606082015260800190565b60008251614b678184602087016145d2565b9190910192915050565b7f416363657373436f6e74726f6c3a206163636f756e7420000000000000000000815260008351614ba98160178501602088016145d2565b7001034b99036b4b9b9b4b733903937b6329607d1b6017918401918201528351614bda8160288401602088016145d2565b01602801949350505050565b600082614c0357634e487b7160e01b600052601260045260246000fd5b500490565b60008060408385031215614c1b57600080fd5b8251614c2681613dca565b6020939093015192949293505050565b600081614c4557614c45614952565b506000190190565b634e487b7160e01b600052603160045260246000fdfe86d5cf0a6bdc8d859ba3bdc97043337c82a0e609035f378e419298b6a3e00ae6f94103142c1baabe9ac2b5d1487bf783de9e69cfeea9a72f5c9c94afd7877b8c416464726573733a206c6f772d6c6576656c2064656c65676174652063616c6c206661696c6564a2646970667358221220b85456a7122900d74280f08ed6505e5c73e7a3385d970fce55447eb22959554e64736f6c634300080b0033496e697469616c697a61626c653a20636f6e7472616374206973206e6f742069",
  "linkReferences": {},
  "deployedLinkReferences": {}
}