{
  "_format": "hh-sol-artifact-1",
  "contractName": "SynsClub",
  "sourceName": "contracts/v1/SynsClub.sol",
  "abi": [
    {
      "inputs": [
        {
          "internalType": "address",
          "name": "_nativeTokenWrapper",
          "type": "address"
        }
      ],
      "stateMutability": "nonpayable",
      "type": "constructor"
    },
    {
      "anonymous": false,
      "inputs": [
        {
          "indexed": true,
          "internalType": "address",
          "name": "clubOwner",
          "type": "address"
        },
        {
          "components": [
            {
              "internalType": "uint256",
              "name": "clubId",
              "type": "uint256"
            },
            {
              "internalType": "address",
              "name": "clubOwner",
              "type": "address"
            },
            {
              "internalType": "uint256",
              "name": "date",
              "type": "uint256"
            },
            {
              "internalType": "address",
              "name": "currency",
              "type": "address"
            },
            {
              "internalType": "uint256",
              "name": "totalMembers",
              "type": "uint256"
            },
            {
              "internalType": "uint256",
              "name": "totalActiveMembers",
              "type": "uint256"
            }
          ],
          "indexed": false,
          "internalType": "struct ISynsClub.Club",
          "name": "club",
          "type": "tuple"
        }
      ],
      "name": "ClubCreated",
      "type": "event"
    },
    {
      "anonymous": false,
      "inputs": [
        {
          "indexed": true,
          "internalType": "uint256",
          "name": "clubId",
          "type": "uint256"
        },
        {
          "indexed": true,
          "internalType": "uint256",
          "name": "tierId",
          "type": "uint256"
        },
        {
          "indexed": false,
          "internalType": "uint256",
          "name": "totalDeactivatedMembers",
          "type": "uint256"
        }
      ],
      "name": "DeactivateMembersInTier",
      "type": "event"
    },
    {
      "anonymous": false,
      "inputs": [
        {
          "indexed": false,
          "internalType": "uint8",
          "name": "version",
          "type": "uint8"
        }
      ],
      "name": "Initialized",
      "type": "event"
    },
    {
      "anonymous": false,
      "inputs": [
        {
          "indexed": true,
          "internalType": "uint256",
          "name": "subscriptionId",
          "type": "uint256"
        },
        {
          "indexed": true,
          "internalType": "uint256",
          "name": "tierId",
          "type": "uint256"
        },
        {
          "indexed": false,
          "internalType": "address",
          "name": "subscriber",
          "type": "address"
        },
        {
          "components": [
            {
              "internalType": "uint256",
              "name": "subscriptionId",
              "type": "uint256"
            },
            {
              "internalType": "uint256",
              "name": "clubId",
              "type": "uint256"
            },
            {
              "internalType": "uint256",
              "name": "tierId",
              "type": "uint256"
            },
            {
              "internalType": "address",
              "name": "subscriber",
              "type": "address"
            },
            {
              "internalType": "uint256",
              "name": "dateStart",
              "type": "uint256"
            },
            {
              "internalType": "uint256",
              "name": "nextPayment",
              "type": "uint256"
            },
            {
              "internalType": "uint256",
              "name": "royaltyStars",
              "type": "uint256"
            },
            {
              "internalType": "bool",
              "name": "activeMember",
              "type": "bool"
            }
          ],
          "indexed": false,
          "internalType": "struct ISynsClub.Subscription",
          "name": "subscriptions",
          "type": "tuple"
        }
      ],
      "name": "MonthlyTierFee",
      "type": "event"
    },
    {
      "anonymous": false,
      "inputs": [
        {
          "indexed": true,
          "internalType": "uint256",
          "name": "subscriptionId",
          "type": "uint256"
        },
        {
          "indexed": true,
          "internalType": "uint256",
          "name": "tierId",
          "type": "uint256"
        },
        {
          "indexed": false,
          "internalType": "address",
          "name": "subscriber",
          "type": "address"
        },
        {
          "components": [
            {
              "internalType": "uint256",
              "name": "subscriptionId",
              "type": "uint256"
            },
            {
              "internalType": "uint256",
              "name": "clubId",
              "type": "uint256"
            },
            {
              "internalType": "uint256",
              "name": "tierId",
              "type": "uint256"
            },
            {
              "internalType": "address",
              "name": "subscriber",
              "type": "address"
            },
            {
              "internalType": "uint256",
              "name": "dateStart",
              "type": "uint256"
            },
            {
              "internalType": "uint256",
              "name": "nextPayment",
              "type": "uint256"
            },
            {
              "internalType": "uint256",
              "name": "royaltyStars",
              "type": "uint256"
            },
            {
              "internalType": "bool",
              "name": "activeMember",
              "type": "bool"
            }
          ],
          "indexed": false,
          "internalType": "struct ISynsClub.Subscription",
          "name": "subscription",
          "type": "tuple"
        }
      ],
      "name": "NewSubscription",
      "type": "event"
    },
    {
      "anonymous": false,
      "inputs": [
        {
          "indexed": true,
          "internalType": "uint256",
          "name": "subscriptionId",
          "type": "uint256"
        },
        {
          "indexed": true,
          "internalType": "uint256",
          "name": "tierId",
          "type": "uint256"
        },
        {
          "indexed": false,
          "internalType": "address",
          "name": "subscriber",
          "type": "address"
        },
        {
          "components": [
            {
              "internalType": "uint256",
              "name": "subscriptionId",
              "type": "uint256"
            },
            {
              "internalType": "uint256",
              "name": "clubId",
              "type": "uint256"
            },
            {
              "internalType": "uint256",
              "name": "tierId",
              "type": "uint256"
            },
            {
              "internalType": "address",
              "name": "subscriber",
              "type": "address"
            },
            {
              "internalType": "uint256",
              "name": "dateStart",
              "type": "uint256"
            },
            {
              "internalType": "uint256",
              "name": "nextPayment",
              "type": "uint256"
            },
            {
              "internalType": "uint256",
              "name": "royaltyStars",
              "type": "uint256"
            },
            {
              "internalType": "bool",
              "name": "activeMember",
              "type": "bool"
            }
          ],
          "indexed": false,
          "internalType": "struct ISynsClub.Subscription",
          "name": "subscription",
          "type": "tuple"
        }
      ],
      "name": "ReSubscription",
      "type": "event"
    },
    {
      "anonymous": false,
      "inputs": [
        {
          "indexed": true,
          "internalType": "bytes32",
          "name": "role",
          "type": "bytes32"
        },
        {
          "indexed": true,
          "internalType": "bytes32",
          "name": "previousAdminRole",
          "type": "bytes32"
        },
        {
          "indexed": true,
          "internalType": "bytes32",
          "name": "newAdminRole",
          "type": "bytes32"
        }
      ],
      "name": "RoleAdminChanged",
      "type": "event"
    },
    {
      "anonymous": false,
      "inputs": [
        {
          "indexed": true,
          "internalType": "bytes32",
          "name": "role",
          "type": "bytes32"
        },
        {
          "indexed": true,
          "internalType": "address",
          "name": "account",
          "type": "address"
        },
        {
          "indexed": true,
          "internalType": "address",
          "name": "sender",
          "type": "address"
        }
      ],
      "name": "RoleGranted",
      "type": "event"
    },
    {
      "anonymous": false,
      "inputs": [
        {
          "indexed": true,
          "internalType": "bytes32",
          "name": "role",
          "type": "bytes32"
        },
        {
          "indexed": true,
          "internalType": "address",
          "name": "account",
          "type": "address"
        },
        {
          "indexed": true,
          "internalType": "address",
          "name": "sender",
          "type": "address"
        }
      ],
      "name": "RoleRevoked",
      "type": "event"
    },
    {
      "anonymous": false,
      "inputs": [
        {
          "indexed": true,
          "internalType": "uint256",
          "name": "subscriptionId",
          "type": "uint256"
        },
        {
          "indexed": true,
          "internalType": "uint256",
          "name": "tierId",
          "type": "uint256"
        },
        {
          "indexed": false,
          "internalType": "address",
          "name": "subscriber",
          "type": "address"
        },
        {
          "components": [
            {
              "internalType": "uint256",
              "name": "subscriptionId",
              "type": "uint256"
            },
            {
              "internalType": "uint256",
              "name": "clubId",
              "type": "uint256"
            },
            {
              "internalType": "uint256",
              "name": "tierId",
              "type": "uint256"
            },
            {
              "internalType": "address",
              "name": "subscriber",
              "type": "address"
            },
            {
              "internalType": "uint256",
              "name": "dateStart",
              "type": "uint256"
            },
            {
              "internalType": "uint256",
              "name": "nextPayment",
              "type": "uint256"
            },
            {
              "internalType": "uint256",
              "name": "royaltyStars",
              "type": "uint256"
            },
            {
              "internalType": "bool",
              "name": "activeMember",
              "type": "bool"
            }
          ],
          "indexed": false,
          "internalType": "struct ISynsClub.Subscription[]",
          "name": "subscriptions",
          "type": "tuple[]"
        }
      ],
      "name": "SubscriptionCancel",
      "type": "event"
    },
    {
      "anonymous": false,
      "inputs": [
        {
          "indexed": true,
          "internalType": "uint256",
          "name": "tierId",
          "type": "uint256"
        },
        {
          "indexed": true,
          "internalType": "address",
          "name": "clubOnwer",
          "type": "address"
        },
        {
          "components": [
            {
              "internalType": "uint256",
              "name": "tierId",
              "type": "uint256"
            },
            {
              "internalType": "uint256",
              "name": "tierFee",
              "type": "uint256"
            },
            {
              "internalType": "uint256",
              "name": "totalMembers",
              "type": "uint256"
            },
            {
              "internalType": "uint256",
              "name": "totalActiveMembers",
              "type": "uint256"
            },
            {
              "internalType": "uint256",
              "name": "sizeLimit",
              "type": "uint256"
            },
            {
              "internalType": "string",
              "name": "tierData",
              "type": "string"
            }
          ],
          "indexed": false,
          "internalType": "struct ISynsClub.Tier",
          "name": "newTier",
          "type": "tuple"
        }
      ],
      "name": "TierAdded",
      "type": "event"
    },
    {
      "anonymous": false,
      "inputs": [
        {
          "indexed": true,
          "internalType": "uint256",
          "name": "tierId",
          "type": "uint256"
        },
        {
          "indexed": true,
          "internalType": "address",
          "name": "clubOwner",
          "type": "address"
        },
        {
          "components": [
            {
              "internalType": "uint256",
              "name": "tierId",
              "type": "uint256"
            },
            {
              "internalType": "uint256",
              "name": "tierFee",
              "type": "uint256"
            },
            {
              "internalType": "uint256",
              "name": "totalMembers",
              "type": "uint256"
            },
            {
              "internalType": "uint256",
              "name": "totalActiveMembers",
              "type": "uint256"
            },
            {
              "internalType": "uint256",
              "name": "sizeLimit",
              "type": "uint256"
            },
            {
              "internalType": "string",
              "name": "tierData",
              "type": "string"
            }
          ],
          "indexed": false,
          "internalType": "struct ISynsClub.Tier[]",
          "name": "tiers",
          "type": "tuple[]"
        }
      ],
      "name": "TierDeleted",
      "type": "event"
    },
    {
      "anonymous": false,
      "inputs": [
        {
          "indexed": true,
          "internalType": "uint256",
          "name": "tierId",
          "type": "uint256"
        },
        {
          "indexed": true,
          "internalType": "address",
          "name": "clubOwner",
          "type": "address"
        },
        {
          "components": [
            {
              "internalType": "uint256",
              "name": "tierId",
              "type": "uint256"
            },
            {
              "internalType": "uint256",
              "name": "tierFee",
              "type": "uint256"
            },
            {
              "internalType": "uint256",
              "name": "totalMembers",
              "type": "uint256"
            },
            {
              "internalType": "uint256",
              "name": "totalActiveMembers",
              "type": "uint256"
            },
            {
              "internalType": "uint256",
              "name": "sizeLimit",
              "type": "uint256"
            },
            {
              "internalType": "string",
              "name": "tierData",
              "type": "string"
            }
          ],
          "indexed": false,
          "internalType": "struct ISynsClub.Tier",
          "name": "updatedTier",
          "type": "tuple"
        }
      ],
      "name": "TierUpdated",
      "type": "event"
    },
    {
      "inputs": [],
      "name": "CLUB_OWNER_ROLE",
      "outputs": [
        {
          "internalType": "bytes32",
          "name": "",
          "type": "bytes32"
        }
      ],
      "stateMutability": "view",
      "type": "function"
    },
    {
      "inputs": [],
      "name": "DEFAULT_ADMIN_ROLE",
      "outputs": [
        {
          "internalType": "bytes32",
          "name": "",
          "type": "bytes32"
        }
      ],
      "stateMutability": "view",
      "type": "function"
    },
    {
      "inputs": [],
      "name": "SIX_DAY_EARLY",
      "outputs": [
        {
          "internalType": "uint256",
          "name": "",
          "type": "uint256"
        }
      ],
      "stateMutability": "view",
      "type": "function"
    },
    {
      "inputs": [],
      "name": "THREE_DAY_MERCI",
      "outputs": [
        {
          "internalType": "uint256",
          "name": "",
          "type": "uint256"
        }
      ],
      "stateMutability": "view",
      "type": "function"
    },
    {
      "inputs": [],
      "name": "TIER_PERIOD",
      "outputs": [
        {
          "internalType": "uint256",
          "name": "",
          "type": "uint256"
        }
      ],
      "stateMutability": "view",
      "type": "function"
    },
    {
      "inputs": [
        {
          "components": [
            {
              "internalType": "uint256",
              "name": "clubId",
              "type": "uint256"
            },
            {
              "internalType": "uint256",
              "name": "tierFee",
              "type": "uint256"
            },
            {
              "internalType": "uint256",
              "name": "sizeLimit",
              "type": "uint256"
            },
            {
              "internalType": "string",
              "name": "tierData",
              "type": "string"
            }
          ],
          "internalType": "struct ISynsClub.AddTierParam",
          "name": "_param",
          "type": "tuple"
        }
      ],
      "name": "addTier",
      "outputs": [],
      "stateMutability": "nonpayable",
      "type": "function"
    },
    {
      "inputs": [
        {
          "internalType": "uint256",
          "name": "_clubId",
          "type": "uint256"
        },
        {
          "internalType": "address",
          "name": "_member",
          "type": "address"
        }
      ],
      "name": "checkIsActiveMember",
      "outputs": [
        {
          "internalType": "bool",
          "name": "",
          "type": "bool"
        },
        {
          "internalType": "uint256",
          "name": "",
          "type": "uint256"
        },
        {
          "internalType": "uint256",
          "name": "",
          "type": "uint256"
        }
      ],
      "stateMutability": "view",
      "type": "function"
    },
    {
      "inputs": [
        {
          "internalType": "uint256",
          "name": "_clubId",
          "type": "uint256"
        },
        {
          "internalType": "address",
          "name": "_subscriber",
          "type": "address"
        }
      ],
      "name": "checkIsSubsribed",
      "outputs": [
        {
          "internalType": "bool",
          "name": "",
          "type": "bool"
        }
      ],
      "stateMutability": "view",
      "type": "function"
    },
    {
      "inputs": [
        {
          "internalType": "uint256",
          "name": "_clubId",
          "type": "uint256"
        },
        {
          "internalType": "uint256",
          "name": "_tierId",
          "type": "uint256"
        }
      ],
      "name": "checkLimit",
      "outputs": [],
      "stateMutability": "view",
      "type": "function"
    },
    {
      "inputs": [],
      "name": "contractType",
      "outputs": [
        {
          "internalType": "bytes32",
          "name": "",
          "type": "bytes32"
        }
      ],
      "stateMutability": "pure",
      "type": "function"
    },
    {
      "inputs": [],
      "name": "contractURI",
      "outputs": [
        {
          "internalType": "string",
          "name": "",
          "type": "string"
        }
      ],
      "stateMutability": "view",
      "type": "function"
    },
    {
      "inputs": [],
      "name": "contractVersion",
      "outputs": [
        {
          "internalType": "uint8",
          "name": "",
          "type": "uint8"
        }
      ],
      "stateMutability": "pure",
      "type": "function"
    },
    {
      "inputs": [
        {
          "internalType": "uint256",
          "name": "_clubId",
          "type": "uint256"
        },
        {
          "internalType": "uint256",
          "name": "_tierId",
          "type": "uint256"
        }
      ],
      "name": "deactivateMembersInTier",
      "outputs": [],
      "stateMutability": "nonpayable",
      "type": "function"
    },
    {
      "inputs": [
        {
          "internalType": "uint256",
          "name": "_clubId",
          "type": "uint256"
        },
        {
          "internalType": "uint256",
          "name": "_tierId",
          "type": "uint256"
        }
      ],
      "name": "deleteTier",
      "outputs": [],
      "stateMutability": "nonpayable",
      "type": "function"
    },
    {
      "inputs": [
        {
          "internalType": "uint256",
          "name": "_clubId",
          "type": "uint256"
        }
      ],
      "name": "getClubAt",
      "outputs": [
        {
          "components": [
            {
              "internalType": "uint256",
              "name": "clubId",
              "type": "uint256"
            },
            {
              "internalType": "address",
              "name": "clubOwner",
              "type": "address"
            },
            {
              "internalType": "uint256",
              "name": "date",
              "type": "uint256"
            },
            {
              "internalType": "address",
              "name": "currency",
              "type": "address"
            },
            {
              "internalType": "uint256",
              "name": "totalMembers",
              "type": "uint256"
            },
            {
              "internalType": "uint256",
              "name": "totalActiveMembers",
              "type": "uint256"
            }
          ],
          "internalType": "struct ISynsClub.Club",
          "name": "",
          "type": "tuple"
        }
      ],
      "stateMutability": "view",
      "type": "function"
    },
    {
      "inputs": [
        {
          "internalType": "bytes32",
          "name": "role",
          "type": "bytes32"
        }
      ],
      "name": "getRoleAdmin",
      "outputs": [
        {
          "internalType": "bytes32",
          "name": "",
          "type": "bytes32"
        }
      ],
      "stateMutability": "view",
      "type": "function"
    },
    {
      "inputs": [
        {
          "internalType": "bytes32",
          "name": "role",
          "type": "bytes32"
        },
        {
          "internalType": "uint256",
          "name": "index",
          "type": "uint256"
        }
      ],
      "name": "getRoleMember",
      "outputs": [
        {
          "internalType": "address",
          "name": "",
          "type": "address"
        }
      ],
      "stateMutability": "view",
      "type": "function"
    },
    {
      "inputs": [
        {
          "internalType": "bytes32",
          "name": "role",
          "type": "bytes32"
        }
      ],
      "name": "getRoleMemberCount",
      "outputs": [
        {
          "internalType": "uint256",
          "name": "",
          "type": "uint256"
        }
      ],
      "stateMutability": "view",
      "type": "function"
    },
    {
      "inputs": [
        {
          "internalType": "uint256",
          "name": "_clubId",
          "type": "uint256"
        },
        {
          "internalType": "uint256",
          "name": "_tierId",
          "type": "uint256"
        },
        {
          "internalType": "uint256",
          "name": "_subscriptionId",
          "type": "uint256"
        }
      ],
      "name": "getRoyaltyDuration",
      "outputs": [
        {
          "internalType": "uint256",
          "name": "",
          "type": "uint256"
        }
      ],
      "stateMutability": "view",
      "type": "function"
    },
    {
      "inputs": [
        {
          "internalType": "uint256",
          "name": "_clubId",
          "type": "uint256"
        },
        {
          "internalType": "uint256",
          "name": "_tierId",
          "type": "uint256"
        },
        {
          "internalType": "uint256",
          "name": "_subscriptionId",
          "type": "uint256"
        }
      ],
      "name": "getSubscription",
      "outputs": [
        {
          "components": [
            {
              "internalType": "uint256",
              "name": "subscriptionId",
              "type": "uint256"
            },
            {
              "internalType": "uint256",
              "name": "clubId",
              "type": "uint256"
            },
            {
              "internalType": "uint256",
              "name": "tierId",
              "type": "uint256"
            },
            {
              "internalType": "address",
              "name": "subscriber",
              "type": "address"
            },
            {
              "internalType": "uint256",
              "name": "dateStart",
              "type": "uint256"
            },
            {
              "internalType": "uint256",
              "name": "nextPayment",
              "type": "uint256"
            },
            {
              "internalType": "uint256",
              "name": "royaltyStars",
              "type": "uint256"
            },
            {
              "internalType": "bool",
              "name": "activeMember",
              "type": "bool"
            }
          ],
          "internalType": "struct ISynsClub.Subscription",
          "name": "",
          "type": "tuple"
        }
      ],
      "stateMutability": "view",
      "type": "function"
    },
    {
      "inputs": [
        {
          "internalType": "uint256",
          "name": "_clubId",
          "type": "uint256"
        },
        {
          "internalType": "uint256",
          "name": "_tierId",
          "type": "uint256"
        }
      ],
      "name": "getSubscriptionsAt",
      "outputs": [
        {
          "components": [
            {
              "internalType": "uint256",
              "name": "subscriptionId",
              "type": "uint256"
            },
            {
              "internalType": "uint256",
              "name": "clubId",
              "type": "uint256"
            },
            {
              "internalType": "uint256",
              "name": "tierId",
              "type": "uint256"
            },
            {
              "internalType": "address",
              "name": "subscriber",
              "type": "address"
            },
            {
              "internalType": "uint256",
              "name": "dateStart",
              "type": "uint256"
            },
            {
              "internalType": "uint256",
              "name": "nextPayment",
              "type": "uint256"
            },
            {
              "internalType": "uint256",
              "name": "royaltyStars",
              "type": "uint256"
            },
            {
              "internalType": "bool",
              "name": "activeMember",
              "type": "bool"
            }
          ],
          "internalType": "struct ISynsClub.Subscription[]",
          "name": "",
          "type": "tuple[]"
        }
      ],
      "stateMutability": "view",
      "type": "function"
    },
    {
      "inputs": [
        {
          "internalType": "uint256",
          "name": "_clubId",
          "type": "uint256"
        },
        {
          "internalType": "uint256",
          "name": "_tierId",
          "type": "uint256"
        }
      ],
      "name": "getTier",
      "outputs": [
        {
          "components": [
            {
              "internalType": "uint256",
              "name": "tierId",
              "type": "uint256"
            },
            {
              "internalType": "uint256",
              "name": "tierFee",
              "type": "uint256"
            },
            {
              "internalType": "uint256",
              "name": "totalMembers",
              "type": "uint256"
            },
            {
              "internalType": "uint256",
              "name": "totalActiveMembers",
              "type": "uint256"
            },
            {
              "internalType": "uint256",
              "name": "sizeLimit",
              "type": "uint256"
            },
            {
              "internalType": "string",
              "name": "tierData",
              "type": "string"
            }
          ],
          "internalType": "struct ISynsClub.Tier",
          "name": "",
          "type": "tuple"
        }
      ],
      "stateMutability": "view",
      "type": "function"
    },
    {
      "inputs": [
        {
          "internalType": "uint256",
          "name": "_clubId",
          "type": "uint256"
        }
      ],
      "name": "getTiersAt",
      "outputs": [
        {
          "components": [
            {
              "internalType": "uint256",
              "name": "tierId",
              "type": "uint256"
            },
            {
              "internalType": "uint256",
              "name": "tierFee",
              "type": "uint256"
            },
            {
              "internalType": "uint256",
              "name": "totalMembers",
              "type": "uint256"
            },
            {
              "internalType": "uint256",
              "name": "totalActiveMembers",
              "type": "uint256"
            },
            {
              "internalType": "uint256",
              "name": "sizeLimit",
              "type": "uint256"
            },
            {
              "internalType": "string",
              "name": "tierData",
              "type": "string"
            }
          ],
          "internalType": "struct ISynsClub.Tier[]",
          "name": "",
          "type": "tuple[]"
        }
      ],
      "stateMutability": "view",
      "type": "function"
    },
    {
      "inputs": [
        {
          "internalType": "bytes32",
          "name": "role",
          "type": "bytes32"
        },
        {
          "internalType": "address",
          "name": "account",
          "type": "address"
        }
      ],
      "name": "grantRole",
      "outputs": [],
      "stateMutability": "nonpayable",
      "type": "function"
    },
    {
      "inputs": [
        {
          "internalType": "bytes32",
          "name": "role",
          "type": "bytes32"
        },
        {
          "internalType": "address",
          "name": "account",
          "type": "address"
        }
      ],
      "name": "hasRole",
      "outputs": [
        {
          "internalType": "bool",
          "name": "",
          "type": "bool"
        }
      ],
      "stateMutability": "view",
      "type": "function"
    },
    {
      "inputs": [
        {
          "internalType": "address",
          "name": "_defaultAdmin",
          "type": "address"
        },
        {
          "internalType": "string",
          "name": "_contrtactURI",
          "type": "string"
        },
        {
          "internalType": "address[]",
          "name": "_trustedForwarders",
          "type": "address[]"
        }
      ],
      "name": "initialize",
      "outputs": [],
      "stateMutability": "nonpayable",
      "type": "function"
    },
    {
      "inputs": [
        {
          "internalType": "address",
          "name": "forwarder",
          "type": "address"
        }
      ],
      "name": "isTrustedForwarder",
      "outputs": [
        {
          "internalType": "bool",
          "name": "",
          "type": "bool"
        }
      ],
      "stateMutability": "view",
      "type": "function"
    },
    {
      "inputs": [
        {
          "components": [
            {
              "internalType": "uint256",
              "name": "clubId",
              "type": "uint256"
            },
            {
              "internalType": "address",
              "name": "clubOwner",
              "type": "address"
            },
            {
              "internalType": "uint256",
              "name": "tierId",
              "type": "uint256"
            },
            {
              "internalType": "uint256",
              "name": "tierFee",
              "type": "uint256"
            },
            {
              "internalType": "address",
              "name": "currency",
              "type": "address"
            },
            {
              "internalType": "uint256",
              "name": "subscriptionId",
              "type": "uint256"
            }
          ],
          "internalType": "struct ISynsClub.MonthlyTierFeeParam",
          "name": "_param",
          "type": "tuple"
        }
      ],
      "name": "payMonthlyTierFee",
      "outputs": [],
      "stateMutability": "payable",
      "type": "function"
    },
    {
      "inputs": [
        {
          "internalType": "bytes32",
          "name": "role",
          "type": "bytes32"
        },
        {
          "internalType": "address",
          "name": "account",
          "type": "address"
        }
      ],
      "name": "renounceRole",
      "outputs": [],
      "stateMutability": "nonpayable",
      "type": "function"
    },
    {
      "inputs": [
        {
          "internalType": "bytes32",
          "name": "role",
          "type": "bytes32"
        },
        {
          "internalType": "address",
          "name": "account",
          "type": "address"
        }
      ],
      "name": "revokeRole",
      "outputs": [],
      "stateMutability": "nonpayable",
      "type": "function"
    },
    {
      "inputs": [
        {
          "internalType": "address",
          "name": "_currency",
          "type": "address"
        }
      ],
      "name": "startClub",
      "outputs": [],
      "stateMutability": "nonpayable",
      "type": "function"
    },
    {
      "inputs": [
        {
          "components": [
            {
              "internalType": "uint256",
              "name": "clubId",
              "type": "uint256"
            },
            {
              "internalType": "address",
              "name": "clubOwner",
              "type": "address"
            },
            {
              "internalType": "uint256",
              "name": "tierId",
              "type": "uint256"
            },
            {
              "internalType": "uint256",
              "name": "tierFee",
              "type": "uint256"
            },
            {
              "internalType": "address",
              "name": "currency",
              "type": "address"
            }
          ],
          "internalType": "struct ISynsClub.SubscribeParam",
          "name": "_param",
          "type": "tuple"
        }
      ],
      "name": "subsribe",
      "outputs": [],
      "stateMutability": "payable",
      "type": "function"
    },
    {
      "inputs": [
        {
          "internalType": "bytes4",
          "name": "interfaceId",
          "type": "bytes4"
        }
      ],
      "name": "supportsInterface",
      "outputs": [
        {
          "internalType": "bool",
          "name": "",
          "type": "bool"
        }
      ],
      "stateMutability": "view",
      "type": "function"
    },
    {
      "inputs": [],
      "name": "totalNumberClubs",
      "outputs": [
        {
          "internalType": "uint256",
          "name": "",
          "type": "uint256"
        }
      ],
      "stateMutability": "view",
      "type": "function"
    },
    {
      "inputs": [
        {
          "internalType": "uint256",
          "name": "_clubId",
          "type": "uint256"
        },
        {
          "internalType": "uint256",
          "name": "_tierId",
          "type": "uint256"
        },
        {
          "internalType": "uint256",
          "name": "_subscriptionId",
          "type": "uint256"
        }
      ],
      "name": "unsubscribe",
      "outputs": [],
      "stateMutability": "nonpayable",
      "type": "function"
    },
    {
      "inputs": [
        {
          "components": [
            {
              "internalType": "uint256",
              "name": "clubId",
              "type": "uint256"
            },
            {
              "internalType": "uint256",
              "name": "tierId",
              "type": "uint256"
            },
            {
              "internalType": "uint256",
              "name": "tierFee",
              "type": "uint256"
            },
            {
              "internalType": "uint256",
              "name": "sizeLimit",
              "type": "uint256"
            },
            {
              "internalType": "string",
              "name": "tierData",
              "type": "string"
            }
          ],
          "internalType": "struct ISynsClub.UpdateTierParam",
          "name": "_param",
          "type": "tuple"
        }
      ],
      "name": "updateTier",
      "outputs": [],
      "stateMutability": "nonpayable",
      "type": "function"
    },
    {
      "stateMutability": "payable",
      "type": "receive"
    }
  ],
  "bytecode": "0x60a06040523480156200001157600080fd5b5060405162005a6638038062005a6683398101604081905262000034916200045b565b600054610100900460ff1615808015620000555750600054600160ff909116105b806200008557506200007230620001bb60201b620036af1760201c565b15801562000085575060005460ff166001145b620000ee5760405162461bcd60e51b815260206004820152602e60248201527f496e697469616c697a61626c653a20636f6e747261637420697320616c72656160448201526d191e481a5b9a5d1a585b1a5e995960921b60648201526084015b60405180910390fd5b6000805460ff19166001179055801562000112576000805461ff0019166101001790555b6200011c620001ca565b6001600160a01b0382166080526200013f60006200013962000232565b6200024e565b6200016c7f23f976b238475310fa8d38b5e5b834d91cc5f657879082905fa12ceab9a587f360006200024e565b8015620001b3576000805461ff0019169055604051600181527f7f26b83ff96e1f2b6a682f133852f6798a09c465da95921460cefb38474024989060200160405180910390a15b50506200048d565b6001600160a01b03163b151590565b600054610100900460ff16620002265760405162461bcd60e51b815260206004820152602b602482015260008051602062005a4683398151915260448201526a6e697469616c697a696e6760a81b6064820152608401620000e5565b620002306200025e565b565b600062000249620002c160201b620036be1760201c565b905090565b6200025a8282620002fc565b5050565b600054610100900460ff16620002ba5760405162461bcd60e51b815260206004820152602b602482015260008051602062005a4683398151915260448201526a6e697469616c697a696e6760a81b6064820152608401620000e5565b6001606555565b3360009081526033602052604081205460ff1615620002e7575060131936013560601c90565b620002496200033f60201b620036ed1760201c565b6200031382826200034360201b620036f11760201c565b600082815260fb602090815260409091206200033a91839062003778620003e9821b17901c565b505050565b3390565b600082815260c9602090815260408083206001600160a01b038516845290915290205460ff166200025a57600082815260c9602090815260408083206001600160a01b03851684529091529020805460ff19166001179055620003a562000232565b6001600160a01b0316816001600160a01b0316837f2f8788117e7eff1d82e926ec794901d17c78024a50270940304540a733656f0d60405160405180910390a45050565b600062000400836001600160a01b03841662000409565b90505b92915050565b6000818152600183016020526040812054620004525750815460018181018455600084815260208082209093018490558454848252828601909352604090209190915562000403565b50600062000403565b6000602082840312156200046e57600080fd5b81516001600160a01b03811681146200048657600080fd5b9392505050565b60805161559d620004a96000396000613987015261559d6000f3fe6080604052600436106102135760003560e01c806391d1485411610118578063ca15c873116100a0578063e6021aa31161006f578063e6021aa314610680578063e8a3d485146106a0578063ec0357fd146106c2578063f553edc3146106d9578063fb50b0b3146106ec57600080fd5b8063ca15c87314610601578063cb2ef6f714610621578063d547741f14610640578063e4a852261461066057600080fd5b8063a217fddf116100e7578063a217fddf1461055f578063a26d144e14610574578063ba5cdbf314610594578063bf99c0dd146105b4578063c36eeea8146105e157600080fd5b806391d14854146104e1578063934c3114146105015780639a10a63414610521578063a0a8e4601461054357600080fd5b80633a105cfb1161019b5780636902fc7a1161016a5780636902fc7a1461042957806379617c5b146104495780637d7ac6061461045c5780638abe10861461047c5780639010d07c146104a957600080fd5b80633a105cfb1461036657806351355cfb1461038657806353ee2f10146103b3578063572b6c05146103f057600080fd5b806326721d53116101e257806326721d53146102d657806328fc61ef146102ed5780632f2ff15d1461030457806334998b551461032657806336568abe1461034657600080fd5b806301ffc9a71461021f5780630ebf8ff014610254578063170df80114610281578063248a9ca3146102a657600080fd5b3661021a57005b600080fd5b34801561022b57600080fd5b5061023f61023a3660046148f3565b610719565b60405190151581526020015b60405180910390f35b34801561026057600080fd5b5061027461026f36600461491d565b610744565b60405161024b9190614997565b34801561028d57600080fd5b5061029861012e5481565b60405190815260200161024b565b3480156102b257600080fd5b506102986102c13660046149e6565b600090815260c9602052604090206001015490565b3480156102e257600080fd5b506102986203f48081565b3480156102f957600080fd5b506102986207e90081565b34801561031057600080fd5b5061032461031f366004614a1b565b610854565b005b34801561033257600080fd5b50610324610341366004614a47565b61087e565b34801561035257600080fd5b50610324610361366004614a1b565b610a33565b34801561037257600080fd5b50610324610381366004614b42565b610ac1565b34801561039257600080fd5b506103a66103a136600461491d565b610c17565b60405161024b9190614cc5565b3480156103bf57600080fd5b506103d36103ce366004614a1b565b610d91565b60408051931515845260208401929092529082015260600161024b565b3480156103fc57600080fd5b5061023f61040b366004614a47565b6001600160a01b031660009081526033602052604090205460ff1690565b34801561043557600080fd5b50610298610444366004614cd8565b611061565b610324610457366004614d04565b6110bd565b34801561046857600080fd5b50610324610477366004614d8a565b61171a565b34801561048857600080fd5b5061049c6104973660046149e6565b611ba2565b60405161024b9190614e1f565b3480156104b557600080fd5b506104c96104c436600461491d565b611d0c565b6040516001600160a01b03909116815260200161024b565b3480156104ed57600080fd5b5061023f6104fc366004614a1b565b611d2b565b34801561050d57600080fd5b5061023f61051c366004614a1b565b611d56565b34801561052d57600080fd5b5061029860008051602061554883398151915281565b34801561054f57600080fd5b506040516001815260200161024b565b34801561056b57600080fd5b50610298600081565b34801561058057600080fd5b5061032461058f36600461491d565b611fd0565b3480156105a057600080fd5b506103246105af36600461491d565b6122a6565b3480156105c057600080fd5b506105d46105cf366004614cd8565b612639565b60405161024b9190614e81565b3480156105ed57600080fd5b506103246105fc36600461491d565b612774565b34801561060d57600080fd5b5061029861061c3660046149e6565b6127c7565b34801561062d57600080fd5b506829bcb73996a1b63ab160b91b610298565b34801561064c57600080fd5b5061032461065b366004614a1b565b6127de565b34801561066c57600080fd5b5061032461067b366004614cd8565b612803565b34801561068c57600080fd5b5061032461069b366004614e90565b612c9e565b3480156106ac57600080fd5b506106b5612ea6565b60405161024b9190614f33565b3480156106ce57600080fd5b506102986228207281565b6103246106e7366004614f46565b612f35565b3480156106f857600080fd5b5061070c6107073660046149e6565b6135fe565b60405161024b9190614fbf565b60006001600160e01b03198216635a05180f60e01b148061073e575061073e8261378d565b92915050565b600082815261012f602052604090206001015460609083906001600160a01b031661078a5760405162461bcd60e51b81526004016107819061500f565b60405180910390fd5b600084815261013160209081526040808320868452825280832080548251818502810185019093528083529193909284015b82821015610847576000848152602090819020604080516101008101825260088602909201805483526001808201548486015260028201549284019290925260038101546001600160a01b0316606084015260048101546080840152600581015460a0840152600681015460c08401526007015460ff16151560e083015290835290920191016107bc565b5050505091505092915050565b600082815260c9602052604090206001015461086f816137c2565b61087983836137d3565b505050565b6108986000805160206155488339815191526104fc6137f5565b156108f75760405162461bcd60e51b815260206004820152602960248201527f214e4f5420414c4c4f574544202d206163636f756e7420616c7265616479206860448201526830b990309031b63ab160b91b6064820152608401610781565b6109166000805160206155488339815191526109116137f5565b6137ff565b600061012e54905060006040518060c001604052808381526020016109396137f5565b6001600160a01b0390811682524260208084019190915286821660408085019190915260006060808601829052608095860182905288825261012f845282822087518155938701516001850180549187166001600160a01b03199283161790559287015160028501558601516003840180549190951692169190911790925591830151600483015560a083015160059092019190915561012e8054929350906109e183615043565b91905055506109ee6137f5565b6001600160a01b03167f1f53a0067cbebf1d891de0cc99760ba9eac449027fe61375783dbebc7483e90b82604051610a269190614fbf565b60405180910390a2505050565b610a3b6137f5565b6001600160a01b0316816001600160a01b031614610ab35760405162461bcd60e51b815260206004820152602f60248201527f416363657373436f6e74726f6c3a2063616e206f6e6c792072656e6f756e636560448201526e103937b632b9903337b91039b2b63360891b6064820152608401610781565b610abd8282613809565b5050565b600054610100900460ff1615808015610ae15750600054600160ff909116105b80610afb5750303b158015610afb575060005460ff166001145b610b5e5760405162461bcd60e51b815260206004820152602e60248201527f496e697469616c697a61626c653a20636f6e747261637420697320616c72656160448201526d191e481a5b9a5d1a585b1a5e995960921b6064820152608401610781565b6000805460ff191660011790558015610b81576000805461ff0019166101001790555b610b8961382b565b610b928261385c565b8251610ba69061012d906020860190614584565b50610bb26000856137ff565b610bcb60008051602061554883398151915260006137ff565b8015610c11576000805461ff0019169055604051600181527f7f26b83ff96e1f2b6a682f133852f6798a09c465da95921460cefb38474024989060200160405180910390a15b50505050565b610c506040518060c001604052806000815260200160008152602001600081526020016000815260200160008152602001606081525090565b600083815261012f602052604090206001015483906001600160a01b0316610c8a5760405162461bcd60e51b81526004016107819061500f565b600084815261013060205260409020805484908110610cab57610cab61505e565b90600052602060002090600602016040518060c00160405290816000820154815260200160018201548152602001600282015481526020016003820154815260200160048201548152602001600582018054610d0690615074565b80601f0160208091040260200160405190810160405280929190818152602001828054610d3290615074565b8015610d7f5780601f10610d5457610100808354040283529160200191610d7f565b820191906000526020600020905b815481529060010190602001808311610d6257829003601f168201915b50505050508152505091505092915050565b6000806000806101306000878152602001908152602001600020805480602002602001604051908101604052809291908181526020016000905b82821015610ec157838290600052602060002090600602016040518060c00160405290816000820154815260200160018201548152602001600282015481526020016003820154815260200160048201548152602001600582018054610e3090615074565b80601f0160208091040260200160405190810160405280929190818152602001828054610e5c90615074565b8015610ea95780601f10610e7e57610100808354040283529160200191610ea9565b820191906000526020600020905b815481529060010190602001808311610e8c57829003601f168201915b50505050508152505081526020019060010190610dcb565b50505050905060005b815181101561104b57600087815261013160209081526040808320848452825280832080548251818502810185019093528083529192909190849084015b82821015610f93576000848152602090819020604080516101008101825260088602909201805483526001808201548486015260028201549284019290925260038101546001600160a01b0316606084015260048101546080840152600581015460a0840152600681015460c08401526007015460ff16151560e08301529083529092019101610f08565b50505050905060005b815181101561103657876001600160a01b0316828281518110610fc157610fc161505e565b6020026020010151606001516001600160a01b0316141561102457818181518110610fee57610fee61505e565b602002602001015160a001514211611012576001965091945090925061105a915050565b6000965091945090925061105a915050565b8061102e81615043565b915050610f9c565b5050808061104390615043565b915050610eca565b50600060001980935093509350505b9250925092565b600083815261012f602052604081206001015484906001600160a01b031661109b5760405162461bcd60e51b81526004016107819061500f565b6110a6858585612639565b608001516110b490426150a9565b95945050505050565b6110c5613894565b8051600081815261012f60205260409020600101546001600160a01b03166110ff5760405162461bcd60e51b81526004016107819061500f565b6000611111836000015161051c6137f5565b90508061114e5760405162461bcd60e51b815260206004820152600b60248201526a0854d55094d0d49250915160aa1b6044820152606401610781565b6111566137f5565b6001600160a01b0316611176846000015185604001518660a00151612639565b606001516001600160a01b0316146111f65760405162461bcd60e51b815260206004820152603e60248201527f2153554253435249424552202d207468652063616c6c6572206973206e6f742060448201527f746865206f776e6572206f662074686520737562736372697074696f6e2e00006064820152608401610781565b8251611201906135fe565b602001516001600160a01b031683602001516001600160a01b0316146112b55760405162461bcd60e51b815260206004820152605f60248201527f214e4f545f4f574e4552202d20636c7562206f776e657220696e20706172616d60448201527f6574657220646f206e6f74206d6174636820636c7562206f776e657220696e2060648201527f636c7562207769746820636c7562496420696e20706172656d656d7465722e00608482015260a401610781565b825160009081526101306020526040908190205490840151106113245760405162461bcd60e51b815260206004820152602160248201527f21544945525f4944202d20696e76616c6964205f706172616d2e7469657249646044820152601760f91b6064820152608401610781565b61133683600001518460400151610c17565b602001518360600151146113c05760405162461bcd60e51b8152602060048201526044602482018190527f21544945525f464545202d207469657246656520696e20706172616d65746572908201527f20646f6573206e6f74206d617463682074686520666565206f6620746865205460648201526334b2b91760e11b608482015260a401610781565b6113d283600001518460400151610744565b518360a00151106114595760405162461bcd60e51b8152602060048201526044602482018190527f21535542534352495054494f4e202d20737562736372697074696f6e206e6f74908201527f20666f756e64207769746820605f706172616d2e737562736372697074696f6e606482015263024b217360e51b608482015260a401610781565b8251600090815261013160209081526040808320818701518452909152812060a08501518154811061148d5761148d61505e565b906000526020600020906008020190506207e90081600501546114b091906150a9565b4210156115305760405162461bcd60e51b815260206004820152604260248201527f214455455f44415445202d2043616e6e6f7420706179206d6f7265207468616e60448201527f20362064617973206561726c696572207468616e207468652064756520646174606482015261329760f11b608482015260a401610781565b60058101546115409060786150c0565b42111561158f5760405162461bcd60e51b815260206004820152601b60248201527f214455455f44415445202d2054455354494e4720505552504f534500000000006044820152606401610781565b6115a961159a6137f5565b856080015186606001516138ee565b6115c86115b46137f5565b856020015186608001518760600151613985565b60006228207282600501546115dd91906150c0565b6005830181905560068301805491925060006115f883615043565b90915550508451600090815261013160209081526040808320818901518452909152902060a086015181548492919081106116355761163561505e565b600091825260209091208254600890920201908155600180830154908201556002808301549082015560038083015490820180546001600160a01b0319166001600160a01b039092169190911790556004808301549082015560058083015490820155600680830154908201556007918201549101805460ff909216151560ff19909216919091179055604085015160a08601517f4e5d18a65d48ba8cf3521fbc0920dd762208a4aaa30f53a18511483f4f5860826116f26137f5565b85604051611701929190615132565b60405180910390a3505050506117176001606555565b50565b80516117246137f5565b600082815261012f60205260409020600101546001600160a01b039081169116146117615760405162461bcd60e51b815260040161078190615150565b61177b6000805160206155488339815191526104fc6137f5565b6117975760405162461bcd60e51b815260040161078190615150565b8151600081815261012f60205260409020600101546001600160a01b03166117d15760405162461bcd60e51b81526004016107819061500f565b60008360400151116117f55760405162461bcd60e51b815260040161078190615175565b60008360600151116118195760405162461bcd60e51b8152600401610781906151bb565b825160009081526101306020908152604080832080548251818502810185019093528083529192909190849084015b8282101561193e57838290600052602060002090600602016040518060c001604052908160008201548152602001600182015481526020016002820154815260200160038201548152602001600482015481526020016005820180546118ad90615074565b80601f01602080910402602001604051908101604052809291908181526020018280546118d990615074565b80156119265780601f106118fb57610100808354040283529160200191611926565b820191906000526020600020905b81548152906001019060200180831161190957829003601f168201915b50505050508152505081526020019060010190611848565b50505050905080518460200151106119a45760405162461bcd60e51b815260206004820152602360248201527f21544945525f4944202d20696e76616c69642074696572496420706172616d656044820152623a32b960e91b6064820152608401610781565b6000818560200151815181106119bc576119bc61505e565b602002602001015190506000816020015186604001511415806119e757508160800151866060015114155b80611a4657508160a00151604051602001611a029190615209565b604051602081830303815290604052805190602001208660800151604051602001611a2d9190615209565b6040516020818303038152906040528051906020012014155b905080611aa05760405162461bcd60e51b815260206004820152602260248201527f21555044415441424c45202d206e6f7468696e67206e657720746f2075706461604482015261746560f01b6064820152608401610781565b604080870151602080850191909152606088015160808086019190915288015160a085015287516000908152610130825291909120908701518154849291908110611aed57611aed61505e565b9060005260206000209060060201600082015181600001556020820151816001015560408201518160020155606082015181600301556080820151816004015560a0820151816005019080519060200190611b49929190614584565b50905050611b556137f5565b6001600160a01b031686602001517fda6913aa96e972879d5064210e8ed5092f9033d6938c38da7af1199ccb77fa5c84604051611b929190614cc5565b60405180910390a3505050505050565b600081815261012f602052604090206001015460609082906001600160a01b0316611bdf5760405162461bcd60e51b81526004016107819061500f565b60008381526101306020908152604080832080548251818502810185019093528083529193909284015b82821015611cff57838290600052602060002090600602016040518060c00160405290816000820154815260200160018201548152602001600282015481526020016003820154815260200160048201548152602001600582018054611c6e90615074565b80601f0160208091040260200160405190810160405280929190818152602001828054611c9a90615074565b8015611ce75780601f10611cbc57610100808354040283529160200191611ce7565b820191906000526020600020905b815481529060010190602001808311611cca57829003601f168201915b50505050508152505081526020019060010190611c09565b5050505091505b50919050565b600082815260fb60205260408120611d2490836139c1565b9392505050565b600091825260c9602090815260408084206001600160a01b0393909316845291905290205460ff1690565b60008281526101306020908152604080832080548251818502810185019093528083528493849084015b82821015611e7657838290600052602060002090600602016040518060c00160405290816000820154815260200160018201548152602001600282015481526020016003820154815260200160048201548152602001600582018054611de590615074565b80601f0160208091040260200160405190810160405280929190818152602001828054611e1190615074565b8015611e5e5780601f10611e3357610100808354040283529160200191611e5e565b820191906000526020600020905b815481529060010190602001808311611e4157829003601f168201915b50505050508152505081526020019060010190611d80565b50505050905060005b8151811015611fc557600085815261013160209081526040808320848452825280832080548251818502810185019093528083529192909190849084015b82821015611f48576000848152602090819020604080516101008101825260088602909201805483526001808201548486015260028201549284019290925260038101546001600160a01b0316606084015260048101546080840152600581015460a0840152600681015460c08401526007015460ff16151560e08301529083529092019101611ebd565b50505050905060005b8151811015611fb057856001600160a01b0316828281518110611f7657611f7661505e565b6020026020010151606001516001600160a01b03161415611f9e57600194505050505061073e565b80611fa881615043565b915050611f51565b50508080611fbd90615043565b915050611e7f565b506000949350505050565b81611fd96137f5565b600082815261012f60205260409020600101546001600160a01b039081169116146120165760405162461bcd60e51b815260040161078190615150565b6120306000805160206155488339815191526104fc6137f5565b61204c5760405162461bcd60e51b815260040161078190615150565b600083815261012f602052604090206001015483906001600160a01b03166120865760405162461bcd60e51b81526004016107819061500f565b600084815261013160209081526040808320868452909152812042825b82548110156121945760008382815481106120c0576120c061505e565b906000526020600020906008020160050154905060008483815481106120e8576120e861505e565b600091825260209091206007600890920201015460ff169050818411801561210d5750805b1561217f578561211c81615043565b96505060008584815481106121335761213361505e565b906000526020600020906008020160060181905550600085848154811061215c5761215c61505e565b60009182526020909120600890910201600701805460ff19169115159190911790555b5050808061218c90615043565b9150506120a3565b50600087815261013160209081526040808320898452909152902082546121bd91908490614608565b50600087815261012f60205260409020600501546121dc9084906150a9565b600088815261012f60209081526040808320600501939093556101309052208054849190889081106122105761221061505e565b90600052602060002090600602016003015461222c91906150a9565b60008881526101306020526040902080548890811061224d5761224d61505e565b90600052602060002090600602016003018190555085877fd16f2c029bb6a59cf29512b55036bf09523334034a3fb166f11a3057105b821d8560405161229591815260200190565b60405180910390a350505050505050565b816122af6137f5565b600082815261012f60205260409020600101546001600160a01b039081169116146122ec5760405162461bcd60e51b815260040161078190615150565b6123066000805160206155488339815191526104fc6137f5565b6123225760405162461bcd60e51b815260040161078190615150565b600083815261012f602052604090206001015483906001600160a01b031661235c5760405162461bcd60e51b81526004016107819061500f565b6123668484610744565b511561240b5760405162461bcd60e51b815260206004820152606260248201527f21554e44454c45544541424c45202d2043616e6e6f742064656c65746520612060448201527f5469657220696620746865726520617265207374696c6c206d656d626572732060648201527f696e2069742e20506c6561736520757064617465205469657220696e73746561608482015261642160f01b60a482015260c401610781565b6000848152610130602052604090208054841061243a5760405162461bcd60e51b815260040161078190615225565b835b815461244a906001906150a9565b811015612550578161245d8260016150c0565b8154811061246d5761246d61505e565b906000526020600020906006020182828154811061248d5761248d61505e565b9060005260206000209060060201600082015481600001556001820154816001015560028201548160020155600382015481600301556004820154816004015560058201816005019080546124e190615074565b6124ec9291906146d0565b5050506000868152610131602052604081209061250a8360016150c0565b815260208082019290925260409081016000908120898252610131845282822085835290935220815461253d9290614608565b508061254881615043565b91505061243c565b50808054806125615761256161525a565b60008281526020812060066000199093019283020181815560018101829055600281018290556003810182905560048101829055906125a3600583018261474b565b505090556000858152610131602090815260408083208454845290915281206125cb91614785565b60008581526101306020526040902081546125e8919083906147a6565b506125f16137f5565b6001600160a01b0316847f76b11a96d9ee4e8fa41d0f04aff7f9b4bbcdb96c4825f7a823a7de8efb8bc97f8360405161262a9190615270565b60405180910390a35050505050565b61268c60405180610100016040528060008152602001600081526020016000815260200160006001600160a01b031681526020016000815260200160008152602001600081526020016000151581525090565b600084815261012f602052604090206001015484906001600160a01b03166126c65760405162461bcd60e51b81526004016107819061500f565b60008581526101316020908152604080832087845290915290208054849081106126f2576126f261505e565b6000918252602091829020604080516101008101825260089093029091018054835260018101549383019390935260028301549082015260038201546001600160a01b0316606082015260048201546080820152600582015460a0820152600682015460c082015260079091015460ff16151560e08201529150509392505050565b60006127808383610c17565b905080608001518160400151106108795760405162461bcd60e51b815260206004820152600b60248201526a0854d2569157d31253525560aa1b6044820152606401610781565b600081815260fb6020526040812061073e906139cd565b600082815260c960205260409020600101546127f9816137c2565b6108798383613809565b600083815261012f602052604090206001015483906001600160a01b031661283d5760405162461bcd60e51b81526004016107819061500f565b600061284b8561051c6137f5565b90508061288c5760405162461bcd60e51b815260206004820152600f60248201526e085393d517d4d55094d0d492509151608a1b6044820152606401610781565b6128946137f5565b6001600160a01b03166128a8868686612639565b606001516001600160a01b0316146129285760405162461bcd60e51b815260206004820152603d60248201527f2153554253435249424552202d207468652063616c6c6572206973206e6f742060448201527f746865206f776e6572206f662074686520737562736372697074696f6e0000006064820152608401610781565b6000858152610130602052604090205484106129565760405162461bcd60e51b815260040161078190615225565b6129608585610744565b5183106129e15760405162461bcd60e51b815260206004820152604360248201527f21535542534352495054494f4e202d20737562736372697074696f6e206e6f7460448201527f20666f756e64207769746820605f706172616d2e737562736372697074696f6e606482015262024b2360ed1b608482015260a401610781565b60006129ef866103ce6137f5565b50506000878152610131602090815260408083208984529091529020909150845b8154612a1e906001906150a9565b811015612afd5781612a318260016150c0565b81548110612a4157612a4161505e565b9060005260206000209060080201828281548110612a6157612a6161505e565b600091825260209091208254600890920201908155600180830154908201556002808301549082015560038083015490820180546001600160a01b0319166001600160a01b039092169190911790556004808301549082015560058083015490820155600680830154908201556007918201549101805460ff909216151560ff1990921691909117905580612af581615043565b915050612a10565b5080805480612b0e57612b0e61525a565b6000828152602080822060086000199094019384020182815560018101839055600281018390556003810180546001600160a01b0319169055600481018390556005810183905560068101839055600701805460ff19169055919092558882526101318152604080832089845290915290208154612b8e91908390614608565b50600087815261013060205260409020805487908110612bb057612bb061505e565b600091825260208220600260069092020101805491612bce836153a0565b9091555050600087815261012f60205260408120600401805491612bf1836153a0565b91905055508115612c6457600087815261013060205260409020805487908110612c1d57612c1d61505e565b600091825260208220600360069092020101805491612c3b836153a0565b9091555050600087815261012f60205260408120600501805491612c5e836153a0565b91905055505b85857f3115ceb563976ce5e12f3aa8021947624508956eee729ef8598e8bdf8d594114612c8f6137f5565b846040516122959291906153b7565b8051612ca86137f5565b600082815261012f60205260409020600101546001600160a01b03908116911614612ce55760405162461bcd60e51b815260040161078190615150565b612cff6000805160206155488339815191526104fc6137f5565b612d1b5760405162461bcd60e51b815260040161078190615150565b8151600081815261012f60205260409020600101546001600160a01b0316612d555760405162461bcd60e51b81526004016107819061500f565b6000836020015111612d795760405162461bcd60e51b815260040161078190615175565b6000836040015111612d9d5760405162461bcd60e51b8152600401610781906151bb565b82516000908152610130602090815260408083208054825160c081018452818152848901518186019081528185018781526060808401898152968c015160808501908152908c015160a0850190815260018087018855878b52998990208551600688029091019081559351998401999099559051600283015594516003820155935160048501559451805192959194919384939092612e43926005850192910190614584565b505086516000908152610130602052604090208454612e64925085906147a6565b50612e6d6137f5565b6001600160a01b0316827fb38c2992d03e84ced1c9b68cc5591f25e4209f27b4c0bfd4d4e37e90b2bc6e1783604051611b929190614cc5565b61012d8054612eb490615074565b80601f0160208091040260200160405190810160405280929190818152602001828054612ee090615074565b8015612f2d5780601f10612f0257610100808354040283529160200191612f2d565b820191906000526020600020905b815481529060010190602001808311612f1057829003601f168201915b505050505081565b612f3d613894565b8051600081815261012f60205260409020600101546001600160a01b0316612f775760405162461bcd60e51b81526004016107819061500f565b6000806000612f8c85600001516103ce6137f5565b9250925092508215612fd65760405162461bcd60e51b81526020600482015260136024820152725355425343524942454420262041435449564560681b6044820152606401610781565b600019821461306457846040015182146130645760405162461bcd60e51b815260206004820152604360248201527f21455849535445445f544945525f4944202d20737562736372697074696f6e2060448201527f68617320616c7265616479206578697374656420696e20616e6f74686572205460648201526234b2b960e91b608482015260a401610781565b600019821415801561307857506000198114155b1561308f5761308f85600001518660400151612774565b845161309a906135fe565b602001516001600160a01b031685602001516001600160a01b03161461314e5760405162461bcd60e51b815260206004820152605e60248201527f214e4f545f4f574e4552202d20636c7562206f776e657220696e20706172616d60448201527f6574657220646f206e6f74206d6174636820636c7562206f776e657220696e2060648201527f636c7562207769746820636c7562496420696e20706172656d656d7465720000608482015260a401610781565b845160009081526101306020526040908190208054918701519091116131865760405162461bcd60e51b815260040161078190615225565b61319886600001518760400151610c17565b60200151866060015114613216576040805162461bcd60e51b81526020600482015260248101919091527f21544945525f464545202d207469657246656520706172616d6574657220646f60448201527f6573206e6f74206d617463682074686520666565206f662074686520546965726064820152608401610781565b6132306132216137f5565b876080015188606001516138ee565b61324f61323b6137f5565b876020015188608001518960600151613985565b600019831415801561326357506000198214155b1561339057855160009081526101316020908152604080832086845290915281208054849081106132965761329661505e565b906000526020600020906008020190504281600401819055504260786132bc91906150c0565b60058083019190915560016006830181905560078301805460ff191690911790558751600090815261012f602052604081209091018054916132fd83615043565b909155505086516000908152610130602052604090208054859081106133255761332561505e565b60009182526020822060036006909202010180549161334383615043565b919050555083837f3158ce53bd87e8e781fb2e9f2b5bbe4f743a24330f4ec177763af8a534fc93936133736137f5565b84604051613382929190615132565b60405180910390a3506135ef565b8551600090815261013160209081526040808320818a018051855290835281842080548351610100810185528181528c519581019590955291519284019290925290929091606081016133e16137f5565b6001600160a01b0316815260200142815260200142607861340291906150c0565b81526001602080830182905260409283018290528654808301885560008881528281208651600890930201918255858301519382019390935584840151600282015560608501516003820180546001600160a01b0319166001600160a01b039092169190911790556080850151600482015560a0850151600582015560c0850151600682015560e08501516007909101805460ff19169115159190911790558c51825261013181528282208d840151835290522084549192506134c6918590614608565b5088516000908152610130602052604090819020908a0151815481106134ee576134ee61505e565b60009182526020822060026006909202010180549161350c83615043565b909155505088516000908152610130602052604090819020908a0151815481106135385761353861505e565b60009182526020822060036006909202010180549161355683615043565b90915550508851600090815261012f6020526040812060040180549161357b83615043565b90915550508851600090815261012f602052604081206005018054916135a083615043565b91905055508860400151827f89f9c0ad85ee8e7d122804893447936090e2c6eacb0434171cb47f9b07ed9c2f6135d46137f5565b846040516135e392919061540f565b60405180910390a35050505b50505050506117176001606555565b6136496040518060c001604052806000815260200160006001600160a01b031681526020016000815260200160006001600160a01b0316815260200160008152602001600081525090565b50600090815261012f6020908152604091829020825160c0810184528154815260018201546001600160a01b039081169382019390935260028201549381019390935260038101549091166060830152600481015460808301526005015460a082015290565b6001600160a01b03163b151590565b3360009081526033602052604081205460ff16156136e3575060131936013560601c90565b503390565b905090565b3390565b6136fb8282611d2b565b610abd57600082815260c9602090815260408083206001600160a01b03851684529091529020805460ff191660011790556137346137f5565b6001600160a01b0316816001600160a01b0316837f2f8788117e7eff1d82e926ec794901d17c78024a50270940304540a733656f0d60405160405180910390a45050565b6000611d24836001600160a01b0384166139d7565b60006001600160e01b03198216637965db0b60e01b148061073e57506301ffc9a760e01b6001600160e01b031983161461073e565b611717816137ce6137f5565b613a26565b6137dd82826136f1565b600082815260fb602052604090206108799082613778565b60006136e86136be565b610abd82826137d3565b6138138282613a7f565b600082815260fb602052604090206108799082613b04565b600054610100900460ff166138525760405162461bcd60e51b81526004016107819061542d565b61385a613b19565b565b600054610100900460ff166138835760405162461bcd60e51b81526004016107819061542d565b61388b613b40565b61171781613b67565b600260655414156138e75760405162461bcd60e51b815260206004820152601f60248201527f5265656e7472616e637947756172643a207265656e7472616e742063616c6c006044820152606401610781565b6002606555565b6001600160a01b03821673eeeeeeeeeeeeeeeeeeeeeeeeeeeeeeeeeeeeeeee141561397a578034146108795760405162461bcd60e51b815260206004820152602f60248201527f2146554e44202d206d73672e76616c756520646f6573206e6f74206d6174636860448201526e20746f74616c20636c75622066656560881b6064820152608401610781565b610879838383613bf6565b7f00000000000000000000000000000000000000000000000000000000000000006139b38386868585613d38565b5050505050565b6001606555565b6000611d248383613ea8565b600061073e825490565b6000818152600183016020526040812054613a1e5750815460018181018455600084815260208082209093018490558454848252828601909352604090209190915561073e565b50600061073e565b613a308282611d2b565b610abd57613a3d81613ed2565b613a48836020613ee4565b604051602001613a59929190615478565b60408051601f198184030181529082905262461bcd60e51b825261078191600401614f33565b613a898282611d2b565b15610abd57600082815260c9602090815260408083206001600160a01b03851684529091529020805460ff19169055613ac06137f5565b6001600160a01b0316816001600160a01b0316837ff6391f5c32d9c69d2a47ea670b442974b53935d1edc7fd64eb21e047a839171b60405160405180910390a45050565b6000611d24836001600160a01b038416614080565b600054610100900460ff166139ba5760405162461bcd60e51b81526004016107819061542d565b600054610100900460ff1661385a5760405162461bcd60e51b81526004016107819061542d565b600054610100900460ff16613b8e5760405162461bcd60e51b81526004016107819061542d565b60005b8151811015610abd57600160336000848481518110613bb257613bb261505e565b6020908102919091018101516001600160a01b03168252810191909152604001600020805460ff191691151591909117905580613bee81615043565b915050613b91565b6040516370a0823160e01b81526001600160a01b0384811660048301528291908416906370a0823190602401602060405180830381865afa158015613c3f573d6000803e3d6000fd5b505050506040513d601f19601f82011682018060405250810190613c6391906154ed565b10158015613ce25750604051636eb1769f60e11b81526001600160a01b03848116600483015230602483015282919084169063dd62ed3e90604401602060405180830381865afa158015613cbb573d6000803e3d6000fd5b505050506040513d601f19601f82011682018060405250810190613cdf91906154ed565b10155b6108795760405162461bcd60e51b815260206004820152602160248201527f2142414c414e43453230202d20696e73756666696369656e742062616c616e636044820152606560f81b6064820152608401610781565b81613d42576139b3565b6001600160a01b03851673eeeeeeeeeeeeeeeeeeeeeeeeeeeeeeeeeeeeeeee1415613e9c576001600160a01b038416301415613de257604051632e1a7d4d60e01b8152600481018390526001600160a01b03821690632e1a7d4d90602401600060405180830381600087803b158015613dba57600080fd5b505af1158015613dce573d6000803e3d6000fd5b50505050613ddd838383614173565b6139b3565b6001600160a01b038316301415613e9157348214613e385760405162461bcd60e51b81526020600482015260136024820152721b5cd9cb9d985b1d5948084f48185b5bdd5b9d606a1b6044820152606401610781565b806001600160a01b031663d0e30db0836040518263ffffffff1660e01b81526004016000604051808303818588803b158015613e7357600080fd5b505af1158015613e87573d6000803e3d6000fd5b50505050506139b3565b613ddd838383614173565b6139b385858585614238565b6000826000018281548110613ebf57613ebf61505e565b9060005260206000200154905092915050565b606061073e6001600160a01b03831660145b60606000613ef3836002615506565b613efe9060026150c0565b67ffffffffffffffff811115613f1657613f16614a62565b6040519080825280601f01601f191660200182016040528015613f40576020820181803683370190505b509050600360fc1b81600081518110613f5b57613f5b61505e565b60200101906001600160f81b031916908160001a905350600f60fb1b81600181518110613f8a57613f8a61505e565b60200101906001600160f81b031916908160001a9053506000613fae846002615506565b613fb99060016150c0565b90505b6001811115614031576f181899199a1a9b1b9c1cb0b131b232b360811b85600f1660108110613fed57613fed61505e565b1a60f81b8282815181106140035761400361505e565b60200101906001600160f81b031916908160001a90535060049490941c9361402a816153a0565b9050613fbc565b508315611d245760405162461bcd60e51b815260206004820181905260248201527f537472696e67733a20686578206c656e67746820696e73756666696369656e746044820152606401610781565b600081815260018301602052604081205480156141695760006140a46001836150a9565b85549091506000906140b8906001906150a9565b905081811461411d5760008660000182815481106140d8576140d861505e565b90600052602060002001549050808760000184815481106140fb576140fb61505e565b6000918252602080832090910192909255918252600188019052604090208390555b855486908061412e5761412e61525a565b60019003818190600052602060002001600090559055856001016000868152602001908152602001600020600090556001935050505061073e565b600091505061073e565b6000836001600160a01b03168360405160006040518083038185875af1925050503d80600081146141c0576040519150601f19603f3d011682016040523d82523d6000602084013e6141c5565b606091505b5050905080610c1157816001600160a01b031663d0e30db0846040518263ffffffff1660e01b81526004016000604051808303818588803b15801561420957600080fd5b505af115801561421d573d6000803e3d6000fd5b50610c11935050506001600160a01b03841690508585614296565b816001600160a01b0316836001600160a01b0316141561425757610c11565b6001600160a01b0383163014156142815761427c6001600160a01b0385168383614296565b610c11565b610c116001600160a01b0385168484846142f9565b6040516001600160a01b03831660248201526044810182905261087990849063a9059cbb60e01b906064015b60408051601f198184030181529190526020810180516001600160e01b03166001600160e01b031990931692909217909152614331565b6040516001600160a01b0380851660248301528316604482015260648101829052610c119085906323b872dd60e01b906084016142c2565b6000614386826040518060400160405280602081526020017f5361666545524332303a206c6f772d6c6576656c2063616c6c206661696c6564815250856001600160a01b03166144039092919063ffffffff16565b80519091501561087957808060200190518101906143a49190615525565b6108795760405162461bcd60e51b815260206004820152602a60248201527f5361666545524332303a204552433230206f7065726174696f6e20646964206e6044820152691bdd081cdd58d8d9595960b21b6064820152608401610781565b6060614412848460008561441a565b949350505050565b60608247101561447b5760405162461bcd60e51b815260206004820152602660248201527f416464726573733a20696e73756666696369656e742062616c616e636520666f6044820152651c8818d85b1b60d21b6064820152608401610781565b6001600160a01b0385163b6144d25760405162461bcd60e51b815260206004820152601d60248201527f416464726573733a2063616c6c20746f206e6f6e2d636f6e74726163740000006044820152606401610781565b600080866001600160a01b031685876040516144ee9190615209565b60006040518083038185875af1925050503d806000811461452b576040519150601f19603f3d011682016040523d82523d6000602084013e614530565b606091505b509150915061454082828661454b565b979650505050505050565b6060831561455a575081611d24565b82511561456a5782518084602001fd5b8160405162461bcd60e51b81526004016107819190614f33565b82805461459090615074565b90600052602060002090601f0160209004810192826145b257600085556145f8565b82601f106145cb57805160ff19168380011785556145f8565b828001600101855582156145f8579182015b828111156145f85782518255916020019190600101906145dd565b5061460492915061484a565b5090565b8280548282559060005260206000209060080281019282156146c45760005260206000209160080282015b828111156146c45782548255600180840154908301556002808401549083015560038084015490830180546001600160a01b0319166001600160a01b03909216919091179055600480840154908301556005808401549083015560068084015490830155600780840154908301805460ff909216151560ff1990921691909117905560089283019290910190614633565b5061460492915061485f565b8280546146dc90615074565b90600052602060002090601f0160209004810192826146fe57600085556145f8565b82601f1061470f57805485556145f8565b828001600101855582156145f857600052602060002091601f016020900482015b828111156145f8578254825591600101919060010190614730565b50805461475790615074565b6000825580601f10614767575050565b601f016020900490600052602060002090810190611717919061484a565b5080546000825560080290600052602060002090810190611717919061485f565b82805482825590600052602060002090600602810192821561483e5760005260206000209160060282015b8281111561483e5782826000820154816000015560018201548160010155600282015481600201556003820154816003015560048201548160040155600582018160050190805461482190615074565b61482c9291906146d0565b505050916006019190600601906147d1565b506146049291506148b4565b5b80821115614604576000815560010161484b565b5b8082111561460457600080825560018201819055600282018190556003820180546001600160a01b03191690556004820181905560058201819055600682015560078101805460ff19169055600801614860565b80821115614604576000808255600182018190556002820181905560038201819055600482018190556148ea600583018261474b565b506006016148b4565b60006020828403121561490557600080fd5b81356001600160e01b031981168114611d2457600080fd5b6000806040838503121561493057600080fd5b50508035926020909101359150565b80518252602081015160208301526040810151604083015260018060a01b0360608201511660608301526080810151608083015260a081015160a083015260c081015160c083015260e0810151151560e08301525050565b6020808252825182820181905260009190848201906040850190845b818110156149da576149c683855161493f565b9284019261010092909201916001016149b3565b50909695505050505050565b6000602082840312156149f857600080fd5b5035919050565b80356001600160a01b0381168114614a1657600080fd5b919050565b60008060408385031215614a2e57600080fd5b82359150614a3e602084016149ff565b90509250929050565b600060208284031215614a5957600080fd5b611d24826149ff565b634e487b7160e01b600052604160045260246000fd5b60405160a0810167ffffffffffffffff81118282101715614a9b57614a9b614a62565b60405290565b604051601f8201601f1916810167ffffffffffffffff81118282101715614aca57614aca614a62565b604052919050565b600082601f830112614ae357600080fd5b813567ffffffffffffffff811115614afd57614afd614a62565b614b10601f8201601f1916602001614aa1565b818152846020838601011115614b2557600080fd5b816020850160208301376000918101602001919091529392505050565b600080600060608486031215614b5757600080fd5b614b60846149ff565b925060208085013567ffffffffffffffff80821115614b7e57600080fd5b614b8a88838901614ad2565b94506040870135915080821115614ba057600080fd5b818701915087601f830112614bb457600080fd5b813581811115614bc657614bc6614a62565b8060051b9150614bd7848301614aa1565b818152918301840191848101908a841115614bf157600080fd5b938501935b83851015614c1657614c07856149ff565b82529385019390850190614bf6565b8096505050505050509250925092565b60005b83811015614c41578181015183820152602001614c29565b83811115610c115750506000910152565b60008151808452614c6a816020860160208601614c26565b601f01601f19169290920160200192915050565b8051825260208101516020830152604081015160408301526060810151606083015260808101516080830152600060a082015160c060a085015261441260c0850182614c52565b602081526000611d246020830184614c7e565b600080600060608486031215614ced57600080fd5b505081359360208301359350604090920135919050565b600060c08284031215614d1657600080fd5b60405160c0810181811067ffffffffffffffff82111715614d3957614d39614a62565b60405282358152614d4c602084016149ff565b60208201526040830135604082015260608301356060820152614d71608084016149ff565b608082015260a083013560a08201528091505092915050565b600060208284031215614d9c57600080fd5b813567ffffffffffffffff80821115614db457600080fd5b9083019060a08286031215614dc857600080fd5b614dd0614a78565b82358152602083013560208201526040830135604082015260608301356060820152608083013582811115614e0457600080fd5b614e1087828601614ad2565b60808301525095945050505050565b6000602080830181845280855180835260408601915060408160051b870101925083870160005b82811015614e7457603f19888603018452614e62858351614c7e565b94509285019290850190600101614e46565b5092979650505050505050565b610100810161073e828461493f565b600060208284031215614ea257600080fd5b813567ffffffffffffffff80821115614eba57600080fd5b9083019060808286031215614ece57600080fd5b604051608081018181108382111715614ee957614ee9614a62565b8060405250823581526020830135602082015260408301356040820152606083013582811115614f1857600080fd5b614f2487828601614ad2565b60608301525095945050505050565b602081526000611d246020830184614c52565b600060a08284031215614f5857600080fd5b60405160a0810181811067ffffffffffffffff82111715614f7b57614f7b614a62565b60405282358152614f8e602084016149ff565b60208201526040830135604082015260608301356060820152614fb3608084016149ff565b60808201529392505050565b815181526020808301516001600160a01b039081169183019190915260408084015190830152606080840151909116908201526080808301519082015260a0918201519181019190915260c00190565b60208082526004908201526343444e4560e01b604082015260600190565b634e487b7160e01b600052601160045260246000fd5b60006000198214156150575761505761502d565b5060010190565b634e487b7160e01b600052603260045260246000fd5b600181811c9082168061508857607f821691505b60208210811415611d0657634e487b7160e01b600052602260045260246000fd5b6000828210156150bb576150bb61502d565b500390565b600082198211156150d3576150d361502d565b500190565b80548252600181015460208301526002810154604083015260038101546001600160a01b0316606083015260048101546080830152600581015460a0830152600681015460c08301526007015460ff16151560e090910152565b6001600160a01b03831681526101208101611d2460208301846150d8565b6020808252600b908201526a10a1a62aa12fa7aba722a960a91b604082015260600190565b60208082526026908201527f21544945525f464545202d20666565206d75737420626520677265617465722060408201526507468616e20360d41b606082015260800190565b6020808252602e908201527f2153495a455f4c494d4954202d20746965722073697a65206d7573742062652060408201526d067726561746572207468616e20360941b606082015260800190565b6000825161521b818460208701614c26565b9190910192915050565b6020808252818101527f21544945525f4944202d20696e76616c6964205f706172616d2e746965724964604082015260600190565b634e487b7160e01b600052603160045260246000fd5b6000602080830181845280855480835260408601915060408160051b87010192506000878152848120815b8381101561539257603f19898703018552815486526001820154878701526002820154604087015260038201546060870152600482015460808701526005820160c060a0880152838154858160011c905060018216806152fc57607f821691505b8b821081141561531a57634e487b7160e01b88526022600452602488fd5b60c08b0182905260e08b01818015615339576001811461534a57615376565b60ff19851682528d82019550615376565b6000878152602090208a5b85811015615370578154848201526001909101908f01615355565b83019650505b50939a505050968901965050506006919091019060010161529b565b509398975050505050505050565b6000816153af576153af61502d565b506000190190565b6001600160a01b0383168152604060208083018290528354918301829052600084815290812090916060840190835b818110156149da576153f883856150d8565b6008939093019261010092909201916001016153e6565b6001600160a01b03831681526101208101611d24602083018461493f565b6020808252602b908201527f496e697469616c697a61626c653a20636f6e7472616374206973206e6f74206960408201526a6e697469616c697a696e6760a81b606082015260800190565b7f416363657373436f6e74726f6c3a206163636f756e74200000000000000000008152600083516154b0816017850160208801614c26565b7001034b99036b4b9b9b4b733903937b6329607d1b60179184019182015283516154e1816028840160208801614c26565b01602801949350505050565b6000602082840312156154ff57600080fd5b5051919050565b60008160001904831182151516156155205761552061502d565b500290565b60006020828403121561553757600080fd5b81518015158114611d2457600080fdfe23f976b238475310fa8d38b5e5b834d91cc5f657879082905fa12ceab9a587f3a2646970667358221220c1a1da82dced716334be81ede6ef4fd4d29d8633842a56f3834d0ec75169b98f64736f6c634300080b0033496e697469616c697a61626c653a20636f6e7472616374206973206e6f742069",
  "linkReferences": {},
  "deployedLinkReferences": {}
}